{
	"Twitter3.sol": {
		"Twitter": {
			"abi": [
				{
					"inputs": [],
					"stateMutability": "nonpayable",
					"type": "constructor"
				},
				{
					"inputs": [],
					"name": "MAX_TWEET_LENGHT",
					"outputs": [
						{
							"internalType": "uint16",
							"name": "",
							"type": "uint16"
						}
					],
					"stateMutability": "view",
					"type": "function"
				},
				{
					"inputs": [
						{
							"internalType": "uint16",
							"name": "_newMaxLength",
							"type": "uint16"
						}
					],
					"name": "changeTweetLength",
					"outputs": [],
					"stateMutability": "nonpayable",
					"type": "function"
				},
				{
					"inputs": [
						{
							"internalType": "string",
							"name": "_tweet",
							"type": "string"
						}
					],
					"name": "createTweet",
					"outputs": [],
					"stateMutability": "nonpayable",
					"type": "function"
				},
				{
					"inputs": [
						{
							"internalType": "address",
							"name": "_owner",
							"type": "address"
						}
					],
					"name": "getAllTweet",
					"outputs": [
						{
							"components": [
								{
									"internalType": "uint256",
									"name": "id",
									"type": "uint256"
								},
								{
									"internalType": "address",
									"name": "author",
									"type": "address"
								},
								{
									"internalType": "string",
									"name": "content",
									"type": "string"
								},
								{
									"internalType": "uint256",
									"name": "timestamp",
									"type": "uint256"
								},
								{
									"internalType": "uint256",
									"name": "likes",
									"type": "uint256"
								}
							],
							"internalType": "struct Twitter.Tweet[]",
							"name": "",
							"type": "tuple[]"
						}
					],
					"stateMutability": "view",
					"type": "function"
				},
				{
					"inputs": [
						{
							"internalType": "uint256",
							"name": "_i",
							"type": "uint256"
						}
					],
					"name": "getTweet",
					"outputs": [
						{
							"components": [
								{
									"internalType": "uint256",
									"name": "id",
									"type": "uint256"
								},
								{
									"internalType": "address",
									"name": "author",
									"type": "address"
								},
								{
									"internalType": "string",
									"name": "content",
									"type": "string"
								},
								{
									"internalType": "uint256",
									"name": "timestamp",
									"type": "uint256"
								},
								{
									"internalType": "uint256",
									"name": "likes",
									"type": "uint256"
								}
							],
							"internalType": "struct Twitter.Tweet",
							"name": "",
							"type": "tuple"
						}
					],
					"stateMutability": "view",
					"type": "function"
				},
				{
					"inputs": [
						{
							"internalType": "address",
							"name": "_author",
							"type": "address"
						},
						{
							"internalType": "uint256",
							"name": "_id",
							"type": "uint256"
						}
					],
					"name": "likeTweet",
					"outputs": [],
					"stateMutability": "nonpayable",
					"type": "function"
				},
				{
					"inputs": [
						{
							"internalType": "address",
							"name": "",
							"type": "address"
						},
						{
							"internalType": "uint256",
							"name": "",
							"type": "uint256"
						}
					],
					"name": "tweets",
					"outputs": [
						{
							"internalType": "uint256",
							"name": "id",
							"type": "uint256"
						},
						{
							"internalType": "address",
							"name": "author",
							"type": "address"
						},
						{
							"internalType": "string",
							"name": "content",
							"type": "string"
						},
						{
							"internalType": "uint256",
							"name": "timestamp",
							"type": "uint256"
						},
						{
							"internalType": "uint256",
							"name": "likes",
							"type": "uint256"
						}
					],
					"stateMutability": "view",
					"type": "function"
				},
				{
					"inputs": [
						{
							"internalType": "address",
							"name": "_author",
							"type": "address"
						},
						{
							"internalType": "uint256",
							"name": "_id",
							"type": "uint256"
						}
					],
					"name": "unlikeTweet",
					"outputs": [],
					"stateMutability": "nonpayable",
					"type": "function"
				}
			],
			"devdoc": {
				"kind": "dev",
				"methods": {},
				"version": 1
			},
			"evm": {
				"assembly": "    /* \"Twitter3.sol\":57:2187  contract Twitter {... */\n  mstore(0x40, 0x80)\n    /* \"Twitter3.sol\":114:117  280 */\n  0x0118\n    /* \"Twitter3.sol\":81:117  uint16 public MAX_TWEET_LENGHT = 280 */\n  0x00\n  exp(0x0100, 0x00)\n  dup2\n  sload\n  dup2\n  0xffff\n  mul\n  not\n  and\n  swap1\n  dup4\n  0xffff\n  and\n  mul\n  or\n  swap1\n  sstore\n  pop\n    /* \"Twitter3.sol\":143:192  constructor() {... */\n  callvalue\n  dup1\n  iszero\n  tag_1\n  jumpi\n  revert(0x00, 0x00)\ntag_1:\n  pop\n    /* \"Twitter3.sol\":175:185  msg.sender */\n  caller\n    /* \"Twitter3.sol\":167:172  owner */\n  0x00\n  0x02\n    /* \"Twitter3.sol\":167:185  owner = msg.sender */\n  0x0100\n  exp\n  dup2\n  sload\n  dup2\n  0xffffffffffffffffffffffffffffffffffffffff\n  mul\n  not\n  and\n  swap1\n  dup4\n  0xffffffffffffffffffffffffffffffffffffffff\n  and\n  mul\n  or\n  swap1\n  sstore\n  pop\n    /* \"Twitter3.sol\":57:2187  contract Twitter {... */\n  dataSize(sub_0)\n  dup1\n  dataOffset(sub_0)\n  0x00\n  codecopy\n  0x00\n  return\nstop\n\nsub_0: assembly {\n        /* \"Twitter3.sol\":57:2187  contract Twitter {... */\n      mstore(0x40, 0x80)\n      callvalue\n      dup1\n      iszero\n      tag_1\n      jumpi\n      revert(0x00, 0x00)\n    tag_1:\n      pop\n      jumpi(tag_2, lt(calldatasize, 0x04))\n      shr(0xe0, calldataload(0x00))\n      dup1\n      0x6c02e8b7\n      gt\n      tag_11\n      jumpi\n      dup1\n      0x6c02e8b7\n      eq\n      tag_7\n      jumpi\n      dup1\n      0x7c9cd2bc\n      eq\n      tag_8\n      jumpi\n      dup1\n      0xb64988b8\n      eq\n      tag_9\n      jumpi\n      dup1\n      0xc3ad5ecb\n      eq\n      tag_10\n      jumpi\n      jump(tag_2)\n    tag_11:\n      dup1\n      0x05a1b4a9\n      eq\n      tag_3\n      jumpi\n      dup1\n      0x3d9b569f\n      eq\n      tag_4\n      jumpi\n      dup1\n      0x58bfa4ab\n      eq\n      tag_5\n      jumpi\n      dup1\n      0x63378216\n      eq\n      tag_6\n      jumpi\n    tag_2:\n      revert(0x00, 0x00)\n        /* \"Twitter3.sol\":371:412  mapping(address => Tweet[]) public tweets */\n    tag_3:\n      tag_12\n      0x04\n      dup1\n      calldatasize\n      sub\n      dup2\n      add\n      swap1\n      tag_13\n      swap2\n      swap1\n      tag_14\n      jump\t// in\n    tag_13:\n      tag_15\n      jump\t// in\n    tag_12:\n      mload(0x40)\n      tag_16\n      swap6\n      swap5\n      swap4\n      swap3\n      swap2\n      swap1\n      tag_17\n      jump\t// in\n    tag_16:\n      mload(0x40)\n      dup1\n      swap2\n      sub\n      swap1\n      return\n        /* \"Twitter3.sol\":1930:2185  function unlikeTweet(address _author, uint256 _id) external {... */\n    tag_4:\n      tag_18\n      0x04\n      dup1\n      calldatasize\n      sub\n      dup2\n      add\n      swap1\n      tag_19\n      swap2\n      swap1\n      tag_14\n      jump\t// in\n    tag_19:\n      tag_20\n      jump\t// in\n    tag_18:\n      stop\n        /* \"Twitter3.sol\":1619:1734  function changeTweetLength(uint16 _newMaxLength) public onlyOwner {... */\n    tag_5:\n      tag_21\n      0x04\n      dup1\n      calldatasize\n      sub\n      dup2\n      add\n      swap1\n      tag_22\n      swap2\n      swap1\n      tag_23\n      jump\t// in\n    tag_22:\n      tag_24\n      jump\t// in\n    tag_21:\n      stop\n        /* \"Twitter3.sol\":1740:1924  function likeTweet(address _author, uint256 _id) external {... */\n    tag_6:\n      tag_25\n      0x04\n      dup1\n      calldatasize\n      sub\n      dup2\n      add\n      swap1\n      tag_26\n      swap2\n      swap1\n      tag_14\n      jump\t// in\n    tag_26:\n      tag_27\n      jump\t// in\n    tag_25:\n      stop\n        /* \"Twitter3.sol\":81:117  uint16 public MAX_TWEET_LENGHT = 280 */\n    tag_7:\n      tag_28\n      tag_29\n      jump\t// in\n    tag_28:\n      mload(0x40)\n      tag_30\n      swap2\n      swap1\n      tag_31\n      jump\t// in\n    tag_30:\n      mload(0x40)\n      dup1\n      swap2\n      sub\n      swap1\n      return\n        /* \"Twitter3.sol\":419:1256  function createTweet(string memory _tweet) public {... */\n    tag_8:\n      tag_32\n      0x04\n      dup1\n      calldatasize\n      sub\n      dup2\n      add\n      swap1\n      tag_33\n      swap2\n      swap1\n      tag_34\n      jump\t// in\n    tag_33:\n      tag_35\n      jump\t// in\n    tag_32:\n      stop\n        /* \"Twitter3.sol\":1378:1489  function getAllTweet(address _owner) public view returns(Tweet[] memory) {... */\n    tag_9:\n      tag_36\n      0x04\n      dup1\n      calldatasize\n      sub\n      dup2\n      add\n      swap1\n      tag_37\n      swap2\n      swap1\n      tag_38\n      jump\t// in\n    tag_37:\n      tag_39\n      jump\t// in\n    tag_36:\n      mload(0x40)\n      tag_40\n      swap2\n      swap1\n      tag_41\n      jump\t// in\n    tag_40:\n      mload(0x40)\n      dup1\n      swap2\n      sub\n      swap1\n      return\n        /* \"Twitter3.sol\":1262:1368  function getTweet(uint _i) public view returns(Tweet memory){... */\n    tag_10:\n      tag_42\n      0x04\n      dup1\n      calldatasize\n      sub\n      dup2\n      add\n      swap1\n      tag_43\n      swap2\n      swap1\n      tag_44\n      jump\t// in\n    tag_43:\n      tag_45\n      jump\t// in\n    tag_42:\n      mload(0x40)\n      tag_46\n      swap2\n      swap1\n      tag_47\n      jump\t// in\n    tag_46:\n      mload(0x40)\n      dup1\n      swap2\n      sub\n      swap1\n      return\n        /* \"Twitter3.sol\":371:412  mapping(address => Tweet[]) public tweets */\n    tag_15:\n      mstore(0x20, 0x01)\n      dup2\n      0x00\n      mstore\n      keccak256(0x00, 0x40)\n      dup2\n      dup2\n      sload\n      dup2\n      lt\n      tag_48\n      jumpi\n      0x00\n      dup1\n      revert\n    tag_48:\n      swap1\n      0x00\n      mstore\n      keccak256(0x00, 0x20)\n      swap1\n      0x05\n      mul\n      add\n      0x00\n      swap2\n      pop\n      swap2\n      pop\n      pop\n      dup1\n      0x00\n      add\n      sload\n      swap1\n      dup1\n      0x01\n      add\n      0x00\n      swap1\n      sload\n      swap1\n      0x0100\n      exp\n      swap1\n      div\n      0xffffffffffffffffffffffffffffffffffffffff\n      and\n      swap1\n      dup1\n      0x02\n      add\n      dup1\n      sload\n      tag_50\n      swap1\n      tag_51\n      jump\t// in\n    tag_50:\n      dup1\n      0x1f\n      add\n      0x20\n      dup1\n      swap2\n      div\n      mul\n      0x20\n      add\n      mload(0x40)\n      swap1\n      dup2\n      add\n      0x40\n      mstore\n      dup1\n      swap3\n      swap2\n      swap1\n      dup2\n      dup2\n      mstore\n      0x20\n      add\n      dup3\n      dup1\n      sload\n      tag_52\n      swap1\n      tag_51\n      jump\t// in\n    tag_52:\n      dup1\n      iszero\n      tag_53\n      jumpi\n      dup1\n      0x1f\n      lt\n      tag_54\n      jumpi\n      0x0100\n      dup1\n      dup4\n      sload\n      div\n      mul\n      dup4\n      mstore\n      swap2\n      0x20\n      add\n      swap2\n      jump(tag_53)\n    tag_54:\n      dup3\n      add\n      swap2\n      swap1\n      0x00\n      mstore\n      keccak256(0x00, 0x20)\n      swap1\n    tag_55:\n      dup2\n      sload\n      dup2\n      mstore\n      swap1\n      0x01\n      add\n      swap1\n      0x20\n      add\n      dup1\n      dup4\n      gt\n      tag_55\n      jumpi\n      dup3\n      swap1\n      sub\n      0x1f\n      and\n      dup3\n      add\n      swap2\n    tag_53:\n      pop\n      pop\n      pop\n      pop\n      pop\n      swap1\n      dup1\n      0x03\n      add\n      sload\n      swap1\n      dup1\n      0x04\n      add\n      sload\n      swap1\n      pop\n      dup6\n      jump\t// out\n        /* \"Twitter3.sol\":1930:2185  function unlikeTweet(address _author, uint256 _id) external {... */\n    tag_20:\n        /* \"Twitter3.sol\":2035:2038  _id */\n      dup1\n        /* \"Twitter3.sol\":2008:2014  tweets */\n      0x01\n        /* \"Twitter3.sol\":2008:2023  tweets[_author] */\n      0x00\n        /* \"Twitter3.sol\":2015:2022  _author */\n      dup5\n        /* \"Twitter3.sol\":2008:2023  tweets[_author] */\n      0xffffffffffffffffffffffffffffffffffffffff\n      and\n      0xffffffffffffffffffffffffffffffffffffffff\n      and\n      dup2\n      mstore\n      0x20\n      add\n      swap1\n      dup2\n      mstore\n      0x20\n      add\n      0x00\n      keccak256\n        /* \"Twitter3.sol\":2024:2027  _id */\n      dup3\n        /* \"Twitter3.sol\":2008:2028  tweets[_author][_id] */\n      dup2\n      sload\n      dup2\n      lt\n      tag_57\n      jumpi\n      tag_58\n      tag_59\n      jump\t// in\n    tag_58:\n    tag_57:\n      swap1\n      0x00\n      mstore\n      keccak256(0x00, 0x20)\n      swap1\n      0x05\n      mul\n      add\n        /* \"Twitter3.sol\":2008:2031  tweets[_author][_id].id */\n      0x00\n      add\n      sload\n        /* \"Twitter3.sol\":2008:2038  tweets[_author][_id].id == _id */\n      eq\n        /* \"Twitter3.sol\":2000:2062  require(tweets[_author][_id].id == _id, \"Il tweet non esiste\") */\n      tag_61\n      jumpi\n      mload(0x40)\n      0x08c379a000000000000000000000000000000000000000000000000000000000\n      dup2\n      mstore\n      0x04\n      add\n      tag_62\n      swap1\n      tag_63\n      jump\t// in\n    tag_62:\n      mload(0x40)\n      dup1\n      swap2\n      sub\n      swap1\n      revert\n    tag_61:\n        /* \"Twitter3.sol\":2109:2110  0 */\n      0x00\n        /* \"Twitter3.sol\":2080:2086  tweets */\n      0x01\n        /* \"Twitter3.sol\":2080:2095  tweets[_author] */\n      0x00\n        /* \"Twitter3.sol\":2087:2094  _author */\n      dup5\n        /* \"Twitter3.sol\":2080:2095  tweets[_author] */\n      0xffffffffffffffffffffffffffffffffffffffff\n      and\n      0xffffffffffffffffffffffffffffffffffffffff\n      and\n      dup2\n      mstore\n      0x20\n      add\n      swap1\n      dup2\n      mstore\n      0x20\n      add\n      0x00\n      keccak256\n        /* \"Twitter3.sol\":2096:2099  _id */\n      dup3\n        /* \"Twitter3.sol\":2080:2100  tweets[_author][_id] */\n      dup2\n      sload\n      dup2\n      lt\n      tag_64\n      jumpi\n      tag_65\n      tag_59\n      jump\t// in\n    tag_65:\n    tag_64:\n      swap1\n      0x00\n      mstore\n      keccak256(0x00, 0x20)\n      swap1\n      0x05\n      mul\n      add\n        /* \"Twitter3.sol\":2080:2106  tweets[_author][_id].likes */\n      0x04\n      add\n      sload\n        /* \"Twitter3.sol\":2080:2110  tweets[_author][_id].likes > 0 */\n      gt\n        /* \"Twitter3.sol\":2072:2139  require(tweets[_author][_id].likes > 0, \"Il tweet ha gia' 0 likes\") */\n      tag_67\n      jumpi\n      mload(0x40)\n      0x08c379a000000000000000000000000000000000000000000000000000000000\n      dup2\n      mstore\n      0x04\n      add\n      tag_68\n      swap1\n      tag_69\n      jump\t// in\n    tag_68:\n      mload(0x40)\n      dup1\n      swap2\n      sub\n      swap1\n      revert\n    tag_67:\n        /* \"Twitter3.sol\":2150:2156  tweets */\n      0x01\n        /* \"Twitter3.sol\":2150:2165  tweets[_author] */\n      0x00\n        /* \"Twitter3.sol\":2157:2164  _author */\n      dup4\n        /* \"Twitter3.sol\":2150:2165  tweets[_author] */\n      0xffffffffffffffffffffffffffffffffffffffff\n      and\n      0xffffffffffffffffffffffffffffffffffffffff\n      and\n      dup2\n      mstore\n      0x20\n      add\n      swap1\n      dup2\n      mstore\n      0x20\n      add\n      0x00\n      keccak256\n        /* \"Twitter3.sol\":2166:2169  _id */\n      dup2\n        /* \"Twitter3.sol\":2150:2170  tweets[_author][_id] */\n      dup2\n      sload\n      dup2\n      lt\n      tag_70\n      jumpi\n      tag_71\n      tag_59\n      jump\t// in\n    tag_71:\n    tag_70:\n      swap1\n      0x00\n      mstore\n      keccak256(0x00, 0x20)\n      swap1\n      0x05\n      mul\n      add\n        /* \"Twitter3.sol\":2150:2176  tweets[_author][_id].likes */\n      0x04\n      add\n      0x00\n        /* \"Twitter3.sol\":2150:2178  tweets[_author][_id].likes-- */\n      dup2\n      sload\n      dup1\n      swap3\n      swap2\n      swap1\n      tag_73\n      swap1\n      tag_74\n      jump\t// in\n    tag_73:\n      swap2\n      swap1\n      pop\n      sstore\n      pop\n        /* \"Twitter3.sol\":1930:2185  function unlikeTweet(address _author, uint256 _id) external {... */\n      pop\n      pop\n      jump\t// out\n        /* \"Twitter3.sol\":1619:1734  function changeTweetLength(uint16 _newMaxLength) public onlyOwner {... */\n    tag_24:\n        /* \"Twitter3.sol\":1548:1553  owner */\n      0x00\n      0x02\n      swap1\n      sload\n      swap1\n      0x0100\n      exp\n      swap1\n      div\n      0xffffffffffffffffffffffffffffffffffffffff\n      and\n        /* \"Twitter3.sol\":1534:1553  msg.sender == owner */\n      0xffffffffffffffffffffffffffffffffffffffff\n      and\n        /* \"Twitter3.sol\":1534:1544  msg.sender */\n      caller\n        /* \"Twitter3.sol\":1534:1553  msg.sender == owner */\n      0xffffffffffffffffffffffffffffffffffffffff\n      and\n      eq\n        /* \"Twitter3.sol\":1526:1595  require(msg.sender == owner, \"Non sei il proprietario del contratto\") */\n      tag_76\n      jumpi\n      mload(0x40)\n      0x08c379a000000000000000000000000000000000000000000000000000000000\n      dup2\n      mstore\n      0x04\n      add\n      tag_77\n      swap1\n      tag_78\n      jump\t// in\n    tag_77:\n      mload(0x40)\n      dup1\n      swap2\n      sub\n      swap1\n      revert\n    tag_76:\n        /* \"Twitter3.sol\":1714:1727  _newMaxLength */\n      dup1\n        /* \"Twitter3.sol\":1695:1711  MAX_TWEET_LENGHT */\n      0x00\n      0x00\n        /* \"Twitter3.sol\":1695:1727  MAX_TWEET_LENGHT = _newMaxLength */\n      0x0100\n      exp\n      dup2\n      sload\n      dup2\n      0xffff\n      mul\n      not\n      and\n      swap1\n      dup4\n      0xffff\n      and\n      mul\n      or\n      swap1\n      sstore\n      pop\n        /* \"Twitter3.sol\":1619:1734  function changeTweetLength(uint16 _newMaxLength) public onlyOwner {... */\n      pop\n      jump\t// out\n        /* \"Twitter3.sol\":1740:1924  function likeTweet(address _author, uint256 _id) external {... */\n    tag_27:\n        /* \"Twitter3.sol\":1843:1846  _id */\n      dup1\n        /* \"Twitter3.sol\":1816:1822  tweets */\n      0x01\n        /* \"Twitter3.sol\":1816:1831  tweets[_author] */\n      0x00\n        /* \"Twitter3.sol\":1823:1830  _author */\n      dup5\n        /* \"Twitter3.sol\":1816:1831  tweets[_author] */\n      0xffffffffffffffffffffffffffffffffffffffff\n      and\n      0xffffffffffffffffffffffffffffffffffffffff\n      and\n      dup2\n      mstore\n      0x20\n      add\n      swap1\n      dup2\n      mstore\n      0x20\n      add\n      0x00\n      keccak256\n        /* \"Twitter3.sol\":1832:1835  _id */\n      dup3\n        /* \"Twitter3.sol\":1816:1836  tweets[_author][_id] */\n      dup2\n      sload\n      dup2\n      lt\n      tag_81\n      jumpi\n      tag_82\n      tag_59\n      jump\t// in\n    tag_82:\n    tag_81:\n      swap1\n      0x00\n      mstore\n      keccak256(0x00, 0x20)\n      swap1\n      0x05\n      mul\n      add\n        /* \"Twitter3.sol\":1816:1839  tweets[_author][_id].id */\n      0x00\n      add\n      sload\n        /* \"Twitter3.sol\":1816:1846  tweets[_author][_id].id == _id */\n      eq\n        /* \"Twitter3.sol\":1808:1870  require(tweets[_author][_id].id == _id, \"Il tweet non esiste\") */\n      tag_84\n      jumpi\n      mload(0x40)\n      0x08c379a000000000000000000000000000000000000000000000000000000000\n      dup2\n      mstore\n      0x04\n      add\n      tag_85\n      swap1\n      tag_63\n      jump\t// in\n    tag_85:\n      mload(0x40)\n      dup1\n      swap2\n      sub\n      swap1\n      revert\n    tag_84:\n        /* \"Twitter3.sol\":1889:1895  tweets */\n      0x01\n        /* \"Twitter3.sol\":1889:1904  tweets[_author] */\n      0x00\n        /* \"Twitter3.sol\":1896:1903  _author */\n      dup4\n        /* \"Twitter3.sol\":1889:1904  tweets[_author] */\n      0xffffffffffffffffffffffffffffffffffffffff\n      and\n      0xffffffffffffffffffffffffffffffffffffffff\n      and\n      dup2\n      mstore\n      0x20\n      add\n      swap1\n      dup2\n      mstore\n      0x20\n      add\n      0x00\n      keccak256\n        /* \"Twitter3.sol\":1905:1908  _id */\n      dup2\n        /* \"Twitter3.sol\":1889:1909  tweets[_author][_id] */\n      dup2\n      sload\n      dup2\n      lt\n      tag_86\n      jumpi\n      tag_87\n      tag_59\n      jump\t// in\n    tag_87:\n    tag_86:\n      swap1\n      0x00\n      mstore\n      keccak256(0x00, 0x20)\n      swap1\n      0x05\n      mul\n      add\n        /* \"Twitter3.sol\":1889:1915  tweets[_author][_id].likes */\n      0x04\n      add\n      0x00\n        /* \"Twitter3.sol\":1889:1917  tweets[_author][_id].likes++ */\n      dup2\n      sload\n      dup1\n      swap3\n      swap2\n      swap1\n      tag_89\n      swap1\n      tag_90\n      jump\t// in\n    tag_89:\n      swap2\n      swap1\n      pop\n      sstore\n      pop\n        /* \"Twitter3.sol\":1740:1924  function likeTweet(address _author, uint256 _id) external {... */\n      pop\n      pop\n      jump\t// out\n        /* \"Twitter3.sol\":81:117  uint16 public MAX_TWEET_LENGHT = 280 */\n    tag_29:\n      0x00\n      0x00\n      swap1\n      sload\n      swap1\n      0x0100\n      exp\n      swap1\n      div\n      0xffff\n      and\n      dup2\n      jump\t// out\n        /* \"Twitter3.sol\":419:1256  function createTweet(string memory _tweet) public {... */\n    tag_35:\n        /* \"Twitter3.sol\":941:957  MAX_TWEET_LENGHT */\n      0x00\n      0x00\n      swap1\n      sload\n      swap1\n      0x0100\n      exp\n      swap1\n      div\n      0xffff\n      and\n        /* \"Twitter3.sol\":917:957  bytes(_tweet).length <= MAX_TWEET_LENGHT */\n      0xffff\n      and\n        /* \"Twitter3.sol\":923:929  _tweet */\n      dup2\n        /* \"Twitter3.sol\":917:937  bytes(_tweet).length */\n      mload\n        /* \"Twitter3.sol\":917:957  bytes(_tweet).length <= MAX_TWEET_LENGHT */\n      gt\n      iszero\n        /* \"Twitter3.sol\":909:987  require(bytes(_tweet).length <= MAX_TWEET_LENGHT, \"il Tweet e' troppo grande\") */\n      tag_92\n      jumpi\n      mload(0x40)\n      0x08c379a000000000000000000000000000000000000000000000000000000000\n      dup2\n      mstore\n      0x04\n      add\n      tag_93\n      swap1\n      tag_94\n      jump\t// in\n    tag_93:\n      mload(0x40)\n      dup1\n      swap2\n      sub\n      swap1\n      revert\n    tag_92:\n        /* \"Twitter3.sol\":998:1019  Tweet memory newTweet */\n      0x00\n        /* \"Twitter3.sol\":1022:1205  Tweet({... */\n      mload(0x40)\n      dup1\n      0xa0\n      add\n      0x40\n      mstore\n      dup1\n        /* \"Twitter3.sol\":1046:1052  tweets */\n      0x01\n        /* \"Twitter3.sol\":1046:1064  tweets[msg.sender] */\n      0x00\n        /* \"Twitter3.sol\":1053:1063  msg.sender */\n      caller\n        /* \"Twitter3.sol\":1046:1064  tweets[msg.sender] */\n      0xffffffffffffffffffffffffffffffffffffffff\n      and\n      0xffffffffffffffffffffffffffffffffffffffff\n      and\n      dup2\n      mstore\n      0x20\n      add\n      swap1\n      dup2\n      mstore\n      0x20\n      add\n      0x00\n      keccak256\n        /* \"Twitter3.sol\":1046:1071  tweets[msg.sender].length */\n      dup1\n      sload\n      swap1\n      pop\n        /* \"Twitter3.sol\":1022:1205  Tweet({... */\n      dup2\n      mstore\n      0x20\n      add\n        /* \"Twitter3.sol\":1093:1103  msg.sender */\n      caller\n        /* \"Twitter3.sol\":1022:1205  Tweet({... */\n      0xffffffffffffffffffffffffffffffffffffffff\n      and\n      dup2\n      mstore\n      0x20\n      add\n        /* \"Twitter3.sol\":1126:1132  _tweet */\n      dup4\n        /* \"Twitter3.sol\":1022:1205  Tweet({... */\n      dup2\n      mstore\n      0x20\n      add\n        /* \"Twitter3.sol\":1157:1172  block.timestamp */\n      timestamp\n        /* \"Twitter3.sol\":1022:1205  Tweet({... */\n      dup2\n      mstore\n      0x20\n      add\n        /* \"Twitter3.sol\":1193:1194  0 */\n      0x00\n        /* \"Twitter3.sol\":1022:1205  Tweet({... */\n      dup2\n      mstore\n      pop\n        /* \"Twitter3.sol\":998:1205  Tweet memory newTweet = Tweet({... */\n      swap1\n      pop\n        /* \"Twitter3.sol\":1216:1222  tweets */\n      0x01\n        /* \"Twitter3.sol\":1216:1234  tweets[msg.sender] */\n      0x00\n        /* \"Twitter3.sol\":1223:1233  msg.sender */\n      caller\n        /* \"Twitter3.sol\":1216:1234  tweets[msg.sender] */\n      0xffffffffffffffffffffffffffffffffffffffff\n      and\n      0xffffffffffffffffffffffffffffffffffffffff\n      and\n      dup2\n      mstore\n      0x20\n      add\n      swap1\n      dup2\n      mstore\n      0x20\n      add\n      0x00\n      keccak256\n        /* \"Twitter3.sol\":1240:1248  newTweet */\n      dup2\n        /* \"Twitter3.sol\":1216:1249  tweets[msg.sender].push(newTweet) */\n      swap1\n      dup1\n      0x01\n      dup2\n      sload\n      add\n      dup1\n      dup3\n      sstore\n      dup1\n      swap2\n      pop\n      pop\n      0x01\n      swap1\n      sub\n      swap1\n      0x00\n      mstore\n      keccak256(0x00, 0x20)\n      swap1\n      0x05\n      mul\n      add\n      0x00\n      swap1\n      swap2\n      swap1\n      swap2\n      swap1\n      swap2\n      pop\n      0x00\n      dup3\n      add\n      mload\n      dup2\n      0x00\n      add\n      sstore\n      0x20\n      dup3\n      add\n      mload\n      dup2\n      0x01\n      add\n      exp(0x0100, 0x00)\n      dup2\n      sload\n      dup2\n      0xffffffffffffffffffffffffffffffffffffffff\n      mul\n      not\n      and\n      swap1\n      dup4\n      0xffffffffffffffffffffffffffffffffffffffff\n      and\n      mul\n      or\n      swap1\n      sstore\n      pop\n      0x40\n      dup3\n      add\n      mload\n      dup2\n      0x02\n      add\n      swap1\n      dup2\n      tag_96\n      swap2\n      swap1\n      tag_97\n      jump\t// in\n    tag_96:\n      pop\n      0x60\n      dup3\n      add\n      mload\n      dup2\n      0x03\n      add\n      sstore\n      0x80\n      dup3\n      add\n      mload\n      dup2\n      0x04\n      add\n      sstore\n      pop\n      pop\n        /* \"Twitter3.sol\":469:1256  {... */\n      pop\n        /* \"Twitter3.sol\":419:1256  function createTweet(string memory _tweet) public {... */\n      pop\n      jump\t// out\n        /* \"Twitter3.sol\":1378:1489  function getAllTweet(address _owner) public view returns(Tweet[] memory) {... */\n    tag_39:\n        /* \"Twitter3.sol\":1435:1449  Tweet[] memory */\n      0x60\n        /* \"Twitter3.sol\":1468:1474  tweets */\n      0x01\n        /* \"Twitter3.sol\":1468:1482  tweets[_owner] */\n      0x00\n        /* \"Twitter3.sol\":1475:1481  _owner */\n      dup4\n        /* \"Twitter3.sol\":1468:1482  tweets[_owner] */\n      0xffffffffffffffffffffffffffffffffffffffff\n      and\n      0xffffffffffffffffffffffffffffffffffffffff\n      and\n      dup2\n      mstore\n      0x20\n      add\n      swap1\n      dup2\n      mstore\n      0x20\n      add\n      0x00\n      keccak256\n        /* \"Twitter3.sol\":1461:1482  return tweets[_owner] */\n      dup1\n      sload\n      dup1\n      0x20\n      mul\n      0x20\n      add\n      mload(0x40)\n      swap1\n      dup2\n      add\n      0x40\n      mstore\n      dup1\n      swap3\n      swap2\n      swap1\n      dup2\n      dup2\n      mstore\n      0x20\n      add\n      0x00\n      swap1\n    tag_99:\n      dup3\n      dup3\n      lt\n      iszero\n      tag_100\n      jumpi\n      dup4\n      dup3\n      swap1\n      0x00\n      mstore\n      keccak256(0x00, 0x20)\n      swap1\n      0x05\n      mul\n      add\n      mload(0x40)\n      dup1\n      0xa0\n      add\n      0x40\n      mstore\n      swap1\n      dup2\n      0x00\n      dup3\n      add\n      sload\n      dup2\n      mstore\n      0x20\n      add\n      0x01\n      dup3\n      add\n      0x00\n      swap1\n      sload\n      swap1\n      0x0100\n      exp\n      swap1\n      div\n      0xffffffffffffffffffffffffffffffffffffffff\n      and\n      0xffffffffffffffffffffffffffffffffffffffff\n      and\n      0xffffffffffffffffffffffffffffffffffffffff\n      and\n      dup2\n      mstore\n      0x20\n      add\n      0x02\n      dup3\n      add\n      dup1\n      sload\n      tag_102\n      swap1\n      tag_51\n      jump\t// in\n    tag_102:\n      dup1\n      0x1f\n      add\n      0x20\n      dup1\n      swap2\n      div\n      mul\n      0x20\n      add\n      mload(0x40)\n      swap1\n      dup2\n      add\n      0x40\n      mstore\n      dup1\n      swap3\n      swap2\n      swap1\n      dup2\n      dup2\n      mstore\n      0x20\n      add\n      dup3\n      dup1\n      sload\n      tag_103\n      swap1\n      tag_51\n      jump\t// in\n    tag_103:\n      dup1\n      iszero\n      tag_104\n      jumpi\n      dup1\n      0x1f\n      lt\n      tag_105\n      jumpi\n      0x0100\n      dup1\n      dup4\n      sload\n      div\n      mul\n      dup4\n      mstore\n      swap2\n      0x20\n      add\n      swap2\n      jump(tag_104)\n    tag_105:\n      dup3\n      add\n      swap2\n      swap1\n      0x00\n      mstore\n      keccak256(0x00, 0x20)\n      swap1\n    tag_106:\n      dup2\n      sload\n      dup2\n      mstore\n      swap1\n      0x01\n      add\n      swap1\n      0x20\n      add\n      dup1\n      dup4\n      gt\n      tag_106\n      jumpi\n      dup3\n      swap1\n      sub\n      0x1f\n      and\n      dup3\n      add\n      swap2\n    tag_104:\n      pop\n      pop\n      pop\n      pop\n      pop\n      dup2\n      mstore\n      0x20\n      add\n      0x03\n      dup3\n      add\n      sload\n      dup2\n      mstore\n      0x20\n      add\n      0x04\n      dup3\n      add\n      sload\n      dup2\n      mstore\n      pop\n      pop\n      dup2\n      mstore\n      0x20\n      add\n      swap1\n      0x01\n      add\n      swap1\n      jump(tag_99)\n    tag_100:\n      pop\n      pop\n      pop\n      pop\n      swap1\n      pop\n        /* \"Twitter3.sol\":1378:1489  function getAllTweet(address _owner) public view returns(Tweet[] memory) {... */\n      swap2\n      swap1\n      pop\n      jump\t// out\n        /* \"Twitter3.sol\":1262:1368  function getTweet(uint _i) public view returns(Tweet memory){... */\n    tag_45:\n        /* \"Twitter3.sol\":1309:1321  Tweet memory */\n      tag_107\n      tag_108\n      jump\t// in\n    tag_107:\n        /* \"Twitter3.sol\":1339:1345  tweets */\n      0x01\n        /* \"Twitter3.sol\":1339:1357  tweets[msg.sender] */\n      0x00\n        /* \"Twitter3.sol\":1346:1356  msg.sender */\n      caller\n        /* \"Twitter3.sol\":1339:1357  tweets[msg.sender] */\n      0xffffffffffffffffffffffffffffffffffffffff\n      and\n      0xffffffffffffffffffffffffffffffffffffffff\n      and\n      dup2\n      mstore\n      0x20\n      add\n      swap1\n      dup2\n      mstore\n      0x20\n      add\n      0x00\n      keccak256\n        /* \"Twitter3.sol\":1358:1360  _i */\n      dup3\n        /* \"Twitter3.sol\":1339:1361  tweets[msg.sender][_i] */\n      dup2\n      sload\n      dup2\n      lt\n      tag_110\n      jumpi\n      tag_111\n      tag_59\n      jump\t// in\n    tag_111:\n    tag_110:\n      swap1\n      0x00\n      mstore\n      keccak256(0x00, 0x20)\n      swap1\n      0x05\n      mul\n      add\n        /* \"Twitter3.sol\":1332:1361  return tweets[msg.sender][_i] */\n      mload(0x40)\n      dup1\n      0xa0\n      add\n      0x40\n      mstore\n      swap1\n      dup2\n      0x00\n      dup3\n      add\n      sload\n      dup2\n      mstore\n      0x20\n      add\n      0x01\n      dup3\n      add\n      0x00\n      swap1\n      sload\n      swap1\n      0x0100\n      exp\n      swap1\n      div\n      0xffffffffffffffffffffffffffffffffffffffff\n      and\n      0xffffffffffffffffffffffffffffffffffffffff\n      and\n      0xffffffffffffffffffffffffffffffffffffffff\n      and\n      dup2\n      mstore\n      0x20\n      add\n      0x02\n      dup3\n      add\n      dup1\n      sload\n      tag_113\n      swap1\n      tag_51\n      jump\t// in\n    tag_113:\n      dup1\n      0x1f\n      add\n      0x20\n      dup1\n      swap2\n      div\n      mul\n      0x20\n      add\n      mload(0x40)\n      swap1\n      dup2\n      add\n      0x40\n      mstore\n      dup1\n      swap3\n      swap2\n      swap1\n      dup2\n      dup2\n      mstore\n      0x20\n      add\n      dup3\n      dup1\n      sload\n      tag_114\n      swap1\n      tag_51\n      jump\t// in\n    tag_114:\n      dup1\n      iszero\n      tag_115\n      jumpi\n      dup1\n      0x1f\n      lt\n      tag_116\n      jumpi\n      0x0100\n      dup1\n      dup4\n      sload\n      div\n      mul\n      dup4\n      mstore\n      swap2\n      0x20\n      add\n      swap2\n      jump(tag_115)\n    tag_116:\n      dup3\n      add\n      swap2\n      swap1\n      0x00\n      mstore\n      keccak256(0x00, 0x20)\n      swap1\n    tag_117:\n      dup2\n      sload\n      dup2\n      mstore\n      swap1\n      0x01\n      add\n      swap1\n      0x20\n      add\n      dup1\n      dup4\n      gt\n      tag_117\n      jumpi\n      dup3\n      swap1\n      sub\n      0x1f\n      and\n      dup3\n      add\n      swap2\n    tag_115:\n      pop\n      pop\n      pop\n      pop\n      pop\n      dup2\n      mstore\n      0x20\n      add\n      0x03\n      dup3\n      add\n      sload\n      dup2\n      mstore\n      0x20\n      add\n      0x04\n      dup3\n      add\n      sload\n      dup2\n      mstore\n      pop\n      pop\n      swap1\n      pop\n        /* \"Twitter3.sol\":1262:1368  function getTweet(uint _i) public view returns(Tweet memory){... */\n      swap2\n      swap1\n      pop\n      jump\t// out\n    tag_108:\n      mload(0x40)\n      dup1\n      0xa0\n      add\n      0x40\n      mstore\n      dup1\n      0x00\n      dup2\n      mstore\n      0x20\n      add\n      and(0xffffffffffffffffffffffffffffffffffffffff, 0x00)\n      dup2\n      mstore\n      0x20\n      add\n      0x60\n      dup2\n      mstore\n      0x20\n      add\n      0x00\n      dup2\n      mstore\n      0x20\n      add\n      0x00\n      dup2\n      mstore\n      pop\n      swap1\n      jump\t// out\n        /* \"#utility.yul\":7:82   */\n    tag_118:\n        /* \"#utility.yul\":40:46   */\n      0x00\n        /* \"#utility.yul\":73:75   */\n      0x40\n        /* \"#utility.yul\":67:76   */\n      mload\n        /* \"#utility.yul\":57:76   */\n      swap1\n      pop\n        /* \"#utility.yul\":7:82   */\n      swap1\n      jump\t// out\n        /* \"#utility.yul\":88:205   */\n    tag_119:\n        /* \"#utility.yul\":197:198   */\n      0x00\n        /* \"#utility.yul\":194:195   */\n      0x00\n        /* \"#utility.yul\":187:199   */\n      revert\n        /* \"#utility.yul\":211:328   */\n    tag_120:\n        /* \"#utility.yul\":320:321   */\n      0x00\n        /* \"#utility.yul\":317:318   */\n      0x00\n        /* \"#utility.yul\":310:322   */\n      revert\n        /* \"#utility.yul\":334:460   */\n    tag_121:\n        /* \"#utility.yul\":371:378   */\n      0x00\n        /* \"#utility.yul\":411:453   */\n      0xffffffffffffffffffffffffffffffffffffffff\n        /* \"#utility.yul\":404:409   */\n      dup3\n        /* \"#utility.yul\":400:454   */\n      and\n        /* \"#utility.yul\":389:454   */\n      swap1\n      pop\n        /* \"#utility.yul\":334:460   */\n      swap2\n      swap1\n      pop\n      jump\t// out\n        /* \"#utility.yul\":466:562   */\n    tag_122:\n        /* \"#utility.yul\":503:510   */\n      0x00\n        /* \"#utility.yul\":532:556   */\n      tag_191\n        /* \"#utility.yul\":550:555   */\n      dup3\n        /* \"#utility.yul\":532:556   */\n      tag_121\n      jump\t// in\n    tag_191:\n        /* \"#utility.yul\":521:556   */\n      swap1\n      pop\n        /* \"#utility.yul\":466:562   */\n      swap2\n      swap1\n      pop\n      jump\t// out\n        /* \"#utility.yul\":568:690   */\n    tag_123:\n        /* \"#utility.yul\":641:665   */\n      tag_193\n        /* \"#utility.yul\":659:664   */\n      dup2\n        /* \"#utility.yul\":641:665   */\n      tag_122\n      jump\t// in\n    tag_193:\n        /* \"#utility.yul\":634:639   */\n      dup2\n        /* \"#utility.yul\":631:666   */\n      eq\n        /* \"#utility.yul\":621:684   */\n      tag_194\n      jumpi\n        /* \"#utility.yul\":680:681   */\n      0x00\n        /* \"#utility.yul\":677:678   */\n      0x00\n        /* \"#utility.yul\":670:682   */\n      revert\n        /* \"#utility.yul\":621:684   */\n    tag_194:\n        /* \"#utility.yul\":568:690   */\n      pop\n      jump\t// out\n        /* \"#utility.yul\":696:835   */\n    tag_124:\n        /* \"#utility.yul\":742:747   */\n      0x00\n        /* \"#utility.yul\":780:786   */\n      dup2\n        /* \"#utility.yul\":767:787   */\n      calldataload\n        /* \"#utility.yul\":758:787   */\n      swap1\n      pop\n        /* \"#utility.yul\":796:829   */\n      tag_196\n        /* \"#utility.yul\":823:828   */\n      dup2\n        /* \"#utility.yul\":796:829   */\n      tag_123\n      jump\t// in\n    tag_196:\n        /* \"#utility.yul\":696:835   */\n      swap3\n      swap2\n      pop\n      pop\n      jump\t// out\n        /* \"#utility.yul\":841:918   */\n    tag_125:\n        /* \"#utility.yul\":878:885   */\n      0x00\n        /* \"#utility.yul\":907:912   */\n      dup2\n        /* \"#utility.yul\":896:912   */\n      swap1\n      pop\n        /* \"#utility.yul\":841:918   */\n      swap2\n      swap1\n      pop\n      jump\t// out\n        /* \"#utility.yul\":924:1046   */\n    tag_126:\n        /* \"#utility.yul\":997:1021   */\n      tag_199\n        /* \"#utility.yul\":1015:1020   */\n      dup2\n        /* \"#utility.yul\":997:1021   */\n      tag_125\n      jump\t// in\n    tag_199:\n        /* \"#utility.yul\":990:995   */\n      dup2\n        /* \"#utility.yul\":987:1022   */\n      eq\n        /* \"#utility.yul\":977:1040   */\n      tag_200\n      jumpi\n        /* \"#utility.yul\":1036:1037   */\n      0x00\n        /* \"#utility.yul\":1033:1034   */\n      0x00\n        /* \"#utility.yul\":1026:1038   */\n      revert\n        /* \"#utility.yul\":977:1040   */\n    tag_200:\n        /* \"#utility.yul\":924:1046   */\n      pop\n      jump\t// out\n        /* \"#utility.yul\":1052:1191   */\n    tag_127:\n        /* \"#utility.yul\":1098:1103   */\n      0x00\n        /* \"#utility.yul\":1136:1142   */\n      dup2\n        /* \"#utility.yul\":1123:1143   */\n      calldataload\n        /* \"#utility.yul\":1114:1143   */\n      swap1\n      pop\n        /* \"#utility.yul\":1152:1185   */\n      tag_202\n        /* \"#utility.yul\":1179:1184   */\n      dup2\n        /* \"#utility.yul\":1152:1185   */\n      tag_126\n      jump\t// in\n    tag_202:\n        /* \"#utility.yul\":1052:1191   */\n      swap3\n      swap2\n      pop\n      pop\n      jump\t// out\n        /* \"#utility.yul\":1197:1671   */\n    tag_14:\n        /* \"#utility.yul\":1265:1271   */\n      0x00\n        /* \"#utility.yul\":1273:1279   */\n      0x00\n        /* \"#utility.yul\":1322:1324   */\n      0x40\n        /* \"#utility.yul\":1310:1319   */\n      dup4\n        /* \"#utility.yul\":1301:1308   */\n      dup6\n        /* \"#utility.yul\":1297:1320   */\n      sub\n        /* \"#utility.yul\":1293:1325   */\n      slt\n        /* \"#utility.yul\":1290:1409   */\n      iszero\n      tag_204\n      jumpi\n        /* \"#utility.yul\":1328:1407   */\n      tag_205\n      tag_119\n      jump\t// in\n    tag_205:\n        /* \"#utility.yul\":1290:1409   */\n    tag_204:\n        /* \"#utility.yul\":1448:1449   */\n      0x00\n        /* \"#utility.yul\":1473:1526   */\n      tag_206\n        /* \"#utility.yul\":1518:1525   */\n      dup6\n        /* \"#utility.yul\":1509:1515   */\n      dup3\n        /* \"#utility.yul\":1498:1507   */\n      dup7\n        /* \"#utility.yul\":1494:1516   */\n      add\n        /* \"#utility.yul\":1473:1526   */\n      tag_124\n      jump\t// in\n    tag_206:\n        /* \"#utility.yul\":1463:1526   */\n      swap3\n      pop\n        /* \"#utility.yul\":1419:1536   */\n      pop\n        /* \"#utility.yul\":1575:1577   */\n      0x20\n        /* \"#utility.yul\":1601:1654   */\n      tag_207\n        /* \"#utility.yul\":1646:1653   */\n      dup6\n        /* \"#utility.yul\":1637:1643   */\n      dup3\n        /* \"#utility.yul\":1626:1635   */\n      dup7\n        /* \"#utility.yul\":1622:1644   */\n      add\n        /* \"#utility.yul\":1601:1654   */\n      tag_127\n      jump\t// in\n    tag_207:\n        /* \"#utility.yul\":1591:1654   */\n      swap2\n      pop\n        /* \"#utility.yul\":1546:1664   */\n      pop\n        /* \"#utility.yul\":1197:1671   */\n      swap3\n      pop\n      swap3\n      swap1\n      pop\n      jump\t// out\n        /* \"#utility.yul\":1677:1795   */\n    tag_128:\n        /* \"#utility.yul\":1764:1788   */\n      tag_209\n        /* \"#utility.yul\":1782:1787   */\n      dup2\n        /* \"#utility.yul\":1764:1788   */\n      tag_125\n      jump\t// in\n    tag_209:\n        /* \"#utility.yul\":1759:1762   */\n      dup3\n        /* \"#utility.yul\":1752:1789   */\n      mstore\n        /* \"#utility.yul\":1677:1795   */\n      pop\n      pop\n      jump\t// out\n        /* \"#utility.yul\":1801:1919   */\n    tag_129:\n        /* \"#utility.yul\":1888:1912   */\n      tag_211\n        /* \"#utility.yul\":1906:1911   */\n      dup2\n        /* \"#utility.yul\":1888:1912   */\n      tag_122\n      jump\t// in\n    tag_211:\n        /* \"#utility.yul\":1883:1886   */\n      dup3\n        /* \"#utility.yul\":1876:1913   */\n      mstore\n        /* \"#utility.yul\":1801:1919   */\n      pop\n      pop\n      jump\t// out\n        /* \"#utility.yul\":1925:2024   */\n    tag_130:\n        /* \"#utility.yul\":1977:1983   */\n      0x00\n        /* \"#utility.yul\":2011:2016   */\n      dup2\n        /* \"#utility.yul\":2005:2017   */\n      mload\n        /* \"#utility.yul\":1995:2017   */\n      swap1\n      pop\n        /* \"#utility.yul\":1925:2024   */\n      swap2\n      swap1\n      pop\n      jump\t// out\n        /* \"#utility.yul\":2030:2199   */\n    tag_131:\n        /* \"#utility.yul\":2114:2125   */\n      0x00\n        /* \"#utility.yul\":2148:2154   */\n      dup3\n        /* \"#utility.yul\":2143:2146   */\n      dup3\n        /* \"#utility.yul\":2136:2155   */\n      mstore\n        /* \"#utility.yul\":2188:2192   */\n      0x20\n        /* \"#utility.yul\":2183:2186   */\n      dup3\n        /* \"#utility.yul\":2179:2193   */\n      add\n        /* \"#utility.yul\":2164:2193   */\n      swap1\n      pop\n        /* \"#utility.yul\":2030:2199   */\n      swap3\n      swap2\n      pop\n      pop\n      jump\t// out\n        /* \"#utility.yul\":2205:2344   */\n    tag_132:\n        /* \"#utility.yul\":2294:2300   */\n      dup3\n        /* \"#utility.yul\":2289:2292   */\n      dup2\n        /* \"#utility.yul\":2284:2287   */\n      dup4\n        /* \"#utility.yul\":2278:2301   */\n      mcopy\n        /* \"#utility.yul\":2335:2336   */\n      0x00\n        /* \"#utility.yul\":2326:2332   */\n      dup4\n        /* \"#utility.yul\":2321:2324   */\n      dup4\n        /* \"#utility.yul\":2317:2333   */\n      add\n        /* \"#utility.yul\":2310:2337   */\n      mstore\n        /* \"#utility.yul\":2205:2344   */\n      pop\n      pop\n      pop\n      jump\t// out\n        /* \"#utility.yul\":2350:2452   */\n    tag_133:\n        /* \"#utility.yul\":2391:2397   */\n      0x00\n        /* \"#utility.yul\":2442:2444   */\n      0x1f\n        /* \"#utility.yul\":2438:2445   */\n      not\n        /* \"#utility.yul\":2433:2435   */\n      0x1f\n        /* \"#utility.yul\":2426:2431   */\n      dup4\n        /* \"#utility.yul\":2422:2436   */\n      add\n        /* \"#utility.yul\":2418:2446   */\n      and\n        /* \"#utility.yul\":2408:2446   */\n      swap1\n      pop\n        /* \"#utility.yul\":2350:2452   */\n      swap2\n      swap1\n      pop\n      jump\t// out\n        /* \"#utility.yul\":2458:2835   */\n    tag_134:\n        /* \"#utility.yul\":2546:2549   */\n      0x00\n        /* \"#utility.yul\":2574:2613   */\n      tag_217\n        /* \"#utility.yul\":2607:2612   */\n      dup3\n        /* \"#utility.yul\":2574:2613   */\n      tag_130\n      jump\t// in\n    tag_217:\n        /* \"#utility.yul\":2629:2700   */\n      tag_218\n        /* \"#utility.yul\":2693:2699   */\n      dup2\n        /* \"#utility.yul\":2688:2691   */\n      dup6\n        /* \"#utility.yul\":2629:2700   */\n      tag_131\n      jump\t// in\n    tag_218:\n        /* \"#utility.yul\":2622:2700   */\n      swap4\n      pop\n        /* \"#utility.yul\":2709:2774   */\n      tag_219\n        /* \"#utility.yul\":2767:2773   */\n      dup2\n        /* \"#utility.yul\":2762:2765   */\n      dup6\n        /* \"#utility.yul\":2755:2759   */\n      0x20\n        /* \"#utility.yul\":2748:2753   */\n      dup7\n        /* \"#utility.yul\":2744:2760   */\n      add\n        /* \"#utility.yul\":2709:2774   */\n      tag_132\n      jump\t// in\n    tag_219:\n        /* \"#utility.yul\":2799:2828   */\n      tag_220\n        /* \"#utility.yul\":2821:2827   */\n      dup2\n        /* \"#utility.yul\":2799:2828   */\n      tag_133\n      jump\t// in\n    tag_220:\n        /* \"#utility.yul\":2794:2797   */\n      dup5\n        /* \"#utility.yul\":2790:2829   */\n      add\n        /* \"#utility.yul\":2783:2829   */\n      swap2\n      pop\n        /* \"#utility.yul\":2550:2835   */\n      pop\n        /* \"#utility.yul\":2458:2835   */\n      swap3\n      swap2\n      pop\n      pop\n      jump\t// out\n        /* \"#utility.yul\":2841:3596   */\n    tag_17:\n        /* \"#utility.yul\":3066:3070   */\n      0x00\n        /* \"#utility.yul\":3104:3107   */\n      0xa0\n        /* \"#utility.yul\":3093:3102   */\n      dup3\n        /* \"#utility.yul\":3089:3108   */\n      add\n        /* \"#utility.yul\":3081:3108   */\n      swap1\n      pop\n        /* \"#utility.yul\":3118:3189   */\n      tag_222\n        /* \"#utility.yul\":3186:3187   */\n      0x00\n        /* \"#utility.yul\":3175:3184   */\n      dup4\n        /* \"#utility.yul\":3171:3188   */\n      add\n        /* \"#utility.yul\":3162:3168   */\n      dup9\n        /* \"#utility.yul\":3118:3189   */\n      tag_128\n      jump\t// in\n    tag_222:\n        /* \"#utility.yul\":3199:3271   */\n      tag_223\n        /* \"#utility.yul\":3267:3269   */\n      0x20\n        /* \"#utility.yul\":3256:3265   */\n      dup4\n        /* \"#utility.yul\":3252:3270   */\n      add\n        /* \"#utility.yul\":3243:3249   */\n      dup8\n        /* \"#utility.yul\":3199:3271   */\n      tag_129\n      jump\t// in\n    tag_223:\n        /* \"#utility.yul\":3318:3327   */\n      dup2\n        /* \"#utility.yul\":3312:3316   */\n      dup2\n        /* \"#utility.yul\":3308:3328   */\n      sub\n        /* \"#utility.yul\":3303:3305   */\n      0x40\n        /* \"#utility.yul\":3292:3301   */\n      dup4\n        /* \"#utility.yul\":3288:3306   */\n      add\n        /* \"#utility.yul\":3281:3329   */\n      mstore\n        /* \"#utility.yul\":3346:3424   */\n      tag_224\n        /* \"#utility.yul\":3419:3423   */\n      dup2\n        /* \"#utility.yul\":3410:3416   */\n      dup7\n        /* \"#utility.yul\":3346:3424   */\n      tag_134\n      jump\t// in\n    tag_224:\n        /* \"#utility.yul\":3338:3424   */\n      swap1\n      pop\n        /* \"#utility.yul\":3434:3506   */\n      tag_225\n        /* \"#utility.yul\":3502:3504   */\n      0x60\n        /* \"#utility.yul\":3491:3500   */\n      dup4\n        /* \"#utility.yul\":3487:3505   */\n      add\n        /* \"#utility.yul\":3478:3484   */\n      dup6\n        /* \"#utility.yul\":3434:3506   */\n      tag_128\n      jump\t// in\n    tag_225:\n        /* \"#utility.yul\":3516:3589   */\n      tag_226\n        /* \"#utility.yul\":3584:3587   */\n      0x80\n        /* \"#utility.yul\":3573:3582   */\n      dup4\n        /* \"#utility.yul\":3569:3588   */\n      add\n        /* \"#utility.yul\":3560:3566   */\n      dup5\n        /* \"#utility.yul\":3516:3589   */\n      tag_128\n      jump\t// in\n    tag_226:\n        /* \"#utility.yul\":2841:3596   */\n      swap7\n      swap6\n      pop\n      pop\n      pop\n      pop\n      pop\n      pop\n      jump\t// out\n        /* \"#utility.yul\":3602:3691   */\n    tag_135:\n        /* \"#utility.yul\":3638:3645   */\n      0x00\n        /* \"#utility.yul\":3678:3684   */\n      0xffff\n        /* \"#utility.yul\":3671:3676   */\n      dup3\n        /* \"#utility.yul\":3667:3685   */\n      and\n        /* \"#utility.yul\":3656:3685   */\n      swap1\n      pop\n        /* \"#utility.yul\":3602:3691   */\n      swap2\n      swap1\n      pop\n      jump\t// out\n        /* \"#utility.yul\":3697:3817   */\n    tag_136:\n        /* \"#utility.yul\":3769:3792   */\n      tag_229\n        /* \"#utility.yul\":3786:3791   */\n      dup2\n        /* \"#utility.yul\":3769:3792   */\n      tag_135\n      jump\t// in\n    tag_229:\n        /* \"#utility.yul\":3762:3767   */\n      dup2\n        /* \"#utility.yul\":3759:3793   */\n      eq\n        /* \"#utility.yul\":3749:3811   */\n      tag_230\n      jumpi\n        /* \"#utility.yul\":3807:3808   */\n      0x00\n        /* \"#utility.yul\":3804:3805   */\n      0x00\n        /* \"#utility.yul\":3797:3809   */\n      revert\n        /* \"#utility.yul\":3749:3811   */\n    tag_230:\n        /* \"#utility.yul\":3697:3817   */\n      pop\n      jump\t// out\n        /* \"#utility.yul\":3823:3960   */\n    tag_137:\n        /* \"#utility.yul\":3868:3873   */\n      0x00\n        /* \"#utility.yul\":3906:3912   */\n      dup2\n        /* \"#utility.yul\":3893:3913   */\n      calldataload\n        /* \"#utility.yul\":3884:3913   */\n      swap1\n      pop\n        /* \"#utility.yul\":3922:3954   */\n      tag_232\n        /* \"#utility.yul\":3948:3953   */\n      dup2\n        /* \"#utility.yul\":3922:3954   */\n      tag_136\n      jump\t// in\n    tag_232:\n        /* \"#utility.yul\":3823:3960   */\n      swap3\n      swap2\n      pop\n      pop\n      jump\t// out\n        /* \"#utility.yul\":3966:4293   */\n    tag_23:\n        /* \"#utility.yul\":4024:4030   */\n      0x00\n        /* \"#utility.yul\":4073:4075   */\n      0x20\n        /* \"#utility.yul\":4061:4070   */\n      dup3\n        /* \"#utility.yul\":4052:4059   */\n      dup5\n        /* \"#utility.yul\":4048:4071   */\n      sub\n        /* \"#utility.yul\":4044:4076   */\n      slt\n        /* \"#utility.yul\":4041:4160   */\n      iszero\n      tag_234\n      jumpi\n        /* \"#utility.yul\":4079:4158   */\n      tag_235\n      tag_119\n      jump\t// in\n    tag_235:\n        /* \"#utility.yul\":4041:4160   */\n    tag_234:\n        /* \"#utility.yul\":4199:4200   */\n      0x00\n        /* \"#utility.yul\":4224:4276   */\n      tag_236\n        /* \"#utility.yul\":4268:4275   */\n      dup5\n        /* \"#utility.yul\":4259:4265   */\n      dup3\n        /* \"#utility.yul\":4248:4257   */\n      dup6\n        /* \"#utility.yul\":4244:4266   */\n      add\n        /* \"#utility.yul\":4224:4276   */\n      tag_137\n      jump\t// in\n    tag_236:\n        /* \"#utility.yul\":4214:4276   */\n      swap2\n      pop\n        /* \"#utility.yul\":4170:4286   */\n      pop\n        /* \"#utility.yul\":3966:4293   */\n      swap3\n      swap2\n      pop\n      pop\n      jump\t// out\n        /* \"#utility.yul\":4299:4414   */\n    tag_138:\n        /* \"#utility.yul\":4384:4407   */\n      tag_238\n        /* \"#utility.yul\":4401:4406   */\n      dup2\n        /* \"#utility.yul\":4384:4407   */\n      tag_135\n      jump\t// in\n    tag_238:\n        /* \"#utility.yul\":4379:4382   */\n      dup3\n        /* \"#utility.yul\":4372:4408   */\n      mstore\n        /* \"#utility.yul\":4299:4414   */\n      pop\n      pop\n      jump\t// out\n        /* \"#utility.yul\":4420:4638   */\n    tag_31:\n        /* \"#utility.yul\":4511:4515   */\n      0x00\n        /* \"#utility.yul\":4549:4551   */\n      0x20\n        /* \"#utility.yul\":4538:4547   */\n      dup3\n        /* \"#utility.yul\":4534:4552   */\n      add\n        /* \"#utility.yul\":4526:4552   */\n      swap1\n      pop\n        /* \"#utility.yul\":4562:4631   */\n      tag_240\n        /* \"#utility.yul\":4628:4629   */\n      0x00\n        /* \"#utility.yul\":4617:4626   */\n      dup4\n        /* \"#utility.yul\":4613:4630   */\n      add\n        /* \"#utility.yul\":4604:4610   */\n      dup5\n        /* \"#utility.yul\":4562:4631   */\n      tag_138\n      jump\t// in\n    tag_240:\n        /* \"#utility.yul\":4420:4638   */\n      swap3\n      swap2\n      pop\n      pop\n      jump\t// out\n        /* \"#utility.yul\":4644:4761   */\n    tag_139:\n        /* \"#utility.yul\":4753:4754   */\n      0x00\n        /* \"#utility.yul\":4750:4751   */\n      0x00\n        /* \"#utility.yul\":4743:4755   */\n      revert\n        /* \"#utility.yul\":4767:4884   */\n    tag_140:\n        /* \"#utility.yul\":4876:4877   */\n      0x00\n        /* \"#utility.yul\":4873:4874   */\n      0x00\n        /* \"#utility.yul\":4866:4878   */\n      revert\n        /* \"#utility.yul\":4890:5070   */\n    tag_141:\n        /* \"#utility.yul\":4938:5015   */\n      0x4e487b7100000000000000000000000000000000000000000000000000000000\n        /* \"#utility.yul\":4935:4936   */\n      0x00\n        /* \"#utility.yul\":4928:5016   */\n      mstore\n        /* \"#utility.yul\":5035:5039   */\n      0x41\n        /* \"#utility.yul\":5032:5033   */\n      0x04\n        /* \"#utility.yul\":5025:5040   */\n      mstore\n        /* \"#utility.yul\":5059:5063   */\n      0x24\n        /* \"#utility.yul\":5056:5057   */\n      0x00\n        /* \"#utility.yul\":5049:5064   */\n      revert\n        /* \"#utility.yul\":5076:5357   */\n    tag_142:\n        /* \"#utility.yul\":5159:5186   */\n      tag_245\n        /* \"#utility.yul\":5181:5185   */\n      dup3\n        /* \"#utility.yul\":5159:5186   */\n      tag_133\n      jump\t// in\n    tag_245:\n        /* \"#utility.yul\":5151:5157   */\n      dup2\n        /* \"#utility.yul\":5147:5187   */\n      add\n        /* \"#utility.yul\":5289:5295   */\n      dup2\n        /* \"#utility.yul\":5277:5287   */\n      dup2\n        /* \"#utility.yul\":5274:5296   */\n      lt\n        /* \"#utility.yul\":5253:5271   */\n      0xffffffffffffffff\n        /* \"#utility.yul\":5241:5251   */\n      dup3\n        /* \"#utility.yul\":5238:5272   */\n      gt\n        /* \"#utility.yul\":5235:5297   */\n      or\n        /* \"#utility.yul\":5232:5320   */\n      iszero\n      tag_246\n      jumpi\n        /* \"#utility.yul\":5300:5318   */\n      tag_247\n      tag_141\n      jump\t// in\n    tag_247:\n        /* \"#utility.yul\":5232:5320   */\n    tag_246:\n        /* \"#utility.yul\":5340:5350   */\n      dup1\n        /* \"#utility.yul\":5336:5338   */\n      0x40\n        /* \"#utility.yul\":5329:5351   */\n      mstore\n        /* \"#utility.yul\":5119:5357   */\n      pop\n        /* \"#utility.yul\":5076:5357   */\n      pop\n      pop\n      jump\t// out\n        /* \"#utility.yul\":5363:5492   */\n    tag_143:\n        /* \"#utility.yul\":5397:5403   */\n      0x00\n        /* \"#utility.yul\":5424:5444   */\n      tag_249\n      tag_118\n      jump\t// in\n    tag_249:\n        /* \"#utility.yul\":5414:5444   */\n      swap1\n      pop\n        /* \"#utility.yul\":5453:5486   */\n      tag_250\n        /* \"#utility.yul\":5481:5485   */\n      dup3\n        /* \"#utility.yul\":5473:5479   */\n      dup3\n        /* \"#utility.yul\":5453:5486   */\n      tag_142\n      jump\t// in\n    tag_250:\n        /* \"#utility.yul\":5363:5492   */\n      swap2\n      swap1\n      pop\n      jump\t// out\n        /* \"#utility.yul\":5498:5806   */\n    tag_144:\n        /* \"#utility.yul\":5560:5564   */\n      0x00\n        /* \"#utility.yul\":5650:5668   */\n      0xffffffffffffffff\n        /* \"#utility.yul\":5642:5648   */\n      dup3\n        /* \"#utility.yul\":5639:5669   */\n      gt\n        /* \"#utility.yul\":5636:5692   */\n      iszero\n      tag_252\n      jumpi\n        /* \"#utility.yul\":5672:5690   */\n      tag_253\n      tag_141\n      jump\t// in\n    tag_253:\n        /* \"#utility.yul\":5636:5692   */\n    tag_252:\n        /* \"#utility.yul\":5710:5739   */\n      tag_254\n        /* \"#utility.yul\":5732:5738   */\n      dup3\n        /* \"#utility.yul\":5710:5739   */\n      tag_133\n      jump\t// in\n    tag_254:\n        /* \"#utility.yul\":5702:5739   */\n      swap1\n      pop\n        /* \"#utility.yul\":5794:5798   */\n      0x20\n        /* \"#utility.yul\":5788:5792   */\n      dup2\n        /* \"#utility.yul\":5784:5799   */\n      add\n        /* \"#utility.yul\":5776:5799   */\n      swap1\n      pop\n        /* \"#utility.yul\":5498:5806   */\n      swap2\n      swap1\n      pop\n      jump\t// out\n        /* \"#utility.yul\":5812:5960   */\n    tag_145:\n        /* \"#utility.yul\":5910:5916   */\n      dup3\n        /* \"#utility.yul\":5905:5908   */\n      dup2\n        /* \"#utility.yul\":5900:5903   */\n      dup4\n        /* \"#utility.yul\":5887:5917   */\n      calldatacopy\n        /* \"#utility.yul\":5951:5952   */\n      0x00\n        /* \"#utility.yul\":5942:5948   */\n      dup4\n        /* \"#utility.yul\":5937:5940   */\n      dup4\n        /* \"#utility.yul\":5933:5949   */\n      add\n        /* \"#utility.yul\":5926:5953   */\n      mstore\n        /* \"#utility.yul\":5812:5960   */\n      pop\n      pop\n      pop\n      jump\t// out\n        /* \"#utility.yul\":5966:6391   */\n    tag_146:\n        /* \"#utility.yul\":6044:6049   */\n      0x00\n        /* \"#utility.yul\":6069:6135   */\n      tag_257\n        /* \"#utility.yul\":6085:6134   */\n      tag_258\n        /* \"#utility.yul\":6127:6133   */\n      dup5\n        /* \"#utility.yul\":6085:6134   */\n      tag_144\n      jump\t// in\n    tag_258:\n        /* \"#utility.yul\":6069:6135   */\n      tag_143\n      jump\t// in\n    tag_257:\n        /* \"#utility.yul\":6060:6135   */\n      swap1\n      pop\n        /* \"#utility.yul\":6158:6164   */\n      dup3\n        /* \"#utility.yul\":6151:6156   */\n      dup2\n        /* \"#utility.yul\":6144:6165   */\n      mstore\n        /* \"#utility.yul\":6196:6200   */\n      0x20\n        /* \"#utility.yul\":6189:6194   */\n      dup2\n        /* \"#utility.yul\":6185:6201   */\n      add\n        /* \"#utility.yul\":6234:6237   */\n      dup5\n        /* \"#utility.yul\":6225:6231   */\n      dup5\n        /* \"#utility.yul\":6220:6223   */\n      dup5\n        /* \"#utility.yul\":6216:6232   */\n      add\n        /* \"#utility.yul\":6213:6238   */\n      gt\n        /* \"#utility.yul\":6210:6322   */\n      iszero\n      tag_259\n      jumpi\n        /* \"#utility.yul\":6241:6320   */\n      tag_260\n      tag_140\n      jump\t// in\n    tag_260:\n        /* \"#utility.yul\":6210:6322   */\n    tag_259:\n        /* \"#utility.yul\":6331:6385   */\n      tag_261\n        /* \"#utility.yul\":6378:6384   */\n      dup5\n        /* \"#utility.yul\":6373:6376   */\n      dup3\n        /* \"#utility.yul\":6368:6371   */\n      dup6\n        /* \"#utility.yul\":6331:6385   */\n      tag_145\n      jump\t// in\n    tag_261:\n        /* \"#utility.yul\":6050:6391   */\n      pop\n        /* \"#utility.yul\":5966:6391   */\n      swap4\n      swap3\n      pop\n      pop\n      pop\n      jump\t// out\n        /* \"#utility.yul\":6411:6751   */\n    tag_147:\n        /* \"#utility.yul\":6467:6472   */\n      0x00\n        /* \"#utility.yul\":6516:6519   */\n      dup3\n        /* \"#utility.yul\":6509:6513   */\n      0x1f\n        /* \"#utility.yul\":6501:6507   */\n      dup4\n        /* \"#utility.yul\":6497:6514   */\n      add\n        /* \"#utility.yul\":6493:6520   */\n      slt\n        /* \"#utility.yul\":6483:6605   */\n      tag_263\n      jumpi\n        /* \"#utility.yul\":6524:6603   */\n      tag_264\n      tag_139\n      jump\t// in\n    tag_264:\n        /* \"#utility.yul\":6483:6605   */\n    tag_263:\n        /* \"#utility.yul\":6641:6647   */\n      dup2\n        /* \"#utility.yul\":6628:6648   */\n      calldataload\n        /* \"#utility.yul\":6666:6745   */\n      tag_265\n        /* \"#utility.yul\":6741:6744   */\n      dup5\n        /* \"#utility.yul\":6733:6739   */\n      dup3\n        /* \"#utility.yul\":6726:6730   */\n      0x20\n        /* \"#utility.yul\":6718:6724   */\n      dup7\n        /* \"#utility.yul\":6714:6731   */\n      add\n        /* \"#utility.yul\":6666:6745   */\n      tag_146\n      jump\t// in\n    tag_265:\n        /* \"#utility.yul\":6657:6745   */\n      swap2\n      pop\n        /* \"#utility.yul\":6473:6751   */\n      pop\n        /* \"#utility.yul\":6411:6751   */\n      swap3\n      swap2\n      pop\n      pop\n      jump\t// out\n        /* \"#utility.yul\":6757:7266   */\n    tag_34:\n        /* \"#utility.yul\":6826:6832   */\n      0x00\n        /* \"#utility.yul\":6875:6877   */\n      0x20\n        /* \"#utility.yul\":6863:6872   */\n      dup3\n        /* \"#utility.yul\":6854:6861   */\n      dup5\n        /* \"#utility.yul\":6850:6873   */\n      sub\n        /* \"#utility.yul\":6846:6878   */\n      slt\n        /* \"#utility.yul\":6843:6962   */\n      iszero\n      tag_267\n      jumpi\n        /* \"#utility.yul\":6881:6960   */\n      tag_268\n      tag_119\n      jump\t// in\n    tag_268:\n        /* \"#utility.yul\":6843:6962   */\n    tag_267:\n        /* \"#utility.yul\":7029:7030   */\n      0x00\n        /* \"#utility.yul\":7018:7027   */\n      dup3\n        /* \"#utility.yul\":7014:7031   */\n      add\n        /* \"#utility.yul\":7001:7032   */\n      calldataload\n        /* \"#utility.yul\":7059:7077   */\n      0xffffffffffffffff\n        /* \"#utility.yul\":7051:7057   */\n      dup2\n        /* \"#utility.yul\":7048:7078   */\n      gt\n        /* \"#utility.yul\":7045:7162   */\n      iszero\n      tag_269\n      jumpi\n        /* \"#utility.yul\":7081:7160   */\n      tag_270\n      tag_120\n      jump\t// in\n    tag_270:\n        /* \"#utility.yul\":7045:7162   */\n    tag_269:\n        /* \"#utility.yul\":7186:7249   */\n      tag_271\n        /* \"#utility.yul\":7241:7248   */\n      dup5\n        /* \"#utility.yul\":7232:7238   */\n      dup3\n        /* \"#utility.yul\":7221:7230   */\n      dup6\n        /* \"#utility.yul\":7217:7239   */\n      add\n        /* \"#utility.yul\":7186:7249   */\n      tag_147\n      jump\t// in\n    tag_271:\n        /* \"#utility.yul\":7176:7249   */\n      swap2\n      pop\n        /* \"#utility.yul\":6972:7259   */\n      pop\n        /* \"#utility.yul\":6757:7266   */\n      swap3\n      swap2\n      pop\n      pop\n      jump\t// out\n        /* \"#utility.yul\":7272:7601   */\n    tag_38:\n        /* \"#utility.yul\":7331:7337   */\n      0x00\n        /* \"#utility.yul\":7380:7382   */\n      0x20\n        /* \"#utility.yul\":7368:7377   */\n      dup3\n        /* \"#utility.yul\":7359:7366   */\n      dup5\n        /* \"#utility.yul\":7355:7378   */\n      sub\n        /* \"#utility.yul\":7351:7383   */\n      slt\n        /* \"#utility.yul\":7348:7467   */\n      iszero\n      tag_273\n      jumpi\n        /* \"#utility.yul\":7386:7465   */\n      tag_274\n      tag_119\n      jump\t// in\n    tag_274:\n        /* \"#utility.yul\":7348:7467   */\n    tag_273:\n        /* \"#utility.yul\":7506:7507   */\n      0x00\n        /* \"#utility.yul\":7531:7584   */\n      tag_275\n        /* \"#utility.yul\":7576:7583   */\n      dup5\n        /* \"#utility.yul\":7567:7573   */\n      dup3\n        /* \"#utility.yul\":7556:7565   */\n      dup6\n        /* \"#utility.yul\":7552:7574   */\n      add\n        /* \"#utility.yul\":7531:7584   */\n      tag_124\n      jump\t// in\n    tag_275:\n        /* \"#utility.yul\":7521:7584   */\n      swap2\n      pop\n        /* \"#utility.yul\":7477:7594   */\n      pop\n        /* \"#utility.yul\":7272:7601   */\n      swap3\n      swap2\n      pop\n      pop\n      jump\t// out\n        /* \"#utility.yul\":7607:7742   */\n    tag_148:\n        /* \"#utility.yul\":7695:7701   */\n      0x00\n        /* \"#utility.yul\":7729:7734   */\n      dup2\n        /* \"#utility.yul\":7723:7735   */\n      mload\n        /* \"#utility.yul\":7713:7735   */\n      swap1\n      pop\n        /* \"#utility.yul\":7607:7742   */\n      swap2\n      swap1\n      pop\n      jump\t// out\n        /* \"#utility.yul\":7748:7953   */\n    tag_149:\n        /* \"#utility.yul\":7868:7879   */\n      0x00\n        /* \"#utility.yul\":7902:7908   */\n      dup3\n        /* \"#utility.yul\":7897:7900   */\n      dup3\n        /* \"#utility.yul\":7890:7909   */\n      mstore\n        /* \"#utility.yul\":7942:7946   */\n      0x20\n        /* \"#utility.yul\":7937:7940   */\n      dup3\n        /* \"#utility.yul\":7933:7947   */\n      add\n        /* \"#utility.yul\":7918:7947   */\n      swap1\n      pop\n        /* \"#utility.yul\":7748:7953   */\n      swap3\n      swap2\n      pop\n      pop\n      jump\t// out\n        /* \"#utility.yul\":7959:8112   */\n    tag_150:\n        /* \"#utility.yul\":8047:8051   */\n      0x00\n        /* \"#utility.yul\":8070:8073   */\n      dup2\n        /* \"#utility.yul\":8062:8073   */\n      swap1\n      pop\n        /* \"#utility.yul\":8100:8104   */\n      0x20\n        /* \"#utility.yul\":8095:8098   */\n      dup3\n        /* \"#utility.yul\":8091:8105   */\n      add\n        /* \"#utility.yul\":8083:8105   */\n      swap1\n      pop\n        /* \"#utility.yul\":7959:8112   */\n      swap2\n      swap1\n      pop\n      jump\t// out\n        /* \"#utility.yul\":8118:8226   */\n    tag_151:\n        /* \"#utility.yul\":8195:8219   */\n      tag_280\n        /* \"#utility.yul\":8213:8218   */\n      dup2\n        /* \"#utility.yul\":8195:8219   */\n      tag_125\n      jump\t// in\n    tag_280:\n        /* \"#utility.yul\":8190:8193   */\n      dup3\n        /* \"#utility.yul\":8183:8220   */\n      mstore\n        /* \"#utility.yul\":8118:8226   */\n      pop\n      pop\n      jump\t// out\n        /* \"#utility.yul\":8232:8340   */\n    tag_152:\n        /* \"#utility.yul\":8309:8333   */\n      tag_282\n        /* \"#utility.yul\":8327:8332   */\n      dup2\n        /* \"#utility.yul\":8309:8333   */\n      tag_122\n      jump\t// in\n    tag_282:\n        /* \"#utility.yul\":8304:8307   */\n      dup3\n        /* \"#utility.yul\":8297:8334   */\n      mstore\n        /* \"#utility.yul\":8232:8340   */\n      pop\n      pop\n      jump\t// out\n        /* \"#utility.yul\":8346:8505   */\n    tag_153:\n        /* \"#utility.yul\":8420:8431   */\n      0x00\n        /* \"#utility.yul\":8454:8460   */\n      dup3\n        /* \"#utility.yul\":8449:8452   */\n      dup3\n        /* \"#utility.yul\":8442:8461   */\n      mstore\n        /* \"#utility.yul\":8494:8498   */\n      0x20\n        /* \"#utility.yul\":8489:8492   */\n      dup3\n        /* \"#utility.yul\":8485:8499   */\n      add\n        /* \"#utility.yul\":8470:8499   */\n      swap1\n      pop\n        /* \"#utility.yul\":8346:8505   */\n      swap3\n      swap2\n      pop\n      pop\n      jump\t// out\n        /* \"#utility.yul\":8511:8868   */\n    tag_154:\n        /* \"#utility.yul\":8589:8592   */\n      0x00\n        /* \"#utility.yul\":8617:8656   */\n      tag_285\n        /* \"#utility.yul\":8650:8655   */\n      dup3\n        /* \"#utility.yul\":8617:8656   */\n      tag_130\n      jump\t// in\n    tag_285:\n        /* \"#utility.yul\":8672:8733   */\n      tag_286\n        /* \"#utility.yul\":8726:8732   */\n      dup2\n        /* \"#utility.yul\":8721:8724   */\n      dup6\n        /* \"#utility.yul\":8672:8733   */\n      tag_153\n      jump\t// in\n    tag_286:\n        /* \"#utility.yul\":8665:8733   */\n      swap4\n      pop\n        /* \"#utility.yul\":8742:8807   */\n      tag_287\n        /* \"#utility.yul\":8800:8806   */\n      dup2\n        /* \"#utility.yul\":8795:8798   */\n      dup6\n        /* \"#utility.yul\":8788:8792   */\n      0x20\n        /* \"#utility.yul\":8781:8786   */\n      dup7\n        /* \"#utility.yul\":8777:8793   */\n      add\n        /* \"#utility.yul\":8742:8807   */\n      tag_132\n      jump\t// in\n    tag_287:\n        /* \"#utility.yul\":8832:8861   */\n      tag_288\n        /* \"#utility.yul\":8854:8860   */\n      dup2\n        /* \"#utility.yul\":8832:8861   */\n      tag_133\n      jump\t// in\n    tag_288:\n        /* \"#utility.yul\":8827:8830   */\n      dup5\n        /* \"#utility.yul\":8823:8862   */\n      add\n        /* \"#utility.yul\":8816:8862   */\n      swap2\n      pop\n        /* \"#utility.yul\":8593:8868   */\n      pop\n        /* \"#utility.yul\":8511:8868   */\n      swap3\n      swap2\n      pop\n      pop\n      jump\t// out\n        /* \"#utility.yul\":8926:10045   */\n    tag_155:\n        /* \"#utility.yul\":9027:9030   */\n      0x00\n        /* \"#utility.yul\":9063:9067   */\n      0xa0\n        /* \"#utility.yul\":9058:9061   */\n      dup4\n        /* \"#utility.yul\":9054:9068   */\n      add\n        /* \"#utility.yul\":9148:9152   */\n      0x00\n        /* \"#utility.yul\":9141:9146   */\n      dup4\n        /* \"#utility.yul\":9137:9153   */\n      add\n        /* \"#utility.yul\":9131:9154   */\n      mload\n        /* \"#utility.yul\":9167:9230   */\n      tag_290\n        /* \"#utility.yul\":9224:9228   */\n      0x00\n        /* \"#utility.yul\":9219:9222   */\n      dup7\n        /* \"#utility.yul\":9215:9229   */\n      add\n        /* \"#utility.yul\":9201:9213   */\n      dup3\n        /* \"#utility.yul\":9167:9230   */\n      tag_151\n      jump\t// in\n    tag_290:\n        /* \"#utility.yul\":9078:9240   */\n      pop\n        /* \"#utility.yul\":9324:9328   */\n      0x20\n        /* \"#utility.yul\":9317:9322   */\n      dup4\n        /* \"#utility.yul\":9313:9329   */\n      add\n        /* \"#utility.yul\":9307:9330   */\n      mload\n        /* \"#utility.yul\":9343:9406   */\n      tag_291\n        /* \"#utility.yul\":9400:9404   */\n      0x20\n        /* \"#utility.yul\":9395:9398   */\n      dup7\n        /* \"#utility.yul\":9391:9405   */\n      add\n        /* \"#utility.yul\":9377:9389   */\n      dup3\n        /* \"#utility.yul\":9343:9406   */\n      tag_152\n      jump\t// in\n    tag_291:\n        /* \"#utility.yul\":9250:9416   */\n      pop\n        /* \"#utility.yul\":9501:9505   */\n      0x40\n        /* \"#utility.yul\":9494:9499   */\n      dup4\n        /* \"#utility.yul\":9490:9506   */\n      add\n        /* \"#utility.yul\":9484:9507   */\n      mload\n        /* \"#utility.yul\":9554:9557   */\n      dup5\n        /* \"#utility.yul\":9548:9552   */\n      dup3\n        /* \"#utility.yul\":9544:9558   */\n      sub\n        /* \"#utility.yul\":9537:9541   */\n      0x40\n        /* \"#utility.yul\":9532:9535   */\n      dup7\n        /* \"#utility.yul\":9528:9542   */\n      add\n        /* \"#utility.yul\":9521:9559   */\n      mstore\n        /* \"#utility.yul\":9580:9653   */\n      tag_292\n        /* \"#utility.yul\":9648:9652   */\n      dup3\n        /* \"#utility.yul\":9634:9646   */\n      dup3\n        /* \"#utility.yul\":9580:9653   */\n      tag_154\n      jump\t// in\n    tag_292:\n        /* \"#utility.yul\":9572:9653   */\n      swap2\n      pop\n        /* \"#utility.yul\":9426:9664   */\n      pop\n        /* \"#utility.yul\":9751:9755   */\n      0x60\n        /* \"#utility.yul\":9744:9749   */\n      dup4\n        /* \"#utility.yul\":9740:9756   */\n      add\n        /* \"#utility.yul\":9734:9757   */\n      mload\n        /* \"#utility.yul\":9770:9833   */\n      tag_293\n        /* \"#utility.yul\":9827:9831   */\n      0x60\n        /* \"#utility.yul\":9822:9825   */\n      dup7\n        /* \"#utility.yul\":9818:9832   */\n      add\n        /* \"#utility.yul\":9804:9816   */\n      dup3\n        /* \"#utility.yul\":9770:9833   */\n      tag_151\n      jump\t// in\n    tag_293:\n        /* \"#utility.yul\":9674:9843   */\n      pop\n        /* \"#utility.yul\":9926:9930   */\n      0x80\n        /* \"#utility.yul\":9919:9924   */\n      dup4\n        /* \"#utility.yul\":9915:9931   */\n      add\n        /* \"#utility.yul\":9909:9932   */\n      mload\n        /* \"#utility.yul\":9945:10008   */\n      tag_294\n        /* \"#utility.yul\":10002:10006   */\n      0x80\n        /* \"#utility.yul\":9997:10000   */\n      dup7\n        /* \"#utility.yul\":9993:10007   */\n      add\n        /* \"#utility.yul\":9979:9991   */\n      dup3\n        /* \"#utility.yul\":9945:10008   */\n      tag_151\n      jump\t// in\n    tag_294:\n        /* \"#utility.yul\":9853:10018   */\n      pop\n        /* \"#utility.yul\":10035:10039   */\n      dup1\n        /* \"#utility.yul\":10028:10039   */\n      swap2\n      pop\n        /* \"#utility.yul\":9032:10045   */\n      pop\n        /* \"#utility.yul\":8926:10045   */\n      swap3\n      swap2\n      pop\n      pop\n      jump\t// out\n        /* \"#utility.yul\":10051:10291   */\n    tag_156:\n        /* \"#utility.yul\":10162:10172   */\n      0x00\n        /* \"#utility.yul\":10197:10285   */\n      tag_296\n        /* \"#utility.yul\":10281:10284   */\n      dup4\n        /* \"#utility.yul\":10273:10279   */\n      dup4\n        /* \"#utility.yul\":10197:10285   */\n      tag_155\n      jump\t// in\n    tag_296:\n        /* \"#utility.yul\":10183:10285   */\n      swap1\n      pop\n        /* \"#utility.yul\":10051:10291   */\n      swap3\n      swap2\n      pop\n      pop\n      jump\t// out\n        /* \"#utility.yul\":10297:10431   */\n    tag_157:\n        /* \"#utility.yul\":10388:10392   */\n      0x00\n        /* \"#utility.yul\":10420:10424   */\n      0x20\n        /* \"#utility.yul\":10415:10418   */\n      dup3\n        /* \"#utility.yul\":10411:10425   */\n      add\n        /* \"#utility.yul\":10403:10425   */\n      swap1\n      pop\n        /* \"#utility.yul\":10297:10431   */\n      swap2\n      swap1\n      pop\n      jump\t// out\n        /* \"#utility.yul\":10493:11572   */\n    tag_158:\n        /* \"#utility.yul\":10654:10657   */\n      0x00\n        /* \"#utility.yul\":10683:10758   */\n      tag_299\n        /* \"#utility.yul\":10752:10757   */\n      dup3\n        /* \"#utility.yul\":10683:10758   */\n      tag_148\n      jump\t// in\n    tag_299:\n        /* \"#utility.yul\":10774:10881   */\n      tag_300\n        /* \"#utility.yul\":10874:10880   */\n      dup2\n        /* \"#utility.yul\":10869:10872   */\n      dup6\n        /* \"#utility.yul\":10774:10881   */\n      tag_149\n      jump\t// in\n    tag_300:\n        /* \"#utility.yul\":10767:10881   */\n      swap4\n      pop\n        /* \"#utility.yul\":10907:10910   */\n      dup4\n        /* \"#utility.yul\":10952:10956   */\n      0x20\n        /* \"#utility.yul\":10944:10950   */\n      dup3\n        /* \"#utility.yul\":10940:10957   */\n      mul\n        /* \"#utility.yul\":10935:10938   */\n      dup6\n        /* \"#utility.yul\":10931:10958   */\n      add\n        /* \"#utility.yul\":10982:11059   */\n      tag_301\n        /* \"#utility.yul\":11053:11058   */\n      dup6\n        /* \"#utility.yul\":10982:11059   */\n      tag_150\n      jump\t// in\n    tag_301:\n        /* \"#utility.yul\":11082:11089   */\n      dup1\n        /* \"#utility.yul\":11113:11114   */\n      0x00\n        /* \"#utility.yul\":11098:11527   */\n    tag_302:\n        /* \"#utility.yul\":11123:11129   */\n      dup6\n        /* \"#utility.yul\":11120:11121   */\n      dup2\n        /* \"#utility.yul\":11117:11130   */\n      lt\n        /* \"#utility.yul\":11098:11527   */\n      iszero\n      tag_304\n      jumpi\n        /* \"#utility.yul\":11194:11203   */\n      dup5\n        /* \"#utility.yul\":11188:11192   */\n      dup5\n        /* \"#utility.yul\":11184:11204   */\n      sub\n        /* \"#utility.yul\":11179:11182   */\n      dup10\n        /* \"#utility.yul\":11172:11205   */\n      mstore\n        /* \"#utility.yul\":11245:11251   */\n      dup2\n        /* \"#utility.yul\":11239:11252   */\n      mload\n        /* \"#utility.yul\":11273:11379   */\n      tag_305\n        /* \"#utility.yul\":11374:11378   */\n      dup6\n        /* \"#utility.yul\":11359:11372   */\n      dup3\n        /* \"#utility.yul\":11273:11379   */\n      tag_156\n      jump\t// in\n    tag_305:\n        /* \"#utility.yul\":11265:11379   */\n      swap5\n      pop\n        /* \"#utility.yul\":11402:11483   */\n      tag_306\n        /* \"#utility.yul\":11476:11482   */\n      dup4\n        /* \"#utility.yul\":11402:11483   */\n      tag_157\n      jump\t// in\n    tag_306:\n        /* \"#utility.yul\":11392:11483   */\n      swap3\n      pop\n        /* \"#utility.yul\":11512:11516   */\n      0x20\n        /* \"#utility.yul\":11507:11510   */\n      dup11\n        /* \"#utility.yul\":11503:11517   */\n      add\n        /* \"#utility.yul\":11496:11517   */\n      swap10\n      pop\n        /* \"#utility.yul\":11158:11527   */\n      pop\n        /* \"#utility.yul\":11145:11146   */\n      0x01\n        /* \"#utility.yul\":11142:11143   */\n      dup2\n        /* \"#utility.yul\":11138:11147   */\n      add\n        /* \"#utility.yul\":11133:11147   */\n      swap1\n      pop\n        /* \"#utility.yul\":11098:11527   */\n      jump(tag_302)\n    tag_304:\n        /* \"#utility.yul\":11102:11116   */\n      pop\n        /* \"#utility.yul\":11543:11547   */\n      dup3\n        /* \"#utility.yul\":11536:11547   */\n      swap8\n      pop\n        /* \"#utility.yul\":11563:11566   */\n      dup8\n        /* \"#utility.yul\":11556:11566   */\n      swap6\n      pop\n        /* \"#utility.yul\":10659:11572   */\n      pop\n      pop\n      pop\n      pop\n      pop\n        /* \"#utility.yul\":10493:11572   */\n      swap3\n      swap2\n      pop\n      pop\n      jump\t// out\n        /* \"#utility.yul\":11578:12035   */\n    tag_41:\n        /* \"#utility.yul\":11763:11767   */\n      0x00\n        /* \"#utility.yul\":11801:11803   */\n      0x20\n        /* \"#utility.yul\":11790:11799   */\n      dup3\n        /* \"#utility.yul\":11786:11804   */\n      add\n        /* \"#utility.yul\":11778:11804   */\n      swap1\n      pop\n        /* \"#utility.yul\":11850:11859   */\n      dup2\n        /* \"#utility.yul\":11844:11848   */\n      dup2\n        /* \"#utility.yul\":11840:11860   */\n      sub\n        /* \"#utility.yul\":11836:11837   */\n      0x00\n        /* \"#utility.yul\":11825:11834   */\n      dup4\n        /* \"#utility.yul\":11821:11838   */\n      add\n        /* \"#utility.yul\":11814:11861   */\n      mstore\n        /* \"#utility.yul\":11878:12028   */\n      tag_308\n        /* \"#utility.yul\":12023:12027   */\n      dup2\n        /* \"#utility.yul\":12014:12020   */\n      dup5\n        /* \"#utility.yul\":11878:12028   */\n      tag_158\n      jump\t// in\n    tag_308:\n        /* \"#utility.yul\":11870:12028   */\n      swap1\n      pop\n        /* \"#utility.yul\":11578:12035   */\n      swap3\n      swap2\n      pop\n      pop\n      jump\t// out\n        /* \"#utility.yul\":12041:12370   */\n    tag_44:\n        /* \"#utility.yul\":12100:12106   */\n      0x00\n        /* \"#utility.yul\":12149:12151   */\n      0x20\n        /* \"#utility.yul\":12137:12146   */\n      dup3\n        /* \"#utility.yul\":12128:12135   */\n      dup5\n        /* \"#utility.yul\":12124:12147   */\n      sub\n        /* \"#utility.yul\":12120:12152   */\n      slt\n        /* \"#utility.yul\":12117:12236   */\n      iszero\n      tag_310\n      jumpi\n        /* \"#utility.yul\":12155:12234   */\n      tag_311\n      tag_119\n      jump\t// in\n    tag_311:\n        /* \"#utility.yul\":12117:12236   */\n    tag_310:\n        /* \"#utility.yul\":12275:12276   */\n      0x00\n        /* \"#utility.yul\":12300:12353   */\n      tag_312\n        /* \"#utility.yul\":12345:12352   */\n      dup5\n        /* \"#utility.yul\":12336:12342   */\n      dup3\n        /* \"#utility.yul\":12325:12334   */\n      dup6\n        /* \"#utility.yul\":12321:12343   */\n      add\n        /* \"#utility.yul\":12300:12353   */\n      tag_127\n      jump\t// in\n    tag_312:\n        /* \"#utility.yul\":12290:12353   */\n      swap2\n      pop\n        /* \"#utility.yul\":12246:12363   */\n      pop\n        /* \"#utility.yul\":12041:12370   */\n      swap3\n      swap2\n      pop\n      pop\n      jump\t// out\n        /* \"#utility.yul\":12428:13557   */\n    tag_159:\n        /* \"#utility.yul\":12539:12542   */\n      0x00\n        /* \"#utility.yul\":12575:12579   */\n      0xa0\n        /* \"#utility.yul\":12570:12573   */\n      dup4\n        /* \"#utility.yul\":12566:12580   */\n      add\n        /* \"#utility.yul\":12660:12664   */\n      0x00\n        /* \"#utility.yul\":12653:12658   */\n      dup4\n        /* \"#utility.yul\":12649:12665   */\n      add\n        /* \"#utility.yul\":12643:12666   */\n      mload\n        /* \"#utility.yul\":12679:12742   */\n      tag_314\n        /* \"#utility.yul\":12736:12740   */\n      0x00\n        /* \"#utility.yul\":12731:12734   */\n      dup7\n        /* \"#utility.yul\":12727:12741   */\n      add\n        /* \"#utility.yul\":12713:12725   */\n      dup3\n        /* \"#utility.yul\":12679:12742   */\n      tag_151\n      jump\t// in\n    tag_314:\n        /* \"#utility.yul\":12590:12752   */\n      pop\n        /* \"#utility.yul\":12836:12840   */\n      0x20\n        /* \"#utility.yul\":12829:12834   */\n      dup4\n        /* \"#utility.yul\":12825:12841   */\n      add\n        /* \"#utility.yul\":12819:12842   */\n      mload\n        /* \"#utility.yul\":12855:12918   */\n      tag_315\n        /* \"#utility.yul\":12912:12916   */\n      0x20\n        /* \"#utility.yul\":12907:12910   */\n      dup7\n        /* \"#utility.yul\":12903:12917   */\n      add\n        /* \"#utility.yul\":12889:12901   */\n      dup3\n        /* \"#utility.yul\":12855:12918   */\n      tag_152\n      jump\t// in\n    tag_315:\n        /* \"#utility.yul\":12762:12928   */\n      pop\n        /* \"#utility.yul\":13013:13017   */\n      0x40\n        /* \"#utility.yul\":13006:13011   */\n      dup4\n        /* \"#utility.yul\":13002:13018   */\n      add\n        /* \"#utility.yul\":12996:13019   */\n      mload\n        /* \"#utility.yul\":13066:13069   */\n      dup5\n        /* \"#utility.yul\":13060:13064   */\n      dup3\n        /* \"#utility.yul\":13056:13070   */\n      sub\n        /* \"#utility.yul\":13049:13053   */\n      0x40\n        /* \"#utility.yul\":13044:13047   */\n      dup7\n        /* \"#utility.yul\":13040:13054   */\n      add\n        /* \"#utility.yul\":13033:13071   */\n      mstore\n        /* \"#utility.yul\":13092:13165   */\n      tag_316\n        /* \"#utility.yul\":13160:13164   */\n      dup3\n        /* \"#utility.yul\":13146:13158   */\n      dup3\n        /* \"#utility.yul\":13092:13165   */\n      tag_154\n      jump\t// in\n    tag_316:\n        /* \"#utility.yul\":13084:13165   */\n      swap2\n      pop\n        /* \"#utility.yul\":12938:13176   */\n      pop\n        /* \"#utility.yul\":13263:13267   */\n      0x60\n        /* \"#utility.yul\":13256:13261   */\n      dup4\n        /* \"#utility.yul\":13252:13268   */\n      add\n        /* \"#utility.yul\":13246:13269   */\n      mload\n        /* \"#utility.yul\":13282:13345   */\n      tag_317\n        /* \"#utility.yul\":13339:13343   */\n      0x60\n        /* \"#utility.yul\":13334:13337   */\n      dup7\n        /* \"#utility.yul\":13330:13344   */\n      add\n        /* \"#utility.yul\":13316:13328   */\n      dup3\n        /* \"#utility.yul\":13282:13345   */\n      tag_151\n      jump\t// in\n    tag_317:\n        /* \"#utility.yul\":13186:13355   */\n      pop\n        /* \"#utility.yul\":13438:13442   */\n      0x80\n        /* \"#utility.yul\":13431:13436   */\n      dup4\n        /* \"#utility.yul\":13427:13443   */\n      add\n        /* \"#utility.yul\":13421:13444   */\n      mload\n        /* \"#utility.yul\":13457:13520   */\n      tag_318\n        /* \"#utility.yul\":13514:13518   */\n      0x80\n        /* \"#utility.yul\":13509:13512   */\n      dup7\n        /* \"#utility.yul\":13505:13519   */\n      add\n        /* \"#utility.yul\":13491:13503   */\n      dup3\n        /* \"#utility.yul\":13457:13520   */\n      tag_151\n      jump\t// in\n    tag_318:\n        /* \"#utility.yul\":13365:13530   */\n      pop\n        /* \"#utility.yul\":13547:13551   */\n      dup1\n        /* \"#utility.yul\":13540:13551   */\n      swap2\n      pop\n        /* \"#utility.yul\":12544:13557   */\n      pop\n        /* \"#utility.yul\":12428:13557   */\n      swap3\n      swap2\n      pop\n      pop\n      jump\t// out\n        /* \"#utility.yul\":13563:13920   */\n    tag_47:\n        /* \"#utility.yul\":13698:13702   */\n      0x00\n        /* \"#utility.yul\":13736:13738   */\n      0x20\n        /* \"#utility.yul\":13725:13734   */\n      dup3\n        /* \"#utility.yul\":13721:13739   */\n      add\n        /* \"#utility.yul\":13713:13739   */\n      swap1\n      pop\n        /* \"#utility.yul\":13785:13794   */\n      dup2\n        /* \"#utility.yul\":13779:13783   */\n      dup2\n        /* \"#utility.yul\":13775:13795   */\n      sub\n        /* \"#utility.yul\":13771:13772   */\n      0x00\n        /* \"#utility.yul\":13760:13769   */\n      dup4\n        /* \"#utility.yul\":13756:13773   */\n      add\n        /* \"#utility.yul\":13749:13796   */\n      mstore\n        /* \"#utility.yul\":13813:13913   */\n      tag_320\n        /* \"#utility.yul\":13908:13912   */\n      dup2\n        /* \"#utility.yul\":13899:13905   */\n      dup5\n        /* \"#utility.yul\":13813:13913   */\n      tag_159\n      jump\t// in\n    tag_320:\n        /* \"#utility.yul\":13805:13913   */\n      swap1\n      pop\n        /* \"#utility.yul\":13563:13920   */\n      swap3\n      swap2\n      pop\n      pop\n      jump\t// out\n        /* \"#utility.yul\":13926:14106   */\n    tag_160:\n        /* \"#utility.yul\":13974:14051   */\n      0x4e487b7100000000000000000000000000000000000000000000000000000000\n        /* \"#utility.yul\":13971:13972   */\n      0x00\n        /* \"#utility.yul\":13964:14052   */\n      mstore\n        /* \"#utility.yul\":14071:14075   */\n      0x22\n        /* \"#utility.yul\":14068:14069   */\n      0x04\n        /* \"#utility.yul\":14061:14076   */\n      mstore\n        /* \"#utility.yul\":14095:14099   */\n      0x24\n        /* \"#utility.yul\":14092:14093   */\n      0x00\n        /* \"#utility.yul\":14085:14100   */\n      revert\n        /* \"#utility.yul\":14112:14432   */\n    tag_51:\n        /* \"#utility.yul\":14156:14162   */\n      0x00\n        /* \"#utility.yul\":14193:14194   */\n      0x02\n        /* \"#utility.yul\":14187:14191   */\n      dup3\n        /* \"#utility.yul\":14183:14195   */\n      div\n        /* \"#utility.yul\":14173:14195   */\n      swap1\n      pop\n        /* \"#utility.yul\":14240:14241   */\n      0x01\n        /* \"#utility.yul\":14234:14238   */\n      dup3\n        /* \"#utility.yul\":14230:14242   */\n      and\n        /* \"#utility.yul\":14261:14279   */\n      dup1\n        /* \"#utility.yul\":14251:14332   */\n      tag_323\n      jumpi\n        /* \"#utility.yul\":14317:14321   */\n      0x7f\n        /* \"#utility.yul\":14309:14315   */\n      dup3\n        /* \"#utility.yul\":14305:14322   */\n      and\n        /* \"#utility.yul\":14295:14322   */\n      swap2\n      pop\n        /* \"#utility.yul\":14251:14332   */\n    tag_323:\n        /* \"#utility.yul\":14379:14381   */\n      0x20\n        /* \"#utility.yul\":14371:14377   */\n      dup3\n        /* \"#utility.yul\":14368:14382   */\n      lt\n        /* \"#utility.yul\":14348:14366   */\n      dup2\n        /* \"#utility.yul\":14345:14383   */\n      sub\n        /* \"#utility.yul\":14342:14426   */\n      tag_324\n      jumpi\n        /* \"#utility.yul\":14398:14416   */\n      tag_325\n      tag_160\n      jump\t// in\n    tag_325:\n        /* \"#utility.yul\":14342:14426   */\n    tag_324:\n        /* \"#utility.yul\":14163:14432   */\n      pop\n        /* \"#utility.yul\":14112:14432   */\n      swap2\n      swap1\n      pop\n      jump\t// out\n        /* \"#utility.yul\":14438:14618   */\n    tag_59:\n        /* \"#utility.yul\":14486:14563   */\n      0x4e487b7100000000000000000000000000000000000000000000000000000000\n        /* \"#utility.yul\":14483:14484   */\n      0x00\n        /* \"#utility.yul\":14476:14564   */\n      mstore\n        /* \"#utility.yul\":14583:14587   */\n      0x32\n        /* \"#utility.yul\":14580:14581   */\n      0x04\n        /* \"#utility.yul\":14573:14588   */\n      mstore\n        /* \"#utility.yul\":14607:14611   */\n      0x24\n        /* \"#utility.yul\":14604:14605   */\n      0x00\n        /* \"#utility.yul\":14597:14612   */\n      revert\n        /* \"#utility.yul\":14624:14793   */\n    tag_161:\n        /* \"#utility.yul\":14764:14785   */\n      0x496c207477656574206e6f6e2065736973746500000000000000000000000000\n        /* \"#utility.yul\":14760:14761   */\n      0x00\n        /* \"#utility.yul\":14752:14758   */\n      dup3\n        /* \"#utility.yul\":14748:14762   */\n      add\n        /* \"#utility.yul\":14741:14786   */\n      mstore\n        /* \"#utility.yul\":14624:14793   */\n      pop\n      jump\t// out\n        /* \"#utility.yul\":14799:15165   */\n    tag_162:\n        /* \"#utility.yul\":14941:14944   */\n      0x00\n        /* \"#utility.yul\":14962:15029   */\n      tag_329\n        /* \"#utility.yul\":15026:15028   */\n      0x13\n        /* \"#utility.yul\":15021:15024   */\n      dup4\n        /* \"#utility.yul\":14962:15029   */\n      tag_131\n      jump\t// in\n    tag_329:\n        /* \"#utility.yul\":14955:15029   */\n      swap2\n      pop\n        /* \"#utility.yul\":15038:15131   */\n      tag_330\n        /* \"#utility.yul\":15127:15130   */\n      dup3\n        /* \"#utility.yul\":15038:15131   */\n      tag_161\n      jump\t// in\n    tag_330:\n        /* \"#utility.yul\":15156:15158   */\n      0x20\n        /* \"#utility.yul\":15151:15154   */\n      dup3\n        /* \"#utility.yul\":15147:15159   */\n      add\n        /* \"#utility.yul\":15140:15159   */\n      swap1\n      pop\n        /* \"#utility.yul\":14799:15165   */\n      swap2\n      swap1\n      pop\n      jump\t// out\n        /* \"#utility.yul\":15171:15590   */\n    tag_63:\n        /* \"#utility.yul\":15337:15341   */\n      0x00\n        /* \"#utility.yul\":15375:15377   */\n      0x20\n        /* \"#utility.yul\":15364:15373   */\n      dup3\n        /* \"#utility.yul\":15360:15378   */\n      add\n        /* \"#utility.yul\":15352:15378   */\n      swap1\n      pop\n        /* \"#utility.yul\":15424:15433   */\n      dup2\n        /* \"#utility.yul\":15418:15422   */\n      dup2\n        /* \"#utility.yul\":15414:15434   */\n      sub\n        /* \"#utility.yul\":15410:15411   */\n      0x00\n        /* \"#utility.yul\":15399:15408   */\n      dup4\n        /* \"#utility.yul\":15395:15412   */\n      add\n        /* \"#utility.yul\":15388:15435   */\n      mstore\n        /* \"#utility.yul\":15452:15583   */\n      tag_332\n        /* \"#utility.yul\":15578:15582   */\n      dup2\n        /* \"#utility.yul\":15452:15583   */\n      tag_162\n      jump\t// in\n    tag_332:\n        /* \"#utility.yul\":15444:15583   */\n      swap1\n      pop\n        /* \"#utility.yul\":15171:15590   */\n      swap2\n      swap1\n      pop\n      jump\t// out\n        /* \"#utility.yul\":15596:15770   */\n    tag_163:\n        /* \"#utility.yul\":15736:15762   */\n      0x496c20747765657420686120676961272030206c696b65730000000000000000\n        /* \"#utility.yul\":15732:15733   */\n      0x00\n        /* \"#utility.yul\":15724:15730   */\n      dup3\n        /* \"#utility.yul\":15720:15734   */\n      add\n        /* \"#utility.yul\":15713:15763   */\n      mstore\n        /* \"#utility.yul\":15596:15770   */\n      pop\n      jump\t// out\n        /* \"#utility.yul\":15776:16142   */\n    tag_164:\n        /* \"#utility.yul\":15918:15921   */\n      0x00\n        /* \"#utility.yul\":15939:16006   */\n      tag_335\n        /* \"#utility.yul\":16003:16005   */\n      0x18\n        /* \"#utility.yul\":15998:16001   */\n      dup4\n        /* \"#utility.yul\":15939:16006   */\n      tag_131\n      jump\t// in\n    tag_335:\n        /* \"#utility.yul\":15932:16006   */\n      swap2\n      pop\n        /* \"#utility.yul\":16015:16108   */\n      tag_336\n        /* \"#utility.yul\":16104:16107   */\n      dup3\n        /* \"#utility.yul\":16015:16108   */\n      tag_163\n      jump\t// in\n    tag_336:\n        /* \"#utility.yul\":16133:16135   */\n      0x20\n        /* \"#utility.yul\":16128:16131   */\n      dup3\n        /* \"#utility.yul\":16124:16136   */\n      add\n        /* \"#utility.yul\":16117:16136   */\n      swap1\n      pop\n        /* \"#utility.yul\":15776:16142   */\n      swap2\n      swap1\n      pop\n      jump\t// out\n        /* \"#utility.yul\":16148:16567   */\n    tag_69:\n        /* \"#utility.yul\":16314:16318   */\n      0x00\n        /* \"#utility.yul\":16352:16354   */\n      0x20\n        /* \"#utility.yul\":16341:16350   */\n      dup3\n        /* \"#utility.yul\":16337:16355   */\n      add\n        /* \"#utility.yul\":16329:16355   */\n      swap1\n      pop\n        /* \"#utility.yul\":16401:16410   */\n      dup2\n        /* \"#utility.yul\":16395:16399   */\n      dup2\n        /* \"#utility.yul\":16391:16411   */\n      sub\n        /* \"#utility.yul\":16387:16388   */\n      0x00\n        /* \"#utility.yul\":16376:16385   */\n      dup4\n        /* \"#utility.yul\":16372:16389   */\n      add\n        /* \"#utility.yul\":16365:16412   */\n      mstore\n        /* \"#utility.yul\":16429:16560   */\n      tag_338\n        /* \"#utility.yul\":16555:16559   */\n      dup2\n        /* \"#utility.yul\":16429:16560   */\n      tag_164\n      jump\t// in\n    tag_338:\n        /* \"#utility.yul\":16421:16560   */\n      swap1\n      pop\n        /* \"#utility.yul\":16148:16567   */\n      swap2\n      swap1\n      pop\n      jump\t// out\n        /* \"#utility.yul\":16573:16753   */\n    tag_165:\n        /* \"#utility.yul\":16621:16698   */\n      0x4e487b7100000000000000000000000000000000000000000000000000000000\n        /* \"#utility.yul\":16618:16619   */\n      0x00\n        /* \"#utility.yul\":16611:16699   */\n      mstore\n        /* \"#utility.yul\":16718:16722   */\n      0x11\n        /* \"#utility.yul\":16715:16716   */\n      0x04\n        /* \"#utility.yul\":16708:16723   */\n      mstore\n        /* \"#utility.yul\":16742:16746   */\n      0x24\n        /* \"#utility.yul\":16739:16740   */\n      0x00\n        /* \"#utility.yul\":16732:16747   */\n      revert\n        /* \"#utility.yul\":16759:16930   */\n    tag_74:\n        /* \"#utility.yul\":16798:16801   */\n      0x00\n        /* \"#utility.yul\":16821:16845   */\n      tag_341\n        /* \"#utility.yul\":16839:16844   */\n      dup3\n        /* \"#utility.yul\":16821:16845   */\n      tag_125\n      jump\t// in\n    tag_341:\n        /* \"#utility.yul\":16812:16845   */\n      swap2\n      pop\n        /* \"#utility.yul\":16867:16871   */\n      0x00\n        /* \"#utility.yul\":16860:16865   */\n      dup3\n        /* \"#utility.yul\":16857:16872   */\n      sub\n        /* \"#utility.yul\":16854:16895   */\n      tag_342\n      jumpi\n        /* \"#utility.yul\":16875:16893   */\n      tag_343\n      tag_165\n      jump\t// in\n    tag_343:\n        /* \"#utility.yul\":16854:16895   */\n    tag_342:\n        /* \"#utility.yul\":16922:16923   */\n      0x01\n        /* \"#utility.yul\":16915:16920   */\n      dup3\n        /* \"#utility.yul\":16911:16924   */\n      sub\n        /* \"#utility.yul\":16904:16924   */\n      swap1\n      pop\n        /* \"#utility.yul\":16759:16930   */\n      swap2\n      swap1\n      pop\n      jump\t// out\n        /* \"#utility.yul\":16936:17160   */\n    tag_166:\n        /* \"#utility.yul\":17076:17110   */\n      0x4e6f6e2073656920696c2070726f70726965746172696f2064656c20636f6e74\n        /* \"#utility.yul\":17072:17073   */\n      0x00\n        /* \"#utility.yul\":17064:17070   */\n      dup3\n        /* \"#utility.yul\":17060:17074   */\n      add\n        /* \"#utility.yul\":17053:17111   */\n      mstore\n        /* \"#utility.yul\":17145:17152   */\n      0x726174746f000000000000000000000000000000000000000000000000000000\n        /* \"#utility.yul\":17140:17142   */\n      0x20\n        /* \"#utility.yul\":17132:17138   */\n      dup3\n        /* \"#utility.yul\":17128:17143   */\n      add\n        /* \"#utility.yul\":17121:17153   */\n      mstore\n        /* \"#utility.yul\":16936:17160   */\n      pop\n      jump\t// out\n        /* \"#utility.yul\":17166:17532   */\n    tag_167:\n        /* \"#utility.yul\":17308:17311   */\n      0x00\n        /* \"#utility.yul\":17329:17396   */\n      tag_346\n        /* \"#utility.yul\":17393:17395   */\n      0x25\n        /* \"#utility.yul\":17388:17391   */\n      dup4\n        /* \"#utility.yul\":17329:17396   */\n      tag_131\n      jump\t// in\n    tag_346:\n        /* \"#utility.yul\":17322:17396   */\n      swap2\n      pop\n        /* \"#utility.yul\":17405:17498   */\n      tag_347\n        /* \"#utility.yul\":17494:17497   */\n      dup3\n        /* \"#utility.yul\":17405:17498   */\n      tag_166\n      jump\t// in\n    tag_347:\n        /* \"#utility.yul\":17523:17525   */\n      0x40\n        /* \"#utility.yul\":17518:17521   */\n      dup3\n        /* \"#utility.yul\":17514:17526   */\n      add\n        /* \"#utility.yul\":17507:17526   */\n      swap1\n      pop\n        /* \"#utility.yul\":17166:17532   */\n      swap2\n      swap1\n      pop\n      jump\t// out\n        /* \"#utility.yul\":17538:17957   */\n    tag_78:\n        /* \"#utility.yul\":17704:17708   */\n      0x00\n        /* \"#utility.yul\":17742:17744   */\n      0x20\n        /* \"#utility.yul\":17731:17740   */\n      dup3\n        /* \"#utility.yul\":17727:17745   */\n      add\n        /* \"#utility.yul\":17719:17745   */\n      swap1\n      pop\n        /* \"#utility.yul\":17791:17800   */\n      dup2\n        /* \"#utility.yul\":17785:17789   */\n      dup2\n        /* \"#utility.yul\":17781:17801   */\n      sub\n        /* \"#utility.yul\":17777:17778   */\n      0x00\n        /* \"#utility.yul\":17766:17775   */\n      dup4\n        /* \"#utility.yul\":17762:17779   */\n      add\n        /* \"#utility.yul\":17755:17802   */\n      mstore\n        /* \"#utility.yul\":17819:17950   */\n      tag_349\n        /* \"#utility.yul\":17945:17949   */\n      dup2\n        /* \"#utility.yul\":17819:17950   */\n      tag_167\n      jump\t// in\n    tag_349:\n        /* \"#utility.yul\":17811:17950   */\n      swap1\n      pop\n        /* \"#utility.yul\":17538:17957   */\n      swap2\n      swap1\n      pop\n      jump\t// out\n        /* \"#utility.yul\":17963:18196   */\n    tag_90:\n        /* \"#utility.yul\":18002:18005   */\n      0x00\n        /* \"#utility.yul\":18025:18049   */\n      tag_351\n        /* \"#utility.yul\":18043:18048   */\n      dup3\n        /* \"#utility.yul\":18025:18049   */\n      tag_125\n      jump\t// in\n    tag_351:\n        /* \"#utility.yul\":18016:18049   */\n      swap2\n      pop\n        /* \"#utility.yul\":18071:18137   */\n      0xffffffffffffffffffffffffffffffffffffffffffffffffffffffffffffffff\n        /* \"#utility.yul\":18064:18069   */\n      dup3\n        /* \"#utility.yul\":18061:18138   */\n      sub\n        /* \"#utility.yul\":18058:18161   */\n      tag_352\n      jumpi\n        /* \"#utility.yul\":18141:18159   */\n      tag_353\n      tag_165\n      jump\t// in\n    tag_353:\n        /* \"#utility.yul\":18058:18161   */\n    tag_352:\n        /* \"#utility.yul\":18188:18189   */\n      0x01\n        /* \"#utility.yul\":18181:18186   */\n      dup3\n        /* \"#utility.yul\":18177:18190   */\n      add\n        /* \"#utility.yul\":18170:18190   */\n      swap1\n      pop\n        /* \"#utility.yul\":17963:18196   */\n      swap2\n      swap1\n      pop\n      jump\t// out\n        /* \"#utility.yul\":18202:18377   */\n    tag_168:\n        /* \"#utility.yul\":18342:18369   */\n      0x696c2054776565742065272074726f70706f206772616e646500000000000000\n        /* \"#utility.yul\":18338:18339   */\n      0x00\n        /* \"#utility.yul\":18330:18336   */\n      dup3\n        /* \"#utility.yul\":18326:18340   */\n      add\n        /* \"#utility.yul\":18319:18370   */\n      mstore\n        /* \"#utility.yul\":18202:18377   */\n      pop\n      jump\t// out\n        /* \"#utility.yul\":18383:18749   */\n    tag_169:\n        /* \"#utility.yul\":18525:18528   */\n      0x00\n        /* \"#utility.yul\":18546:18613   */\n      tag_356\n        /* \"#utility.yul\":18610:18612   */\n      0x19\n        /* \"#utility.yul\":18605:18608   */\n      dup4\n        /* \"#utility.yul\":18546:18613   */\n      tag_131\n      jump\t// in\n    tag_356:\n        /* \"#utility.yul\":18539:18613   */\n      swap2\n      pop\n        /* \"#utility.yul\":18622:18715   */\n      tag_357\n        /* \"#utility.yul\":18711:18714   */\n      dup3\n        /* \"#utility.yul\":18622:18715   */\n      tag_168\n      jump\t// in\n    tag_357:\n        /* \"#utility.yul\":18740:18742   */\n      0x20\n        /* \"#utility.yul\":18735:18738   */\n      dup3\n        /* \"#utility.yul\":18731:18743   */\n      add\n        /* \"#utility.yul\":18724:18743   */\n      swap1\n      pop\n        /* \"#utility.yul\":18383:18749   */\n      swap2\n      swap1\n      pop\n      jump\t// out\n        /* \"#utility.yul\":18755:19174   */\n    tag_94:\n        /* \"#utility.yul\":18921:18925   */\n      0x00\n        /* \"#utility.yul\":18959:18961   */\n      0x20\n        /* \"#utility.yul\":18948:18957   */\n      dup3\n        /* \"#utility.yul\":18944:18962   */\n      add\n        /* \"#utility.yul\":18936:18962   */\n      swap1\n      pop\n        /* \"#utility.yul\":19008:19017   */\n      dup2\n        /* \"#utility.yul\":19002:19006   */\n      dup2\n        /* \"#utility.yul\":18998:19018   */\n      sub\n        /* \"#utility.yul\":18994:18995   */\n      0x00\n        /* \"#utility.yul\":18983:18992   */\n      dup4\n        /* \"#utility.yul\":18979:18996   */\n      add\n        /* \"#utility.yul\":18972:19019   */\n      mstore\n        /* \"#utility.yul\":19036:19167   */\n      tag_359\n        /* \"#utility.yul\":19162:19166   */\n      dup2\n        /* \"#utility.yul\":19036:19167   */\n      tag_169\n      jump\t// in\n    tag_359:\n        /* \"#utility.yul\":19028:19167   */\n      swap1\n      pop\n        /* \"#utility.yul\":18755:19174   */\n      swap2\n      swap1\n      pop\n      jump\t// out\n        /* \"#utility.yul\":19180:19321   */\n    tag_170:\n        /* \"#utility.yul\":19229:19233   */\n      0x00\n        /* \"#utility.yul\":19252:19255   */\n      dup2\n        /* \"#utility.yul\":19244:19255   */\n      swap1\n      pop\n        /* \"#utility.yul\":19275:19278   */\n      dup2\n        /* \"#utility.yul\":19272:19273   */\n      0x00\n        /* \"#utility.yul\":19265:19279   */\n      mstore\n        /* \"#utility.yul\":19309:19313   */\n      0x20\n        /* \"#utility.yul\":19306:19307   */\n      0x00\n        /* \"#utility.yul\":19296:19314   */\n      keccak256\n        /* \"#utility.yul\":19288:19314   */\n      swap1\n      pop\n        /* \"#utility.yul\":19180:19321   */\n      swap2\n      swap1\n      pop\n      jump\t// out\n        /* \"#utility.yul\":19327:19420   */\n    tag_171:\n        /* \"#utility.yul\":19364:19370   */\n      0x00\n        /* \"#utility.yul\":19411:19413   */\n      0x20\n        /* \"#utility.yul\":19406:19408   */\n      0x1f\n        /* \"#utility.yul\":19399:19404   */\n      dup4\n        /* \"#utility.yul\":19395:19409   */\n      add\n        /* \"#utility.yul\":19391:19414   */\n      div\n        /* \"#utility.yul\":19381:19414   */\n      swap1\n      pop\n        /* \"#utility.yul\":19327:19420   */\n      swap2\n      swap1\n      pop\n      jump\t// out\n        /* \"#utility.yul\":19426:19533   */\n    tag_172:\n        /* \"#utility.yul\":19470:19478   */\n      0x00\n        /* \"#utility.yul\":19520:19525   */\n      dup3\n        /* \"#utility.yul\":19514:19518   */\n      dup3\n        /* \"#utility.yul\":19510:19526   */\n      shl\n        /* \"#utility.yul\":19489:19526   */\n      swap1\n      pop\n        /* \"#utility.yul\":19426:19533   */\n      swap3\n      swap2\n      pop\n      pop\n      jump\t// out\n        /* \"#utility.yul\":19539:19932   */\n    tag_173:\n        /* \"#utility.yul\":19608:19614   */\n      0x00\n        /* \"#utility.yul\":19658:19659   */\n      0x08\n        /* \"#utility.yul\":19646:19656   */\n      dup4\n        /* \"#utility.yul\":19642:19660   */\n      mul\n        /* \"#utility.yul\":19681:19778   */\n      tag_364\n        /* \"#utility.yul\":19711:19777   */\n      0xffffffffffffffffffffffffffffffffffffffffffffffffffffffffffffffff\n        /* \"#utility.yul\":19700:19709   */\n      dup3\n        /* \"#utility.yul\":19681:19778   */\n      tag_172\n      jump\t// in\n    tag_364:\n        /* \"#utility.yul\":19799:19838   */\n      tag_365\n        /* \"#utility.yul\":19829:19837   */\n      dup7\n        /* \"#utility.yul\":19818:19827   */\n      dup4\n        /* \"#utility.yul\":19799:19838   */\n      tag_172\n      jump\t// in\n    tag_365:\n        /* \"#utility.yul\":19787:19838   */\n      swap6\n      pop\n        /* \"#utility.yul\":19871:19875   */\n      dup1\n        /* \"#utility.yul\":19867:19876   */\n      not\n        /* \"#utility.yul\":19860:19865   */\n      dup5\n        /* \"#utility.yul\":19856:19877   */\n      and\n        /* \"#utility.yul\":19847:19877   */\n      swap4\n      pop\n        /* \"#utility.yul\":19920:19924   */\n      dup1\n        /* \"#utility.yul\":19910:19918   */\n      dup7\n        /* \"#utility.yul\":19906:19925   */\n      and\n        /* \"#utility.yul\":19899:19904   */\n      dup5\n        /* \"#utility.yul\":19896:19926   */\n      or\n        /* \"#utility.yul\":19886:19926   */\n      swap3\n      pop\n        /* \"#utility.yul\":19615:19932   */\n      pop\n      pop\n        /* \"#utility.yul\":19539:19932   */\n      swap4\n      swap3\n      pop\n      pop\n      pop\n      jump\t// out\n        /* \"#utility.yul\":19938:19998   */\n    tag_174:\n        /* \"#utility.yul\":19966:19969   */\n      0x00\n        /* \"#utility.yul\":19987:19992   */\n      dup2\n        /* \"#utility.yul\":19980:19992   */\n      swap1\n      pop\n        /* \"#utility.yul\":19938:19998   */\n      swap2\n      swap1\n      pop\n      jump\t// out\n        /* \"#utility.yul\":20004:20146   */\n    tag_175:\n        /* \"#utility.yul\":20054:20063   */\n      0x00\n        /* \"#utility.yul\":20087:20140   */\n      tag_368\n        /* \"#utility.yul\":20105:20139   */\n      tag_369\n        /* \"#utility.yul\":20114:20138   */\n      tag_370\n        /* \"#utility.yul\":20132:20137   */\n      dup5\n        /* \"#utility.yul\":20114:20138   */\n      tag_125\n      jump\t// in\n    tag_370:\n        /* \"#utility.yul\":20105:20139   */\n      tag_174\n      jump\t// in\n    tag_369:\n        /* \"#utility.yul\":20087:20140   */\n      tag_125\n      jump\t// in\n    tag_368:\n        /* \"#utility.yul\":20074:20140   */\n      swap1\n      pop\n        /* \"#utility.yul\":20004:20146   */\n      swap2\n      swap1\n      pop\n      jump\t// out\n        /* \"#utility.yul\":20152:20227   */\n    tag_176:\n        /* \"#utility.yul\":20195:20198   */\n      0x00\n        /* \"#utility.yul\":20216:20221   */\n      dup2\n        /* \"#utility.yul\":20209:20221   */\n      swap1\n      pop\n        /* \"#utility.yul\":20152:20227   */\n      swap2\n      swap1\n      pop\n      jump\t// out\n        /* \"#utility.yul\":20233:20502   */\n    tag_177:\n        /* \"#utility.yul\":20343:20382   */\n      tag_373\n        /* \"#utility.yul\":20374:20381   */\n      dup4\n        /* \"#utility.yul\":20343:20382   */\n      tag_175\n      jump\t// in\n    tag_373:\n        /* \"#utility.yul\":20404:20495   */\n      tag_374\n        /* \"#utility.yul\":20453:20494   */\n      tag_375\n        /* \"#utility.yul\":20477:20493   */\n      dup3\n        /* \"#utility.yul\":20453:20494   */\n      tag_176\n      jump\t// in\n    tag_375:\n        /* \"#utility.yul\":20445:20451   */\n      dup5\n        /* \"#utility.yul\":20438:20442   */\n      dup5\n        /* \"#utility.yul\":20432:20443   */\n      sload\n        /* \"#utility.yul\":20404:20495   */\n      tag_173\n      jump\t// in\n    tag_374:\n        /* \"#utility.yul\":20398:20402   */\n      dup3\n        /* \"#utility.yul\":20391:20496   */\n      sstore\n        /* \"#utility.yul\":20309:20502   */\n      pop\n        /* \"#utility.yul\":20233:20502   */\n      pop\n      pop\n      pop\n      jump\t// out\n        /* \"#utility.yul\":20508:20581   */\n    tag_178:\n        /* \"#utility.yul\":20553:20556   */\n      0x00\n        /* \"#utility.yul\":20574:20575   */\n      0x00\n        /* \"#utility.yul\":20567:20575   */\n      swap1\n      pop\n        /* \"#utility.yul\":20508:20581   */\n      swap1\n      jump\t// out\n        /* \"#utility.yul\":20587:20776   */\n    tag_179:\n        /* \"#utility.yul\":20664:20696   */\n      tag_378\n      tag_178\n      jump\t// in\n    tag_378:\n        /* \"#utility.yul\":20705:20770   */\n      tag_379\n        /* \"#utility.yul\":20763:20769   */\n      dup2\n        /* \"#utility.yul\":20755:20761   */\n      dup5\n        /* \"#utility.yul\":20749:20753   */\n      dup5\n        /* \"#utility.yul\":20705:20770   */\n      tag_177\n      jump\t// in\n    tag_379:\n        /* \"#utility.yul\":20640:20776   */\n      pop\n        /* \"#utility.yul\":20587:20776   */\n      pop\n      pop\n      jump\t// out\n        /* \"#utility.yul\":20782:20968   */\n    tag_180:\n        /* \"#utility.yul\":20842:20962   */\n    tag_381:\n        /* \"#utility.yul\":20859:20862   */\n      dup2\n        /* \"#utility.yul\":20852:20857   */\n      dup2\n        /* \"#utility.yul\":20849:20863   */\n      lt\n        /* \"#utility.yul\":20842:20962   */\n      iszero\n      tag_383\n      jumpi\n        /* \"#utility.yul\":20913:20952   */\n      tag_384\n        /* \"#utility.yul\":20950:20951   */\n      0x00\n        /* \"#utility.yul\":20943:20948   */\n      dup3\n        /* \"#utility.yul\":20913:20952   */\n      tag_179\n      jump\t// in\n    tag_384:\n        /* \"#utility.yul\":20886:20887   */\n      0x01\n        /* \"#utility.yul\":20879:20884   */\n      dup2\n        /* \"#utility.yul\":20875:20888   */\n      add\n        /* \"#utility.yul\":20866:20888   */\n      swap1\n      pop\n        /* \"#utility.yul\":20842:20962   */\n      jump(tag_381)\n    tag_383:\n        /* \"#utility.yul\":20782:20968   */\n      pop\n      pop\n      jump\t// out\n        /* \"#utility.yul\":20974:21517   */\n    tag_181:\n        /* \"#utility.yul\":21075:21077   */\n      0x1f\n        /* \"#utility.yul\":21070:21073   */\n      dup3\n        /* \"#utility.yul\":21067:21078   */\n      gt\n        /* \"#utility.yul\":21064:21510   */\n      iszero\n      tag_386\n      jumpi\n        /* \"#utility.yul\":21109:21147   */\n      tag_387\n        /* \"#utility.yul\":21141:21146   */\n      dup2\n        /* \"#utility.yul\":21109:21147   */\n      tag_170\n      jump\t// in\n    tag_387:\n        /* \"#utility.yul\":21193:21222   */\n      tag_388\n        /* \"#utility.yul\":21211:21221   */\n      dup5\n        /* \"#utility.yul\":21193:21222   */\n      tag_171\n      jump\t// in\n    tag_388:\n        /* \"#utility.yul\":21183:21191   */\n      dup2\n        /* \"#utility.yul\":21179:21223   */\n      add\n        /* \"#utility.yul\":21376:21378   */\n      0x20\n        /* \"#utility.yul\":21364:21374   */\n      dup6\n        /* \"#utility.yul\":21361:21379   */\n      lt\n        /* \"#utility.yul\":21358:21407   */\n      iszero\n      tag_389\n      jumpi\n        /* \"#utility.yul\":21397:21405   */\n      dup2\n        /* \"#utility.yul\":21382:21405   */\n      swap1\n      pop\n        /* \"#utility.yul\":21358:21407   */\n    tag_389:\n        /* \"#utility.yul\":21420:21500   */\n      tag_390\n        /* \"#utility.yul\":21476:21498   */\n      tag_391\n        /* \"#utility.yul\":21494:21497   */\n      dup6\n        /* \"#utility.yul\":21476:21498   */\n      tag_171\n      jump\t// in\n    tag_391:\n        /* \"#utility.yul\":21466:21474   */\n      dup4\n        /* \"#utility.yul\":21462:21499   */\n      add\n        /* \"#utility.yul\":21449:21460   */\n      dup3\n        /* \"#utility.yul\":21420:21500   */\n      tag_180\n      jump\t// in\n    tag_390:\n        /* \"#utility.yul\":21079:21510   */\n      pop\n      pop\n        /* \"#utility.yul\":21064:21510   */\n    tag_386:\n        /* \"#utility.yul\":20974:21517   */\n      pop\n      pop\n      pop\n      jump\t// out\n        /* \"#utility.yul\":21523:21640   */\n    tag_182:\n        /* \"#utility.yul\":21577:21585   */\n      0x00\n        /* \"#utility.yul\":21627:21632   */\n      dup3\n        /* \"#utility.yul\":21621:21625   */\n      dup3\n        /* \"#utility.yul\":21617:21633   */\n      shr\n        /* \"#utility.yul\":21596:21633   */\n      swap1\n      pop\n        /* \"#utility.yul\":21523:21640   */\n      swap3\n      swap2\n      pop\n      pop\n      jump\t// out\n        /* \"#utility.yul\":21646:21815   */\n    tag_183:\n        /* \"#utility.yul\":21690:21696   */\n      0x00\n        /* \"#utility.yul\":21723:21774   */\n      tag_394\n        /* \"#utility.yul\":21771:21772   */\n      0x00\n        /* \"#utility.yul\":21767:21773   */\n      not\n        /* \"#utility.yul\":21759:21764   */\n      dup5\n        /* \"#utility.yul\":21756:21757   */\n      0x08\n        /* \"#utility.yul\":21752:21765   */\n      mul\n        /* \"#utility.yul\":21723:21774   */\n      tag_182\n      jump\t// in\n    tag_394:\n        /* \"#utility.yul\":21719:21775   */\n      not\n        /* \"#utility.yul\":21804:21808   */\n      dup1\n        /* \"#utility.yul\":21798:21802   */\n      dup4\n        /* \"#utility.yul\":21794:21809   */\n      and\n        /* \"#utility.yul\":21784:21809   */\n      swap2\n      pop\n        /* \"#utility.yul\":21697:21815   */\n      pop\n        /* \"#utility.yul\":21646:21815   */\n      swap3\n      swap2\n      pop\n      pop\n      jump\t// out\n        /* \"#utility.yul\":21820:22115   */\n    tag_184:\n        /* \"#utility.yul\":21896:21900   */\n      0x00\n        /* \"#utility.yul\":22042:22071   */\n      tag_396\n        /* \"#utility.yul\":22067:22070   */\n      dup4\n        /* \"#utility.yul\":22061:22065   */\n      dup4\n        /* \"#utility.yul\":22042:22071   */\n      tag_183\n      jump\t// in\n    tag_396:\n        /* \"#utility.yul\":22034:22071   */\n      swap2\n      pop\n        /* \"#utility.yul\":22104:22107   */\n      dup3\n        /* \"#utility.yul\":22101:22102   */\n      0x02\n        /* \"#utility.yul\":22097:22108   */\n      mul\n        /* \"#utility.yul\":22091:22095   */\n      dup3\n        /* \"#utility.yul\":22088:22109   */\n      or\n        /* \"#utility.yul\":22080:22109   */\n      swap1\n      pop\n        /* \"#utility.yul\":21820:22115   */\n      swap3\n      swap2\n      pop\n      pop\n      jump\t// out\n        /* \"#utility.yul\":22120:23515   */\n    tag_97:\n        /* \"#utility.yul\":22237:22274   */\n      tag_398\n        /* \"#utility.yul\":22270:22273   */\n      dup3\n        /* \"#utility.yul\":22237:22274   */\n      tag_130\n      jump\t// in\n    tag_398:\n        /* \"#utility.yul\":22339:22357   */\n      0xffffffffffffffff\n        /* \"#utility.yul\":22331:22337   */\n      dup2\n        /* \"#utility.yul\":22328:22358   */\n      gt\n        /* \"#utility.yul\":22325:22381   */\n      iszero\n      tag_399\n      jumpi\n        /* \"#utility.yul\":22361:22379   */\n      tag_400\n      tag_141\n      jump\t// in\n    tag_400:\n        /* \"#utility.yul\":22325:22381   */\n    tag_399:\n        /* \"#utility.yul\":22405:22443   */\n      tag_401\n        /* \"#utility.yul\":22437:22441   */\n      dup3\n        /* \"#utility.yul\":22431:22442   */\n      sload\n        /* \"#utility.yul\":22405:22443   */\n      tag_51\n      jump\t// in\n    tag_401:\n        /* \"#utility.yul\":22490:22557   */\n      tag_402\n        /* \"#utility.yul\":22550:22556   */\n      dup3\n        /* \"#utility.yul\":22542:22548   */\n      dup3\n        /* \"#utility.yul\":22536:22540   */\n      dup6\n        /* \"#utility.yul\":22490:22557   */\n      tag_181\n      jump\t// in\n    tag_402:\n        /* \"#utility.yul\":22584:22585   */\n      0x00\n        /* \"#utility.yul\":22608:22612   */\n      0x20\n        /* \"#utility.yul\":22595:22612   */\n      swap1\n      pop\n        /* \"#utility.yul\":22640:22642   */\n      0x1f\n        /* \"#utility.yul\":22632:22638   */\n      dup4\n        /* \"#utility.yul\":22629:22643   */\n      gt\n        /* \"#utility.yul\":22657:22658   */\n      0x01\n        /* \"#utility.yul\":22652:23270   */\n      dup2\n      eq\n      tag_404\n      jumpi\n        /* \"#utility.yul\":23314:23315   */\n      0x00\n        /* \"#utility.yul\":23331:23337   */\n      dup5\n        /* \"#utility.yul\":23328:23405   */\n      iszero\n      tag_405\n      jumpi\n        /* \"#utility.yul\":23380:23389   */\n      dup3\n        /* \"#utility.yul\":23375:23378   */\n      dup8\n        /* \"#utility.yul\":23371:23390   */\n      add\n        /* \"#utility.yul\":23365:23391   */\n      mload\n        /* \"#utility.yul\":23356:23391   */\n      swap1\n      pop\n        /* \"#utility.yul\":23328:23405   */\n    tag_405:\n        /* \"#utility.yul\":23431:23498   */\n      tag_406\n        /* \"#utility.yul\":23491:23497   */\n      dup6\n        /* \"#utility.yul\":23484:23489   */\n      dup3\n        /* \"#utility.yul\":23431:23498   */\n      tag_184\n      jump\t// in\n    tag_406:\n        /* \"#utility.yul\":23425:23429   */\n      dup7\n        /* \"#utility.yul\":23418:23499   */\n      sstore\n        /* \"#utility.yul\":23287:23509   */\n      pop\n        /* \"#utility.yul\":22622:23509   */\n      jump(tag_403)\n        /* \"#utility.yul\":22652:23270   */\n    tag_404:\n        /* \"#utility.yul\":22704:22708   */\n      0x1f\n        /* \"#utility.yul\":22700:22709   */\n      not\n        /* \"#utility.yul\":22692:22698   */\n      dup5\n        /* \"#utility.yul\":22688:22710   */\n      and\n        /* \"#utility.yul\":22738:22775   */\n      tag_407\n        /* \"#utility.yul\":22770:22774   */\n      dup7\n        /* \"#utility.yul\":22738:22775   */\n      tag_170\n      jump\t// in\n    tag_407:\n        /* \"#utility.yul\":22797:22798   */\n      0x00\n        /* \"#utility.yul\":22811:23019   */\n    tag_408:\n        /* \"#utility.yul\":22825:22832   */\n      dup3\n        /* \"#utility.yul\":22822:22823   */\n      dup2\n        /* \"#utility.yul\":22819:22833   */\n      lt\n        /* \"#utility.yul\":22811:23019   */\n      iszero\n      tag_410\n      jumpi\n        /* \"#utility.yul\":22904:22913   */\n      dup5\n        /* \"#utility.yul\":22899:22902   */\n      dup10\n        /* \"#utility.yul\":22895:22914   */\n      add\n        /* \"#utility.yul\":22889:22915   */\n      mload\n        /* \"#utility.yul\":22881:22887   */\n      dup3\n        /* \"#utility.yul\":22874:22916   */\n      sstore\n        /* \"#utility.yul\":22955:22956   */\n      0x01\n        /* \"#utility.yul\":22947:22953   */\n      dup3\n        /* \"#utility.yul\":22943:22957   */\n      add\n        /* \"#utility.yul\":22933:22957   */\n      swap2\n      pop\n        /* \"#utility.yul\":23002:23004   */\n      0x20\n        /* \"#utility.yul\":22991:23000   */\n      dup6\n        /* \"#utility.yul\":22987:23005   */\n      add\n        /* \"#utility.yul\":22974:23005   */\n      swap5\n      pop\n        /* \"#utility.yul\":22848:22852   */\n      0x20\n        /* \"#utility.yul\":22845:22846   */\n      dup2\n        /* \"#utility.yul\":22841:22853   */\n      add\n        /* \"#utility.yul\":22836:22853   */\n      swap1\n      pop\n        /* \"#utility.yul\":22811:23019   */\n      jump(tag_408)\n    tag_410:\n        /* \"#utility.yul\":23047:23053   */\n      dup7\n        /* \"#utility.yul\":23038:23045   */\n      dup4\n        /* \"#utility.yul\":23035:23054   */\n      lt\n        /* \"#utility.yul\":23032:23211   */\n      iszero\n      tag_411\n      jumpi\n        /* \"#utility.yul\":23105:23114   */\n      dup5\n        /* \"#utility.yul\":23100:23103   */\n      dup10\n        /* \"#utility.yul\":23096:23115   */\n      add\n        /* \"#utility.yul\":23090:23116   */\n      mload\n        /* \"#utility.yul\":23148:23196   */\n      tag_412\n        /* \"#utility.yul\":23190:23194   */\n      0x1f\n        /* \"#utility.yul\":23182:23188   */\n      dup10\n        /* \"#utility.yul\":23178:23195   */\n      and\n        /* \"#utility.yul\":23167:23176   */\n      dup3\n        /* \"#utility.yul\":23148:23196   */\n      tag_183\n      jump\t// in\n    tag_412:\n        /* \"#utility.yul\":23140:23146   */\n      dup4\n        /* \"#utility.yul\":23133:23197   */\n      sstore\n        /* \"#utility.yul\":23055:23211   */\n      pop\n        /* \"#utility.yul\":23032:23211   */\n    tag_411:\n        /* \"#utility.yul\":23257:23258   */\n      0x01\n        /* \"#utility.yul\":23253:23254   */\n      0x02\n        /* \"#utility.yul\":23245:23251   */\n      dup9\n        /* \"#utility.yul\":23241:23255   */\n      mul\n        /* \"#utility.yul\":23237:23259   */\n      add\n        /* \"#utility.yul\":23231:23235   */\n      dup9\n        /* \"#utility.yul\":23224:23260   */\n      sstore\n        /* \"#utility.yul\":22659:23270   */\n      pop\n      pop\n      pop\n        /* \"#utility.yul\":22622:23509   */\n    tag_403:\n      pop\n        /* \"#utility.yul\":22212:23515   */\n      pop\n      pop\n      pop\n        /* \"#utility.yul\":22120:23515   */\n      pop\n      pop\n      jump\t// out\n\n    auxdata: 0xa2646970667358221220ebd2e7b815f3f2e7442f3f3f79fd046e0fb6309dc9429609f2e44c69e8b74f4d64736f6c634300081e0033\n}\n",
				"bytecode": {
					"linkReferences": {},
					"object": "60806040526101185f5f6101000a81548161ffff021916908361ffff160217905550348015602b575f5ffd5b50335f60026101000a81548173ffffffffffffffffffffffffffffffffffffffff021916908373ffffffffffffffffffffffffffffffffffffffff16021790555061171f806100795f395ff3fe608060405234801561000f575f5ffd5b5060043610610086575f3560e01c80636c02e8b7116100595780636c02e8b7146101125780637c9cd2bc14610130578063b64988b81461014c578063c3ad5ecb1461017c57610086565b806305a1b4a91461008a5780633d9b569f146100be57806358bfa4ab146100da57806363378216146100f6575b5f5ffd5b6100a4600480360381019061009f9190610bd1565b6101ac565b6040516100b5959493929190610c9d565b60405180910390f35b6100d860048036038101906100d39190610bd1565b61029d565b005b6100f460048036038101906100ef9190610d2c565b610453565b005b610110600480360381019061010b9190610bd1565b610500565b005b61011a610616565b6040516101279190610d66565b60405180910390f35b61014a60048036038101906101459190610eab565b610628565b005b61016660048036038101906101619190610ef2565b6107e0565b60405161017391906110b1565b60405180910390f35b610196600480360381019061019191906110d1565b61097b565b6040516101a3919061116f565b60405180910390f35b6001602052815f5260405f2081815481106101c5575f80fd5b905f5260205f2090600502015f9150915050805f015490806001015f9054906101000a900473ffffffffffffffffffffffffffffffffffffffff1690806002018054610210906111bc565b80601f016020809104026020016040519081016040528092919081815260200182805461023c906111bc565b80156102875780601f1061025e57610100808354040283529160200191610287565b820191905f5260205f20905b81548152906001019060200180831161026a57829003601f168201915b5050505050908060030154908060040154905085565b8060015f8473ffffffffffffffffffffffffffffffffffffffff1673ffffffffffffffffffffffffffffffffffffffff1681526020019081526020015f2082815481106102ed576102ec6111ec565b5b905f5260205f2090600502015f01541461033c576040517f08c379a000000000000000000000000000000000000000000000000000000000815260040161033390611263565b60405180910390fd5b5f60015f8473ffffffffffffffffffffffffffffffffffffffff1673ffffffffffffffffffffffffffffffffffffffff1681526020019081526020015f20828154811061038c5761038b6111ec565b5b905f5260205f20906005020160040154116103dc576040517f08c379a00000000000000000000000000000000000000000000000000000000081526004016103d3906112cb565b60405180910390fd5b60015f8373ffffffffffffffffffffffffffffffffffffffff1673ffffffffffffffffffffffffffffffffffffffff1681526020019081526020015f20818154811061042b5761042a6111ec565b5b905f5260205f2090600502016004015f81548092919061044a90611316565b91905055505050565b5f60029054906101000a900473ffffffffffffffffffffffffffffffffffffffff1673ffffffffffffffffffffffffffffffffffffffff163373ffffffffffffffffffffffffffffffffffffffff16146104e2576040517f08c379a00000000000000000000000000000000000000000000000000000000081526004016104d9906113ad565b60405180910390fd5b805f5f6101000a81548161ffff021916908361ffff16021790555050565b8060015f8473ffffffffffffffffffffffffffffffffffffffff1673ffffffffffffffffffffffffffffffffffffffff1681526020019081526020015f2082815481106105505761054f6111ec565b5b905f5260205f2090600502015f01541461059f576040517f08c379a000000000000000000000000000000000000000000000000000000000815260040161059690611263565b60405180910390fd5b60015f8373ffffffffffffffffffffffffffffffffffffffff1673ffffffffffffffffffffffffffffffffffffffff1681526020019081526020015f2081815481106105ee576105ed6111ec565b5b905f5260205f2090600502016004015f81548092919061060d906113cb565b91905055505050565b5f5f9054906101000a900461ffff1681565b5f5f9054906101000a900461ffff1661ffff168151111561067e576040517f08c379a00000000000000000000000000000000000000000000000000000000081526004016106759061145c565b60405180910390fd5b5f6040518060a0016040528060015f3373ffffffffffffffffffffffffffffffffffffffff1673ffffffffffffffffffffffffffffffffffffffff1681526020019081526020015f208054905081526020013373ffffffffffffffffffffffffffffffffffffffff1681526020018381526020014281526020015f815250905060015f3373ffffffffffffffffffffffffffffffffffffffff1673ffffffffffffffffffffffffffffffffffffffff1681526020019081526020015f2081908060018154018082558091505060019003905f5260205f2090600502015f909190919091505f820151815f01556020820151816001015f6101000a81548173ffffffffffffffffffffffffffffffffffffffff021916908373ffffffffffffffffffffffffffffffffffffffff16021790555060408201518160020190816107c5919061161a565b50606082015181600301556080820151816004015550505050565b606060015f8373ffffffffffffffffffffffffffffffffffffffff1673ffffffffffffffffffffffffffffffffffffffff1681526020019081526020015f20805480602002602001604051908101604052809291908181526020015f905b82821015610970578382905f5260205f2090600502016040518060a00160405290815f8201548152602001600182015f9054906101000a900473ffffffffffffffffffffffffffffffffffffffff1673ffffffffffffffffffffffffffffffffffffffff1673ffffffffffffffffffffffffffffffffffffffff1681526020016002820180546108cd906111bc565b80601f01602080910402602001604051908101604052809291908181526020018280546108f9906111bc565b80156109445780601f1061091b57610100808354040283529160200191610944565b820191905f5260205f20905b81548152906001019060200180831161092757829003601f168201915b50505050508152602001600382015481526020016004820154815250508152602001906001019061083e565b505050509050919050565b610983610af2565b60015f3373ffffffffffffffffffffffffffffffffffffffff1673ffffffffffffffffffffffffffffffffffffffff1681526020019081526020015f2082815481106109d2576109d16111ec565b5b905f5260205f2090600502016040518060a00160405290815f8201548152602001600182015f9054906101000a900473ffffffffffffffffffffffffffffffffffffffff1673ffffffffffffffffffffffffffffffffffffffff1673ffffffffffffffffffffffffffffffffffffffff168152602001600282018054610a57906111bc565b80601f0160208091040260200160405190810160405280929190818152602001828054610a83906111bc565b8015610ace5780601f10610aa557610100808354040283529160200191610ace565b820191905f5260205f20905b815481529060010190602001808311610ab157829003601f168201915b50505050508152602001600382015481526020016004820154815250509050919050565b6040518060a001604052805f81526020015f73ffffffffffffffffffffffffffffffffffffffff168152602001606081526020015f81526020015f81525090565b5f604051905090565b5f5ffd5b5f5ffd5b5f73ffffffffffffffffffffffffffffffffffffffff82169050919050565b5f610b6d82610b44565b9050919050565b610b7d81610b63565b8114610b87575f5ffd5b50565b5f81359050610b9881610b74565b92915050565b5f819050919050565b610bb081610b9e565b8114610bba575f5ffd5b50565b5f81359050610bcb81610ba7565b92915050565b5f5f60408385031215610be757610be6610b3c565b5b5f610bf485828601610b8a565b9250506020610c0585828601610bbd565b9150509250929050565b610c1881610b9e565b82525050565b610c2781610b63565b82525050565b5f81519050919050565b5f82825260208201905092915050565b8281835e5f83830152505050565b5f601f19601f8301169050919050565b5f610c6f82610c2d565b610c798185610c37565b9350610c89818560208601610c47565b610c9281610c55565b840191505092915050565b5f60a082019050610cb05f830188610c0f565b610cbd6020830187610c1e565b8181036040830152610ccf8186610c65565b9050610cde6060830185610c0f565b610ceb6080830184610c0f565b9695505050505050565b5f61ffff82169050919050565b610d0b81610cf5565b8114610d15575f5ffd5b50565b5f81359050610d2681610d02565b92915050565b5f60208284031215610d4157610d40610b3c565b5b5f610d4e84828501610d18565b91505092915050565b610d6081610cf5565b82525050565b5f602082019050610d795f830184610d57565b92915050565b5f5ffd5b5f5ffd5b7f4e487b71000000000000000000000000000000000000000000000000000000005f52604160045260245ffd5b610dbd82610c55565b810181811067ffffffffffffffff82111715610ddc57610ddb610d87565b5b80604052505050565b5f610dee610b33565b9050610dfa8282610db4565b919050565b5f67ffffffffffffffff821115610e1957610e18610d87565b5b610e2282610c55565b9050602081019050919050565b828183375f83830152505050565b5f610e4f610e4a84610dff565b610de5565b905082815260208101848484011115610e6b57610e6a610d83565b5b610e76848285610e2f565b509392505050565b5f82601f830112610e9257610e91610d7f565b5b8135610ea2848260208601610e3d565b91505092915050565b5f60208284031215610ec057610ebf610b3c565b5b5f82013567ffffffffffffffff811115610edd57610edc610b40565b5b610ee984828501610e7e565b91505092915050565b5f60208284031215610f0757610f06610b3c565b5b5f610f1484828501610b8a565b91505092915050565b5f81519050919050565b5f82825260208201905092915050565b5f819050602082019050919050565b610f4f81610b9e565b82525050565b610f5e81610b63565b82525050565b5f82825260208201905092915050565b5f610f7e82610c2d565b610f888185610f64565b9350610f98818560208601610c47565b610fa181610c55565b840191505092915050565b5f60a083015f830151610fc15f860182610f46565b506020830151610fd46020860182610f55565b5060408301518482036040860152610fec8282610f74565b91505060608301516110016060860182610f46565b5060808301516110146080860182610f46565b508091505092915050565b5f61102a8383610fac565b905092915050565b5f602082019050919050565b5f61104882610f1d565b6110528185610f27565b93508360208202850161106485610f37565b805f5b8581101561109f5784840389528151611080858261101f565b945061108b83611032565b925060208a01995050600181019050611067565b50829750879550505050505092915050565b5f6020820190508181035f8301526110c9818461103e565b905092915050565b5f602082840312156110e6576110e5610b3c565b5b5f6110f384828501610bbd565b91505092915050565b5f60a083015f8301516111115f860182610f46565b5060208301516111246020860182610f55565b506040830151848203604086015261113c8282610f74565b91505060608301516111516060860182610f46565b5060808301516111646080860182610f46565b508091505092915050565b5f6020820190508181035f83015261118781846110fc565b905092915050565b7f4e487b71000000000000000000000000000000000000000000000000000000005f52602260045260245ffd5b5f60028204905060018216806111d357607f821691505b6020821081036111e6576111e561118f565b5b50919050565b7f4e487b71000000000000000000000000000000000000000000000000000000005f52603260045260245ffd5b7f496c207477656574206e6f6e20657369737465000000000000000000000000005f82015250565b5f61124d601383610c37565b915061125882611219565b602082019050919050565b5f6020820190508181035f83015261127a81611241565b9050919050565b7f496c20747765657420686120676961272030206c696b657300000000000000005f82015250565b5f6112b5601883610c37565b91506112c082611281565b602082019050919050565b5f6020820190508181035f8301526112e2816112a9565b9050919050565b7f4e487b71000000000000000000000000000000000000000000000000000000005f52601160045260245ffd5b5f61132082610b9e565b91505f8203611332576113316112e9565b5b600182039050919050565b7f4e6f6e2073656920696c2070726f70726965746172696f2064656c20636f6e745f8201527f726174746f000000000000000000000000000000000000000000000000000000602082015250565b5f611397602583610c37565b91506113a28261133d565b604082019050919050565b5f6020820190508181035f8301526113c48161138b565b9050919050565b5f6113d582610b9e565b91507fffffffffffffffffffffffffffffffffffffffffffffffffffffffffffffffff8203611407576114066112e9565b5b600182019050919050565b7f696c2054776565742065272074726f70706f206772616e6465000000000000005f82015250565b5f611446601983610c37565b915061145182611412565b602082019050919050565b5f6020820190508181035f8301526114738161143a565b9050919050565b5f819050815f5260205f209050919050565b5f6020601f8301049050919050565b5f82821b905092915050565b5f600883026114d67fffffffffffffffffffffffffffffffffffffffffffffffffffffffffffffffff8261149b565b6114e0868361149b565b95508019841693508086168417925050509392505050565b5f819050919050565b5f61151b61151661151184610b9e565b6114f8565b610b9e565b9050919050565b5f819050919050565b61153483611501565b61154861154082611522565b8484546114a7565b825550505050565b5f5f905090565b61155f611550565b61156a81848461152b565b505050565b5b8181101561158d576115825f82611557565b600181019050611570565b5050565b601f8211156115d2576115a38161147a565b6115ac8461148c565b810160208510156115bb578190505b6115cf6115c78561148c565b83018261156f565b50505b505050565b5f82821c905092915050565b5f6115f25f19846008026115d7565b1980831691505092915050565b5f61160a83836115e3565b9150826002028217905092915050565b61162382610c2d565b67ffffffffffffffff81111561163c5761163b610d87565b5b61164682546111bc565b611651828285611591565b5f60209050601f831160018114611682575f8415611670578287015190505b61167a85826115ff565b8655506116e1565b601f1984166116908661147a565b5f5b828110156116b757848901518255600182019150602085019450602081019050611692565b868310156116d457848901516116d0601f8916826115e3565b8355505b6001600288020188555050505b50505050505056fea2646970667358221220ebd2e7b815f3f2e7442f3f3f79fd046e0fb6309dc9429609f2e44c69e8b74f4d64736f6c634300081e0033",
					"opcodes": "PUSH1 0x80 PUSH1 0x40 MSTORE PUSH2 0x118 PUSH0 PUSH0 PUSH2 0x100 EXP DUP2 SLOAD DUP2 PUSH2 0xFFFF MUL NOT AND SWAP1 DUP4 PUSH2 0xFFFF AND MUL OR SWAP1 SSTORE POP CALLVALUE DUP1 ISZERO PUSH1 0x2B JUMPI PUSH0 PUSH0 REVERT JUMPDEST POP CALLER PUSH0 PUSH1 0x2 PUSH2 0x100 EXP DUP2 SLOAD DUP2 PUSH20 0xFFFFFFFFFFFFFFFFFFFFFFFFFFFFFFFFFFFFFFFF MUL NOT AND SWAP1 DUP4 PUSH20 0xFFFFFFFFFFFFFFFFFFFFFFFFFFFFFFFFFFFFFFFF AND MUL OR SWAP1 SSTORE POP PUSH2 0x171F DUP1 PUSH2 0x79 PUSH0 CODECOPY PUSH0 RETURN INVALID PUSH1 0x80 PUSH1 0x40 MSTORE CALLVALUE DUP1 ISZERO PUSH2 0xF JUMPI PUSH0 PUSH0 REVERT JUMPDEST POP PUSH1 0x4 CALLDATASIZE LT PUSH2 0x86 JUMPI PUSH0 CALLDATALOAD PUSH1 0xE0 SHR DUP1 PUSH4 0x6C02E8B7 GT PUSH2 0x59 JUMPI DUP1 PUSH4 0x6C02E8B7 EQ PUSH2 0x112 JUMPI DUP1 PUSH4 0x7C9CD2BC EQ PUSH2 0x130 JUMPI DUP1 PUSH4 0xB64988B8 EQ PUSH2 0x14C JUMPI DUP1 PUSH4 0xC3AD5ECB EQ PUSH2 0x17C JUMPI PUSH2 0x86 JUMP JUMPDEST DUP1 PUSH4 0x5A1B4A9 EQ PUSH2 0x8A JUMPI DUP1 PUSH4 0x3D9B569F EQ PUSH2 0xBE JUMPI DUP1 PUSH4 0x58BFA4AB EQ PUSH2 0xDA JUMPI DUP1 PUSH4 0x63378216 EQ PUSH2 0xF6 JUMPI JUMPDEST PUSH0 PUSH0 REVERT JUMPDEST PUSH2 0xA4 PUSH1 0x4 DUP1 CALLDATASIZE SUB DUP2 ADD SWAP1 PUSH2 0x9F SWAP2 SWAP1 PUSH2 0xBD1 JUMP JUMPDEST PUSH2 0x1AC JUMP JUMPDEST PUSH1 0x40 MLOAD PUSH2 0xB5 SWAP6 SWAP5 SWAP4 SWAP3 SWAP2 SWAP1 PUSH2 0xC9D JUMP JUMPDEST PUSH1 0x40 MLOAD DUP1 SWAP2 SUB SWAP1 RETURN JUMPDEST PUSH2 0xD8 PUSH1 0x4 DUP1 CALLDATASIZE SUB DUP2 ADD SWAP1 PUSH2 0xD3 SWAP2 SWAP1 PUSH2 0xBD1 JUMP JUMPDEST PUSH2 0x29D JUMP JUMPDEST STOP JUMPDEST PUSH2 0xF4 PUSH1 0x4 DUP1 CALLDATASIZE SUB DUP2 ADD SWAP1 PUSH2 0xEF SWAP2 SWAP1 PUSH2 0xD2C JUMP JUMPDEST PUSH2 0x453 JUMP JUMPDEST STOP JUMPDEST PUSH2 0x110 PUSH1 0x4 DUP1 CALLDATASIZE SUB DUP2 ADD SWAP1 PUSH2 0x10B SWAP2 SWAP1 PUSH2 0xBD1 JUMP JUMPDEST PUSH2 0x500 JUMP JUMPDEST STOP JUMPDEST PUSH2 0x11A PUSH2 0x616 JUMP JUMPDEST PUSH1 0x40 MLOAD PUSH2 0x127 SWAP2 SWAP1 PUSH2 0xD66 JUMP JUMPDEST PUSH1 0x40 MLOAD DUP1 SWAP2 SUB SWAP1 RETURN JUMPDEST PUSH2 0x14A PUSH1 0x4 DUP1 CALLDATASIZE SUB DUP2 ADD SWAP1 PUSH2 0x145 SWAP2 SWAP1 PUSH2 0xEAB JUMP JUMPDEST PUSH2 0x628 JUMP JUMPDEST STOP JUMPDEST PUSH2 0x166 PUSH1 0x4 DUP1 CALLDATASIZE SUB DUP2 ADD SWAP1 PUSH2 0x161 SWAP2 SWAP1 PUSH2 0xEF2 JUMP JUMPDEST PUSH2 0x7E0 JUMP JUMPDEST PUSH1 0x40 MLOAD PUSH2 0x173 SWAP2 SWAP1 PUSH2 0x10B1 JUMP JUMPDEST PUSH1 0x40 MLOAD DUP1 SWAP2 SUB SWAP1 RETURN JUMPDEST PUSH2 0x196 PUSH1 0x4 DUP1 CALLDATASIZE SUB DUP2 ADD SWAP1 PUSH2 0x191 SWAP2 SWAP1 PUSH2 0x10D1 JUMP JUMPDEST PUSH2 0x97B JUMP JUMPDEST PUSH1 0x40 MLOAD PUSH2 0x1A3 SWAP2 SWAP1 PUSH2 0x116F JUMP JUMPDEST PUSH1 0x40 MLOAD DUP1 SWAP2 SUB SWAP1 RETURN JUMPDEST PUSH1 0x1 PUSH1 0x20 MSTORE DUP2 PUSH0 MSTORE PUSH1 0x40 PUSH0 KECCAK256 DUP2 DUP2 SLOAD DUP2 LT PUSH2 0x1C5 JUMPI PUSH0 DUP1 REVERT JUMPDEST SWAP1 PUSH0 MSTORE PUSH1 0x20 PUSH0 KECCAK256 SWAP1 PUSH1 0x5 MUL ADD PUSH0 SWAP2 POP SWAP2 POP POP DUP1 PUSH0 ADD SLOAD SWAP1 DUP1 PUSH1 0x1 ADD PUSH0 SWAP1 SLOAD SWAP1 PUSH2 0x100 EXP SWAP1 DIV PUSH20 0xFFFFFFFFFFFFFFFFFFFFFFFFFFFFFFFFFFFFFFFF AND SWAP1 DUP1 PUSH1 0x2 ADD DUP1 SLOAD PUSH2 0x210 SWAP1 PUSH2 0x11BC JUMP JUMPDEST DUP1 PUSH1 0x1F ADD PUSH1 0x20 DUP1 SWAP2 DIV MUL PUSH1 0x20 ADD PUSH1 0x40 MLOAD SWAP1 DUP2 ADD PUSH1 0x40 MSTORE DUP1 SWAP3 SWAP2 SWAP1 DUP2 DUP2 MSTORE PUSH1 0x20 ADD DUP3 DUP1 SLOAD PUSH2 0x23C SWAP1 PUSH2 0x11BC JUMP JUMPDEST DUP1 ISZERO PUSH2 0x287 JUMPI DUP1 PUSH1 0x1F LT PUSH2 0x25E JUMPI PUSH2 0x100 DUP1 DUP4 SLOAD DIV MUL DUP4 MSTORE SWAP2 PUSH1 0x20 ADD SWAP2 PUSH2 0x287 JUMP JUMPDEST DUP3 ADD SWAP2 SWAP1 PUSH0 MSTORE PUSH1 0x20 PUSH0 KECCAK256 SWAP1 JUMPDEST DUP2 SLOAD DUP2 MSTORE SWAP1 PUSH1 0x1 ADD SWAP1 PUSH1 0x20 ADD DUP1 DUP4 GT PUSH2 0x26A JUMPI DUP3 SWAP1 SUB PUSH1 0x1F AND DUP3 ADD SWAP2 JUMPDEST POP POP POP POP POP SWAP1 DUP1 PUSH1 0x3 ADD SLOAD SWAP1 DUP1 PUSH1 0x4 ADD SLOAD SWAP1 POP DUP6 JUMP JUMPDEST DUP1 PUSH1 0x1 PUSH0 DUP5 PUSH20 0xFFFFFFFFFFFFFFFFFFFFFFFFFFFFFFFFFFFFFFFF AND PUSH20 0xFFFFFFFFFFFFFFFFFFFFFFFFFFFFFFFFFFFFFFFF AND DUP2 MSTORE PUSH1 0x20 ADD SWAP1 DUP2 MSTORE PUSH1 0x20 ADD PUSH0 KECCAK256 DUP3 DUP2 SLOAD DUP2 LT PUSH2 0x2ED JUMPI PUSH2 0x2EC PUSH2 0x11EC JUMP JUMPDEST JUMPDEST SWAP1 PUSH0 MSTORE PUSH1 0x20 PUSH0 KECCAK256 SWAP1 PUSH1 0x5 MUL ADD PUSH0 ADD SLOAD EQ PUSH2 0x33C JUMPI PUSH1 0x40 MLOAD PUSH32 0x8C379A000000000000000000000000000000000000000000000000000000000 DUP2 MSTORE PUSH1 0x4 ADD PUSH2 0x333 SWAP1 PUSH2 0x1263 JUMP JUMPDEST PUSH1 0x40 MLOAD DUP1 SWAP2 SUB SWAP1 REVERT JUMPDEST PUSH0 PUSH1 0x1 PUSH0 DUP5 PUSH20 0xFFFFFFFFFFFFFFFFFFFFFFFFFFFFFFFFFFFFFFFF AND PUSH20 0xFFFFFFFFFFFFFFFFFFFFFFFFFFFFFFFFFFFFFFFF AND DUP2 MSTORE PUSH1 0x20 ADD SWAP1 DUP2 MSTORE PUSH1 0x20 ADD PUSH0 KECCAK256 DUP3 DUP2 SLOAD DUP2 LT PUSH2 0x38C JUMPI PUSH2 0x38B PUSH2 0x11EC JUMP JUMPDEST JUMPDEST SWAP1 PUSH0 MSTORE PUSH1 0x20 PUSH0 KECCAK256 SWAP1 PUSH1 0x5 MUL ADD PUSH1 0x4 ADD SLOAD GT PUSH2 0x3DC JUMPI PUSH1 0x40 MLOAD PUSH32 0x8C379A000000000000000000000000000000000000000000000000000000000 DUP2 MSTORE PUSH1 0x4 ADD PUSH2 0x3D3 SWAP1 PUSH2 0x12CB JUMP JUMPDEST PUSH1 0x40 MLOAD DUP1 SWAP2 SUB SWAP1 REVERT JUMPDEST PUSH1 0x1 PUSH0 DUP4 PUSH20 0xFFFFFFFFFFFFFFFFFFFFFFFFFFFFFFFFFFFFFFFF AND PUSH20 0xFFFFFFFFFFFFFFFFFFFFFFFFFFFFFFFFFFFFFFFF AND DUP2 MSTORE PUSH1 0x20 ADD SWAP1 DUP2 MSTORE PUSH1 0x20 ADD PUSH0 KECCAK256 DUP2 DUP2 SLOAD DUP2 LT PUSH2 0x42B JUMPI PUSH2 0x42A PUSH2 0x11EC JUMP JUMPDEST JUMPDEST SWAP1 PUSH0 MSTORE PUSH1 0x20 PUSH0 KECCAK256 SWAP1 PUSH1 0x5 MUL ADD PUSH1 0x4 ADD PUSH0 DUP2 SLOAD DUP1 SWAP3 SWAP2 SWAP1 PUSH2 0x44A SWAP1 PUSH2 0x1316 JUMP JUMPDEST SWAP2 SWAP1 POP SSTORE POP POP POP JUMP JUMPDEST PUSH0 PUSH1 0x2 SWAP1 SLOAD SWAP1 PUSH2 0x100 EXP SWAP1 DIV PUSH20 0xFFFFFFFFFFFFFFFFFFFFFFFFFFFFFFFFFFFFFFFF AND PUSH20 0xFFFFFFFFFFFFFFFFFFFFFFFFFFFFFFFFFFFFFFFF AND CALLER PUSH20 0xFFFFFFFFFFFFFFFFFFFFFFFFFFFFFFFFFFFFFFFF AND EQ PUSH2 0x4E2 JUMPI PUSH1 0x40 MLOAD PUSH32 0x8C379A000000000000000000000000000000000000000000000000000000000 DUP2 MSTORE PUSH1 0x4 ADD PUSH2 0x4D9 SWAP1 PUSH2 0x13AD JUMP JUMPDEST PUSH1 0x40 MLOAD DUP1 SWAP2 SUB SWAP1 REVERT JUMPDEST DUP1 PUSH0 PUSH0 PUSH2 0x100 EXP DUP2 SLOAD DUP2 PUSH2 0xFFFF MUL NOT AND SWAP1 DUP4 PUSH2 0xFFFF AND MUL OR SWAP1 SSTORE POP POP JUMP JUMPDEST DUP1 PUSH1 0x1 PUSH0 DUP5 PUSH20 0xFFFFFFFFFFFFFFFFFFFFFFFFFFFFFFFFFFFFFFFF AND PUSH20 0xFFFFFFFFFFFFFFFFFFFFFFFFFFFFFFFFFFFFFFFF AND DUP2 MSTORE PUSH1 0x20 ADD SWAP1 DUP2 MSTORE PUSH1 0x20 ADD PUSH0 KECCAK256 DUP3 DUP2 SLOAD DUP2 LT PUSH2 0x550 JUMPI PUSH2 0x54F PUSH2 0x11EC JUMP JUMPDEST JUMPDEST SWAP1 PUSH0 MSTORE PUSH1 0x20 PUSH0 KECCAK256 SWAP1 PUSH1 0x5 MUL ADD PUSH0 ADD SLOAD EQ PUSH2 0x59F JUMPI PUSH1 0x40 MLOAD PUSH32 0x8C379A000000000000000000000000000000000000000000000000000000000 DUP2 MSTORE PUSH1 0x4 ADD PUSH2 0x596 SWAP1 PUSH2 0x1263 JUMP JUMPDEST PUSH1 0x40 MLOAD DUP1 SWAP2 SUB SWAP1 REVERT JUMPDEST PUSH1 0x1 PUSH0 DUP4 PUSH20 0xFFFFFFFFFFFFFFFFFFFFFFFFFFFFFFFFFFFFFFFF AND PUSH20 0xFFFFFFFFFFFFFFFFFFFFFFFFFFFFFFFFFFFFFFFF AND DUP2 MSTORE PUSH1 0x20 ADD SWAP1 DUP2 MSTORE PUSH1 0x20 ADD PUSH0 KECCAK256 DUP2 DUP2 SLOAD DUP2 LT PUSH2 0x5EE JUMPI PUSH2 0x5ED PUSH2 0x11EC JUMP JUMPDEST JUMPDEST SWAP1 PUSH0 MSTORE PUSH1 0x20 PUSH0 KECCAK256 SWAP1 PUSH1 0x5 MUL ADD PUSH1 0x4 ADD PUSH0 DUP2 SLOAD DUP1 SWAP3 SWAP2 SWAP1 PUSH2 0x60D SWAP1 PUSH2 0x13CB JUMP JUMPDEST SWAP2 SWAP1 POP SSTORE POP POP POP JUMP JUMPDEST PUSH0 PUSH0 SWAP1 SLOAD SWAP1 PUSH2 0x100 EXP SWAP1 DIV PUSH2 0xFFFF AND DUP2 JUMP JUMPDEST PUSH0 PUSH0 SWAP1 SLOAD SWAP1 PUSH2 0x100 EXP SWAP1 DIV PUSH2 0xFFFF AND PUSH2 0xFFFF AND DUP2 MLOAD GT ISZERO PUSH2 0x67E JUMPI PUSH1 0x40 MLOAD PUSH32 0x8C379A000000000000000000000000000000000000000000000000000000000 DUP2 MSTORE PUSH1 0x4 ADD PUSH2 0x675 SWAP1 PUSH2 0x145C JUMP JUMPDEST PUSH1 0x40 MLOAD DUP1 SWAP2 SUB SWAP1 REVERT JUMPDEST PUSH0 PUSH1 0x40 MLOAD DUP1 PUSH1 0xA0 ADD PUSH1 0x40 MSTORE DUP1 PUSH1 0x1 PUSH0 CALLER PUSH20 0xFFFFFFFFFFFFFFFFFFFFFFFFFFFFFFFFFFFFFFFF AND PUSH20 0xFFFFFFFFFFFFFFFFFFFFFFFFFFFFFFFFFFFFFFFF AND DUP2 MSTORE PUSH1 0x20 ADD SWAP1 DUP2 MSTORE PUSH1 0x20 ADD PUSH0 KECCAK256 DUP1 SLOAD SWAP1 POP DUP2 MSTORE PUSH1 0x20 ADD CALLER PUSH20 0xFFFFFFFFFFFFFFFFFFFFFFFFFFFFFFFFFFFFFFFF AND DUP2 MSTORE PUSH1 0x20 ADD DUP4 DUP2 MSTORE PUSH1 0x20 ADD TIMESTAMP DUP2 MSTORE PUSH1 0x20 ADD PUSH0 DUP2 MSTORE POP SWAP1 POP PUSH1 0x1 PUSH0 CALLER PUSH20 0xFFFFFFFFFFFFFFFFFFFFFFFFFFFFFFFFFFFFFFFF AND PUSH20 0xFFFFFFFFFFFFFFFFFFFFFFFFFFFFFFFFFFFFFFFF AND DUP2 MSTORE PUSH1 0x20 ADD SWAP1 DUP2 MSTORE PUSH1 0x20 ADD PUSH0 KECCAK256 DUP2 SWAP1 DUP1 PUSH1 0x1 DUP2 SLOAD ADD DUP1 DUP3 SSTORE DUP1 SWAP2 POP POP PUSH1 0x1 SWAP1 SUB SWAP1 PUSH0 MSTORE PUSH1 0x20 PUSH0 KECCAK256 SWAP1 PUSH1 0x5 MUL ADD PUSH0 SWAP1 SWAP2 SWAP1 SWAP2 SWAP1 SWAP2 POP PUSH0 DUP3 ADD MLOAD DUP2 PUSH0 ADD SSTORE PUSH1 0x20 DUP3 ADD MLOAD DUP2 PUSH1 0x1 ADD PUSH0 PUSH2 0x100 EXP DUP2 SLOAD DUP2 PUSH20 0xFFFFFFFFFFFFFFFFFFFFFFFFFFFFFFFFFFFFFFFF MUL NOT AND SWAP1 DUP4 PUSH20 0xFFFFFFFFFFFFFFFFFFFFFFFFFFFFFFFFFFFFFFFF AND MUL OR SWAP1 SSTORE POP PUSH1 0x40 DUP3 ADD MLOAD DUP2 PUSH1 0x2 ADD SWAP1 DUP2 PUSH2 0x7C5 SWAP2 SWAP1 PUSH2 0x161A JUMP JUMPDEST POP PUSH1 0x60 DUP3 ADD MLOAD DUP2 PUSH1 0x3 ADD SSTORE PUSH1 0x80 DUP3 ADD MLOAD DUP2 PUSH1 0x4 ADD SSTORE POP POP POP POP JUMP JUMPDEST PUSH1 0x60 PUSH1 0x1 PUSH0 DUP4 PUSH20 0xFFFFFFFFFFFFFFFFFFFFFFFFFFFFFFFFFFFFFFFF AND PUSH20 0xFFFFFFFFFFFFFFFFFFFFFFFFFFFFFFFFFFFFFFFF AND DUP2 MSTORE PUSH1 0x20 ADD SWAP1 DUP2 MSTORE PUSH1 0x20 ADD PUSH0 KECCAK256 DUP1 SLOAD DUP1 PUSH1 0x20 MUL PUSH1 0x20 ADD PUSH1 0x40 MLOAD SWAP1 DUP2 ADD PUSH1 0x40 MSTORE DUP1 SWAP3 SWAP2 SWAP1 DUP2 DUP2 MSTORE PUSH1 0x20 ADD PUSH0 SWAP1 JUMPDEST DUP3 DUP3 LT ISZERO PUSH2 0x970 JUMPI DUP4 DUP3 SWAP1 PUSH0 MSTORE PUSH1 0x20 PUSH0 KECCAK256 SWAP1 PUSH1 0x5 MUL ADD PUSH1 0x40 MLOAD DUP1 PUSH1 0xA0 ADD PUSH1 0x40 MSTORE SWAP1 DUP2 PUSH0 DUP3 ADD SLOAD DUP2 MSTORE PUSH1 0x20 ADD PUSH1 0x1 DUP3 ADD PUSH0 SWAP1 SLOAD SWAP1 PUSH2 0x100 EXP SWAP1 DIV PUSH20 0xFFFFFFFFFFFFFFFFFFFFFFFFFFFFFFFFFFFFFFFF AND PUSH20 0xFFFFFFFFFFFFFFFFFFFFFFFFFFFFFFFFFFFFFFFF AND PUSH20 0xFFFFFFFFFFFFFFFFFFFFFFFFFFFFFFFFFFFFFFFF AND DUP2 MSTORE PUSH1 0x20 ADD PUSH1 0x2 DUP3 ADD DUP1 SLOAD PUSH2 0x8CD SWAP1 PUSH2 0x11BC JUMP JUMPDEST DUP1 PUSH1 0x1F ADD PUSH1 0x20 DUP1 SWAP2 DIV MUL PUSH1 0x20 ADD PUSH1 0x40 MLOAD SWAP1 DUP2 ADD PUSH1 0x40 MSTORE DUP1 SWAP3 SWAP2 SWAP1 DUP2 DUP2 MSTORE PUSH1 0x20 ADD DUP3 DUP1 SLOAD PUSH2 0x8F9 SWAP1 PUSH2 0x11BC JUMP JUMPDEST DUP1 ISZERO PUSH2 0x944 JUMPI DUP1 PUSH1 0x1F LT PUSH2 0x91B JUMPI PUSH2 0x100 DUP1 DUP4 SLOAD DIV MUL DUP4 MSTORE SWAP2 PUSH1 0x20 ADD SWAP2 PUSH2 0x944 JUMP JUMPDEST DUP3 ADD SWAP2 SWAP1 PUSH0 MSTORE PUSH1 0x20 PUSH0 KECCAK256 SWAP1 JUMPDEST DUP2 SLOAD DUP2 MSTORE SWAP1 PUSH1 0x1 ADD SWAP1 PUSH1 0x20 ADD DUP1 DUP4 GT PUSH2 0x927 JUMPI DUP3 SWAP1 SUB PUSH1 0x1F AND DUP3 ADD SWAP2 JUMPDEST POP POP POP POP POP DUP2 MSTORE PUSH1 0x20 ADD PUSH1 0x3 DUP3 ADD SLOAD DUP2 MSTORE PUSH1 0x20 ADD PUSH1 0x4 DUP3 ADD SLOAD DUP2 MSTORE POP POP DUP2 MSTORE PUSH1 0x20 ADD SWAP1 PUSH1 0x1 ADD SWAP1 PUSH2 0x83E JUMP JUMPDEST POP POP POP POP SWAP1 POP SWAP2 SWAP1 POP JUMP JUMPDEST PUSH2 0x983 PUSH2 0xAF2 JUMP JUMPDEST PUSH1 0x1 PUSH0 CALLER PUSH20 0xFFFFFFFFFFFFFFFFFFFFFFFFFFFFFFFFFFFFFFFF AND PUSH20 0xFFFFFFFFFFFFFFFFFFFFFFFFFFFFFFFFFFFFFFFF AND DUP2 MSTORE PUSH1 0x20 ADD SWAP1 DUP2 MSTORE PUSH1 0x20 ADD PUSH0 KECCAK256 DUP3 DUP2 SLOAD DUP2 LT PUSH2 0x9D2 JUMPI PUSH2 0x9D1 PUSH2 0x11EC JUMP JUMPDEST JUMPDEST SWAP1 PUSH0 MSTORE PUSH1 0x20 PUSH0 KECCAK256 SWAP1 PUSH1 0x5 MUL ADD PUSH1 0x40 MLOAD DUP1 PUSH1 0xA0 ADD PUSH1 0x40 MSTORE SWAP1 DUP2 PUSH0 DUP3 ADD SLOAD DUP2 MSTORE PUSH1 0x20 ADD PUSH1 0x1 DUP3 ADD PUSH0 SWAP1 SLOAD SWAP1 PUSH2 0x100 EXP SWAP1 DIV PUSH20 0xFFFFFFFFFFFFFFFFFFFFFFFFFFFFFFFFFFFFFFFF AND PUSH20 0xFFFFFFFFFFFFFFFFFFFFFFFFFFFFFFFFFFFFFFFF AND PUSH20 0xFFFFFFFFFFFFFFFFFFFFFFFFFFFFFFFFFFFFFFFF AND DUP2 MSTORE PUSH1 0x20 ADD PUSH1 0x2 DUP3 ADD DUP1 SLOAD PUSH2 0xA57 SWAP1 PUSH2 0x11BC JUMP JUMPDEST DUP1 PUSH1 0x1F ADD PUSH1 0x20 DUP1 SWAP2 DIV MUL PUSH1 0x20 ADD PUSH1 0x40 MLOAD SWAP1 DUP2 ADD PUSH1 0x40 MSTORE DUP1 SWAP3 SWAP2 SWAP1 DUP2 DUP2 MSTORE PUSH1 0x20 ADD DUP3 DUP1 SLOAD PUSH2 0xA83 SWAP1 PUSH2 0x11BC JUMP JUMPDEST DUP1 ISZERO PUSH2 0xACE JUMPI DUP1 PUSH1 0x1F LT PUSH2 0xAA5 JUMPI PUSH2 0x100 DUP1 DUP4 SLOAD DIV MUL DUP4 MSTORE SWAP2 PUSH1 0x20 ADD SWAP2 PUSH2 0xACE JUMP JUMPDEST DUP3 ADD SWAP2 SWAP1 PUSH0 MSTORE PUSH1 0x20 PUSH0 KECCAK256 SWAP1 JUMPDEST DUP2 SLOAD DUP2 MSTORE SWAP1 PUSH1 0x1 ADD SWAP1 PUSH1 0x20 ADD DUP1 DUP4 GT PUSH2 0xAB1 JUMPI DUP3 SWAP1 SUB PUSH1 0x1F AND DUP3 ADD SWAP2 JUMPDEST POP POP POP POP POP DUP2 MSTORE PUSH1 0x20 ADD PUSH1 0x3 DUP3 ADD SLOAD DUP2 MSTORE PUSH1 0x20 ADD PUSH1 0x4 DUP3 ADD SLOAD DUP2 MSTORE POP POP SWAP1 POP SWAP2 SWAP1 POP JUMP JUMPDEST PUSH1 0x40 MLOAD DUP1 PUSH1 0xA0 ADD PUSH1 0x40 MSTORE DUP1 PUSH0 DUP2 MSTORE PUSH1 0x20 ADD PUSH0 PUSH20 0xFFFFFFFFFFFFFFFFFFFFFFFFFFFFFFFFFFFFFFFF AND DUP2 MSTORE PUSH1 0x20 ADD PUSH1 0x60 DUP2 MSTORE PUSH1 0x20 ADD PUSH0 DUP2 MSTORE PUSH1 0x20 ADD PUSH0 DUP2 MSTORE POP SWAP1 JUMP JUMPDEST PUSH0 PUSH1 0x40 MLOAD SWAP1 POP SWAP1 JUMP JUMPDEST PUSH0 PUSH0 REVERT JUMPDEST PUSH0 PUSH0 REVERT JUMPDEST PUSH0 PUSH20 0xFFFFFFFFFFFFFFFFFFFFFFFFFFFFFFFFFFFFFFFF DUP3 AND SWAP1 POP SWAP2 SWAP1 POP JUMP JUMPDEST PUSH0 PUSH2 0xB6D DUP3 PUSH2 0xB44 JUMP JUMPDEST SWAP1 POP SWAP2 SWAP1 POP JUMP JUMPDEST PUSH2 0xB7D DUP2 PUSH2 0xB63 JUMP JUMPDEST DUP2 EQ PUSH2 0xB87 JUMPI PUSH0 PUSH0 REVERT JUMPDEST POP JUMP JUMPDEST PUSH0 DUP2 CALLDATALOAD SWAP1 POP PUSH2 0xB98 DUP2 PUSH2 0xB74 JUMP JUMPDEST SWAP3 SWAP2 POP POP JUMP JUMPDEST PUSH0 DUP2 SWAP1 POP SWAP2 SWAP1 POP JUMP JUMPDEST PUSH2 0xBB0 DUP2 PUSH2 0xB9E JUMP JUMPDEST DUP2 EQ PUSH2 0xBBA JUMPI PUSH0 PUSH0 REVERT JUMPDEST POP JUMP JUMPDEST PUSH0 DUP2 CALLDATALOAD SWAP1 POP PUSH2 0xBCB DUP2 PUSH2 0xBA7 JUMP JUMPDEST SWAP3 SWAP2 POP POP JUMP JUMPDEST PUSH0 PUSH0 PUSH1 0x40 DUP4 DUP6 SUB SLT ISZERO PUSH2 0xBE7 JUMPI PUSH2 0xBE6 PUSH2 0xB3C JUMP JUMPDEST JUMPDEST PUSH0 PUSH2 0xBF4 DUP6 DUP3 DUP7 ADD PUSH2 0xB8A JUMP JUMPDEST SWAP3 POP POP PUSH1 0x20 PUSH2 0xC05 DUP6 DUP3 DUP7 ADD PUSH2 0xBBD JUMP JUMPDEST SWAP2 POP POP SWAP3 POP SWAP3 SWAP1 POP JUMP JUMPDEST PUSH2 0xC18 DUP2 PUSH2 0xB9E JUMP JUMPDEST DUP3 MSTORE POP POP JUMP JUMPDEST PUSH2 0xC27 DUP2 PUSH2 0xB63 JUMP JUMPDEST DUP3 MSTORE POP POP JUMP JUMPDEST PUSH0 DUP2 MLOAD SWAP1 POP SWAP2 SWAP1 POP JUMP JUMPDEST PUSH0 DUP3 DUP3 MSTORE PUSH1 0x20 DUP3 ADD SWAP1 POP SWAP3 SWAP2 POP POP JUMP JUMPDEST DUP3 DUP2 DUP4 MCOPY PUSH0 DUP4 DUP4 ADD MSTORE POP POP POP JUMP JUMPDEST PUSH0 PUSH1 0x1F NOT PUSH1 0x1F DUP4 ADD AND SWAP1 POP SWAP2 SWAP1 POP JUMP JUMPDEST PUSH0 PUSH2 0xC6F DUP3 PUSH2 0xC2D JUMP JUMPDEST PUSH2 0xC79 DUP2 DUP6 PUSH2 0xC37 JUMP JUMPDEST SWAP4 POP PUSH2 0xC89 DUP2 DUP6 PUSH1 0x20 DUP7 ADD PUSH2 0xC47 JUMP JUMPDEST PUSH2 0xC92 DUP2 PUSH2 0xC55 JUMP JUMPDEST DUP5 ADD SWAP2 POP POP SWAP3 SWAP2 POP POP JUMP JUMPDEST PUSH0 PUSH1 0xA0 DUP3 ADD SWAP1 POP PUSH2 0xCB0 PUSH0 DUP4 ADD DUP9 PUSH2 0xC0F JUMP JUMPDEST PUSH2 0xCBD PUSH1 0x20 DUP4 ADD DUP8 PUSH2 0xC1E JUMP JUMPDEST DUP2 DUP2 SUB PUSH1 0x40 DUP4 ADD MSTORE PUSH2 0xCCF DUP2 DUP7 PUSH2 0xC65 JUMP JUMPDEST SWAP1 POP PUSH2 0xCDE PUSH1 0x60 DUP4 ADD DUP6 PUSH2 0xC0F JUMP JUMPDEST PUSH2 0xCEB PUSH1 0x80 DUP4 ADD DUP5 PUSH2 0xC0F JUMP JUMPDEST SWAP7 SWAP6 POP POP POP POP POP POP JUMP JUMPDEST PUSH0 PUSH2 0xFFFF DUP3 AND SWAP1 POP SWAP2 SWAP1 POP JUMP JUMPDEST PUSH2 0xD0B DUP2 PUSH2 0xCF5 JUMP JUMPDEST DUP2 EQ PUSH2 0xD15 JUMPI PUSH0 PUSH0 REVERT JUMPDEST POP JUMP JUMPDEST PUSH0 DUP2 CALLDATALOAD SWAP1 POP PUSH2 0xD26 DUP2 PUSH2 0xD02 JUMP JUMPDEST SWAP3 SWAP2 POP POP JUMP JUMPDEST PUSH0 PUSH1 0x20 DUP3 DUP5 SUB SLT ISZERO PUSH2 0xD41 JUMPI PUSH2 0xD40 PUSH2 0xB3C JUMP JUMPDEST JUMPDEST PUSH0 PUSH2 0xD4E DUP5 DUP3 DUP6 ADD PUSH2 0xD18 JUMP JUMPDEST SWAP2 POP POP SWAP3 SWAP2 POP POP JUMP JUMPDEST PUSH2 0xD60 DUP2 PUSH2 0xCF5 JUMP JUMPDEST DUP3 MSTORE POP POP JUMP JUMPDEST PUSH0 PUSH1 0x20 DUP3 ADD SWAP1 POP PUSH2 0xD79 PUSH0 DUP4 ADD DUP5 PUSH2 0xD57 JUMP JUMPDEST SWAP3 SWAP2 POP POP JUMP JUMPDEST PUSH0 PUSH0 REVERT JUMPDEST PUSH0 PUSH0 REVERT JUMPDEST PUSH32 0x4E487B7100000000000000000000000000000000000000000000000000000000 PUSH0 MSTORE PUSH1 0x41 PUSH1 0x4 MSTORE PUSH1 0x24 PUSH0 REVERT JUMPDEST PUSH2 0xDBD DUP3 PUSH2 0xC55 JUMP JUMPDEST DUP2 ADD DUP2 DUP2 LT PUSH8 0xFFFFFFFFFFFFFFFF DUP3 GT OR ISZERO PUSH2 0xDDC JUMPI PUSH2 0xDDB PUSH2 0xD87 JUMP JUMPDEST JUMPDEST DUP1 PUSH1 0x40 MSTORE POP POP POP JUMP JUMPDEST PUSH0 PUSH2 0xDEE PUSH2 0xB33 JUMP JUMPDEST SWAP1 POP PUSH2 0xDFA DUP3 DUP3 PUSH2 0xDB4 JUMP JUMPDEST SWAP2 SWAP1 POP JUMP JUMPDEST PUSH0 PUSH8 0xFFFFFFFFFFFFFFFF DUP3 GT ISZERO PUSH2 0xE19 JUMPI PUSH2 0xE18 PUSH2 0xD87 JUMP JUMPDEST JUMPDEST PUSH2 0xE22 DUP3 PUSH2 0xC55 JUMP JUMPDEST SWAP1 POP PUSH1 0x20 DUP2 ADD SWAP1 POP SWAP2 SWAP1 POP JUMP JUMPDEST DUP3 DUP2 DUP4 CALLDATACOPY PUSH0 DUP4 DUP4 ADD MSTORE POP POP POP JUMP JUMPDEST PUSH0 PUSH2 0xE4F PUSH2 0xE4A DUP5 PUSH2 0xDFF JUMP JUMPDEST PUSH2 0xDE5 JUMP JUMPDEST SWAP1 POP DUP3 DUP2 MSTORE PUSH1 0x20 DUP2 ADD DUP5 DUP5 DUP5 ADD GT ISZERO PUSH2 0xE6B JUMPI PUSH2 0xE6A PUSH2 0xD83 JUMP JUMPDEST JUMPDEST PUSH2 0xE76 DUP5 DUP3 DUP6 PUSH2 0xE2F JUMP JUMPDEST POP SWAP4 SWAP3 POP POP POP JUMP JUMPDEST PUSH0 DUP3 PUSH1 0x1F DUP4 ADD SLT PUSH2 0xE92 JUMPI PUSH2 0xE91 PUSH2 0xD7F JUMP JUMPDEST JUMPDEST DUP2 CALLDATALOAD PUSH2 0xEA2 DUP5 DUP3 PUSH1 0x20 DUP7 ADD PUSH2 0xE3D JUMP JUMPDEST SWAP2 POP POP SWAP3 SWAP2 POP POP JUMP JUMPDEST PUSH0 PUSH1 0x20 DUP3 DUP5 SUB SLT ISZERO PUSH2 0xEC0 JUMPI PUSH2 0xEBF PUSH2 0xB3C JUMP JUMPDEST JUMPDEST PUSH0 DUP3 ADD CALLDATALOAD PUSH8 0xFFFFFFFFFFFFFFFF DUP2 GT ISZERO PUSH2 0xEDD JUMPI PUSH2 0xEDC PUSH2 0xB40 JUMP JUMPDEST JUMPDEST PUSH2 0xEE9 DUP5 DUP3 DUP6 ADD PUSH2 0xE7E JUMP JUMPDEST SWAP2 POP POP SWAP3 SWAP2 POP POP JUMP JUMPDEST PUSH0 PUSH1 0x20 DUP3 DUP5 SUB SLT ISZERO PUSH2 0xF07 JUMPI PUSH2 0xF06 PUSH2 0xB3C JUMP JUMPDEST JUMPDEST PUSH0 PUSH2 0xF14 DUP5 DUP3 DUP6 ADD PUSH2 0xB8A JUMP JUMPDEST SWAP2 POP POP SWAP3 SWAP2 POP POP JUMP JUMPDEST PUSH0 DUP2 MLOAD SWAP1 POP SWAP2 SWAP1 POP JUMP JUMPDEST PUSH0 DUP3 DUP3 MSTORE PUSH1 0x20 DUP3 ADD SWAP1 POP SWAP3 SWAP2 POP POP JUMP JUMPDEST PUSH0 DUP2 SWAP1 POP PUSH1 0x20 DUP3 ADD SWAP1 POP SWAP2 SWAP1 POP JUMP JUMPDEST PUSH2 0xF4F DUP2 PUSH2 0xB9E JUMP JUMPDEST DUP3 MSTORE POP POP JUMP JUMPDEST PUSH2 0xF5E DUP2 PUSH2 0xB63 JUMP JUMPDEST DUP3 MSTORE POP POP JUMP JUMPDEST PUSH0 DUP3 DUP3 MSTORE PUSH1 0x20 DUP3 ADD SWAP1 POP SWAP3 SWAP2 POP POP JUMP JUMPDEST PUSH0 PUSH2 0xF7E DUP3 PUSH2 0xC2D JUMP JUMPDEST PUSH2 0xF88 DUP2 DUP6 PUSH2 0xF64 JUMP JUMPDEST SWAP4 POP PUSH2 0xF98 DUP2 DUP6 PUSH1 0x20 DUP7 ADD PUSH2 0xC47 JUMP JUMPDEST PUSH2 0xFA1 DUP2 PUSH2 0xC55 JUMP JUMPDEST DUP5 ADD SWAP2 POP POP SWAP3 SWAP2 POP POP JUMP JUMPDEST PUSH0 PUSH1 0xA0 DUP4 ADD PUSH0 DUP4 ADD MLOAD PUSH2 0xFC1 PUSH0 DUP7 ADD DUP3 PUSH2 0xF46 JUMP JUMPDEST POP PUSH1 0x20 DUP4 ADD MLOAD PUSH2 0xFD4 PUSH1 0x20 DUP7 ADD DUP3 PUSH2 0xF55 JUMP JUMPDEST POP PUSH1 0x40 DUP4 ADD MLOAD DUP5 DUP3 SUB PUSH1 0x40 DUP7 ADD MSTORE PUSH2 0xFEC DUP3 DUP3 PUSH2 0xF74 JUMP JUMPDEST SWAP2 POP POP PUSH1 0x60 DUP4 ADD MLOAD PUSH2 0x1001 PUSH1 0x60 DUP7 ADD DUP3 PUSH2 0xF46 JUMP JUMPDEST POP PUSH1 0x80 DUP4 ADD MLOAD PUSH2 0x1014 PUSH1 0x80 DUP7 ADD DUP3 PUSH2 0xF46 JUMP JUMPDEST POP DUP1 SWAP2 POP POP SWAP3 SWAP2 POP POP JUMP JUMPDEST PUSH0 PUSH2 0x102A DUP4 DUP4 PUSH2 0xFAC JUMP JUMPDEST SWAP1 POP SWAP3 SWAP2 POP POP JUMP JUMPDEST PUSH0 PUSH1 0x20 DUP3 ADD SWAP1 POP SWAP2 SWAP1 POP JUMP JUMPDEST PUSH0 PUSH2 0x1048 DUP3 PUSH2 0xF1D JUMP JUMPDEST PUSH2 0x1052 DUP2 DUP6 PUSH2 0xF27 JUMP JUMPDEST SWAP4 POP DUP4 PUSH1 0x20 DUP3 MUL DUP6 ADD PUSH2 0x1064 DUP6 PUSH2 0xF37 JUMP JUMPDEST DUP1 PUSH0 JUMPDEST DUP6 DUP2 LT ISZERO PUSH2 0x109F JUMPI DUP5 DUP5 SUB DUP10 MSTORE DUP2 MLOAD PUSH2 0x1080 DUP6 DUP3 PUSH2 0x101F JUMP JUMPDEST SWAP5 POP PUSH2 0x108B DUP4 PUSH2 0x1032 JUMP JUMPDEST SWAP3 POP PUSH1 0x20 DUP11 ADD SWAP10 POP POP PUSH1 0x1 DUP2 ADD SWAP1 POP PUSH2 0x1067 JUMP JUMPDEST POP DUP3 SWAP8 POP DUP8 SWAP6 POP POP POP POP POP POP SWAP3 SWAP2 POP POP JUMP JUMPDEST PUSH0 PUSH1 0x20 DUP3 ADD SWAP1 POP DUP2 DUP2 SUB PUSH0 DUP4 ADD MSTORE PUSH2 0x10C9 DUP2 DUP5 PUSH2 0x103E JUMP JUMPDEST SWAP1 POP SWAP3 SWAP2 POP POP JUMP JUMPDEST PUSH0 PUSH1 0x20 DUP3 DUP5 SUB SLT ISZERO PUSH2 0x10E6 JUMPI PUSH2 0x10E5 PUSH2 0xB3C JUMP JUMPDEST JUMPDEST PUSH0 PUSH2 0x10F3 DUP5 DUP3 DUP6 ADD PUSH2 0xBBD JUMP JUMPDEST SWAP2 POP POP SWAP3 SWAP2 POP POP JUMP JUMPDEST PUSH0 PUSH1 0xA0 DUP4 ADD PUSH0 DUP4 ADD MLOAD PUSH2 0x1111 PUSH0 DUP7 ADD DUP3 PUSH2 0xF46 JUMP JUMPDEST POP PUSH1 0x20 DUP4 ADD MLOAD PUSH2 0x1124 PUSH1 0x20 DUP7 ADD DUP3 PUSH2 0xF55 JUMP JUMPDEST POP PUSH1 0x40 DUP4 ADD MLOAD DUP5 DUP3 SUB PUSH1 0x40 DUP7 ADD MSTORE PUSH2 0x113C DUP3 DUP3 PUSH2 0xF74 JUMP JUMPDEST SWAP2 POP POP PUSH1 0x60 DUP4 ADD MLOAD PUSH2 0x1151 PUSH1 0x60 DUP7 ADD DUP3 PUSH2 0xF46 JUMP JUMPDEST POP PUSH1 0x80 DUP4 ADD MLOAD PUSH2 0x1164 PUSH1 0x80 DUP7 ADD DUP3 PUSH2 0xF46 JUMP JUMPDEST POP DUP1 SWAP2 POP POP SWAP3 SWAP2 POP POP JUMP JUMPDEST PUSH0 PUSH1 0x20 DUP3 ADD SWAP1 POP DUP2 DUP2 SUB PUSH0 DUP4 ADD MSTORE PUSH2 0x1187 DUP2 DUP5 PUSH2 0x10FC JUMP JUMPDEST SWAP1 POP SWAP3 SWAP2 POP POP JUMP JUMPDEST PUSH32 0x4E487B7100000000000000000000000000000000000000000000000000000000 PUSH0 MSTORE PUSH1 0x22 PUSH1 0x4 MSTORE PUSH1 0x24 PUSH0 REVERT JUMPDEST PUSH0 PUSH1 0x2 DUP3 DIV SWAP1 POP PUSH1 0x1 DUP3 AND DUP1 PUSH2 0x11D3 JUMPI PUSH1 0x7F DUP3 AND SWAP2 POP JUMPDEST PUSH1 0x20 DUP3 LT DUP2 SUB PUSH2 0x11E6 JUMPI PUSH2 0x11E5 PUSH2 0x118F JUMP JUMPDEST JUMPDEST POP SWAP2 SWAP1 POP JUMP JUMPDEST PUSH32 0x4E487B7100000000000000000000000000000000000000000000000000000000 PUSH0 MSTORE PUSH1 0x32 PUSH1 0x4 MSTORE PUSH1 0x24 PUSH0 REVERT JUMPDEST PUSH32 0x496C207477656574206E6F6E2065736973746500000000000000000000000000 PUSH0 DUP3 ADD MSTORE POP JUMP JUMPDEST PUSH0 PUSH2 0x124D PUSH1 0x13 DUP4 PUSH2 0xC37 JUMP JUMPDEST SWAP2 POP PUSH2 0x1258 DUP3 PUSH2 0x1219 JUMP JUMPDEST PUSH1 0x20 DUP3 ADD SWAP1 POP SWAP2 SWAP1 POP JUMP JUMPDEST PUSH0 PUSH1 0x20 DUP3 ADD SWAP1 POP DUP2 DUP2 SUB PUSH0 DUP4 ADD MSTORE PUSH2 0x127A DUP2 PUSH2 0x1241 JUMP JUMPDEST SWAP1 POP SWAP2 SWAP1 POP JUMP JUMPDEST PUSH32 0x496C20747765657420686120676961272030206C696B65730000000000000000 PUSH0 DUP3 ADD MSTORE POP JUMP JUMPDEST PUSH0 PUSH2 0x12B5 PUSH1 0x18 DUP4 PUSH2 0xC37 JUMP JUMPDEST SWAP2 POP PUSH2 0x12C0 DUP3 PUSH2 0x1281 JUMP JUMPDEST PUSH1 0x20 DUP3 ADD SWAP1 POP SWAP2 SWAP1 POP JUMP JUMPDEST PUSH0 PUSH1 0x20 DUP3 ADD SWAP1 POP DUP2 DUP2 SUB PUSH0 DUP4 ADD MSTORE PUSH2 0x12E2 DUP2 PUSH2 0x12A9 JUMP JUMPDEST SWAP1 POP SWAP2 SWAP1 POP JUMP JUMPDEST PUSH32 0x4E487B7100000000000000000000000000000000000000000000000000000000 PUSH0 MSTORE PUSH1 0x11 PUSH1 0x4 MSTORE PUSH1 0x24 PUSH0 REVERT JUMPDEST PUSH0 PUSH2 0x1320 DUP3 PUSH2 0xB9E JUMP JUMPDEST SWAP2 POP PUSH0 DUP3 SUB PUSH2 0x1332 JUMPI PUSH2 0x1331 PUSH2 0x12E9 JUMP JUMPDEST JUMPDEST PUSH1 0x1 DUP3 SUB SWAP1 POP SWAP2 SWAP1 POP JUMP JUMPDEST PUSH32 0x4E6F6E2073656920696C2070726F70726965746172696F2064656C20636F6E74 PUSH0 DUP3 ADD MSTORE PUSH32 0x726174746F000000000000000000000000000000000000000000000000000000 PUSH1 0x20 DUP3 ADD MSTORE POP JUMP JUMPDEST PUSH0 PUSH2 0x1397 PUSH1 0x25 DUP4 PUSH2 0xC37 JUMP JUMPDEST SWAP2 POP PUSH2 0x13A2 DUP3 PUSH2 0x133D JUMP JUMPDEST PUSH1 0x40 DUP3 ADD SWAP1 POP SWAP2 SWAP1 POP JUMP JUMPDEST PUSH0 PUSH1 0x20 DUP3 ADD SWAP1 POP DUP2 DUP2 SUB PUSH0 DUP4 ADD MSTORE PUSH2 0x13C4 DUP2 PUSH2 0x138B JUMP JUMPDEST SWAP1 POP SWAP2 SWAP1 POP JUMP JUMPDEST PUSH0 PUSH2 0x13D5 DUP3 PUSH2 0xB9E JUMP JUMPDEST SWAP2 POP PUSH32 0xFFFFFFFFFFFFFFFFFFFFFFFFFFFFFFFFFFFFFFFFFFFFFFFFFFFFFFFFFFFFFFFF DUP3 SUB PUSH2 0x1407 JUMPI PUSH2 0x1406 PUSH2 0x12E9 JUMP JUMPDEST JUMPDEST PUSH1 0x1 DUP3 ADD SWAP1 POP SWAP2 SWAP1 POP JUMP JUMPDEST PUSH32 0x696C2054776565742065272074726F70706F206772616E646500000000000000 PUSH0 DUP3 ADD MSTORE POP JUMP JUMPDEST PUSH0 PUSH2 0x1446 PUSH1 0x19 DUP4 PUSH2 0xC37 JUMP JUMPDEST SWAP2 POP PUSH2 0x1451 DUP3 PUSH2 0x1412 JUMP JUMPDEST PUSH1 0x20 DUP3 ADD SWAP1 POP SWAP2 SWAP1 POP JUMP JUMPDEST PUSH0 PUSH1 0x20 DUP3 ADD SWAP1 POP DUP2 DUP2 SUB PUSH0 DUP4 ADD MSTORE PUSH2 0x1473 DUP2 PUSH2 0x143A JUMP JUMPDEST SWAP1 POP SWAP2 SWAP1 POP JUMP JUMPDEST PUSH0 DUP2 SWAP1 POP DUP2 PUSH0 MSTORE PUSH1 0x20 PUSH0 KECCAK256 SWAP1 POP SWAP2 SWAP1 POP JUMP JUMPDEST PUSH0 PUSH1 0x20 PUSH1 0x1F DUP4 ADD DIV SWAP1 POP SWAP2 SWAP1 POP JUMP JUMPDEST PUSH0 DUP3 DUP3 SHL SWAP1 POP SWAP3 SWAP2 POP POP JUMP JUMPDEST PUSH0 PUSH1 0x8 DUP4 MUL PUSH2 0x14D6 PUSH32 0xFFFFFFFFFFFFFFFFFFFFFFFFFFFFFFFFFFFFFFFFFFFFFFFFFFFFFFFFFFFFFFFF DUP3 PUSH2 0x149B JUMP JUMPDEST PUSH2 0x14E0 DUP7 DUP4 PUSH2 0x149B JUMP JUMPDEST SWAP6 POP DUP1 NOT DUP5 AND SWAP4 POP DUP1 DUP7 AND DUP5 OR SWAP3 POP POP POP SWAP4 SWAP3 POP POP POP JUMP JUMPDEST PUSH0 DUP2 SWAP1 POP SWAP2 SWAP1 POP JUMP JUMPDEST PUSH0 PUSH2 0x151B PUSH2 0x1516 PUSH2 0x1511 DUP5 PUSH2 0xB9E JUMP JUMPDEST PUSH2 0x14F8 JUMP JUMPDEST PUSH2 0xB9E JUMP JUMPDEST SWAP1 POP SWAP2 SWAP1 POP JUMP JUMPDEST PUSH0 DUP2 SWAP1 POP SWAP2 SWAP1 POP JUMP JUMPDEST PUSH2 0x1534 DUP4 PUSH2 0x1501 JUMP JUMPDEST PUSH2 0x1548 PUSH2 0x1540 DUP3 PUSH2 0x1522 JUMP JUMPDEST DUP5 DUP5 SLOAD PUSH2 0x14A7 JUMP JUMPDEST DUP3 SSTORE POP POP POP POP JUMP JUMPDEST PUSH0 PUSH0 SWAP1 POP SWAP1 JUMP JUMPDEST PUSH2 0x155F PUSH2 0x1550 JUMP JUMPDEST PUSH2 0x156A DUP2 DUP5 DUP5 PUSH2 0x152B JUMP JUMPDEST POP POP POP JUMP JUMPDEST JUMPDEST DUP2 DUP2 LT ISZERO PUSH2 0x158D JUMPI PUSH2 0x1582 PUSH0 DUP3 PUSH2 0x1557 JUMP JUMPDEST PUSH1 0x1 DUP2 ADD SWAP1 POP PUSH2 0x1570 JUMP JUMPDEST POP POP JUMP JUMPDEST PUSH1 0x1F DUP3 GT ISZERO PUSH2 0x15D2 JUMPI PUSH2 0x15A3 DUP2 PUSH2 0x147A JUMP JUMPDEST PUSH2 0x15AC DUP5 PUSH2 0x148C JUMP JUMPDEST DUP2 ADD PUSH1 0x20 DUP6 LT ISZERO PUSH2 0x15BB JUMPI DUP2 SWAP1 POP JUMPDEST PUSH2 0x15CF PUSH2 0x15C7 DUP6 PUSH2 0x148C JUMP JUMPDEST DUP4 ADD DUP3 PUSH2 0x156F JUMP JUMPDEST POP POP JUMPDEST POP POP POP JUMP JUMPDEST PUSH0 DUP3 DUP3 SHR SWAP1 POP SWAP3 SWAP2 POP POP JUMP JUMPDEST PUSH0 PUSH2 0x15F2 PUSH0 NOT DUP5 PUSH1 0x8 MUL PUSH2 0x15D7 JUMP JUMPDEST NOT DUP1 DUP4 AND SWAP2 POP POP SWAP3 SWAP2 POP POP JUMP JUMPDEST PUSH0 PUSH2 0x160A DUP4 DUP4 PUSH2 0x15E3 JUMP JUMPDEST SWAP2 POP DUP3 PUSH1 0x2 MUL DUP3 OR SWAP1 POP SWAP3 SWAP2 POP POP JUMP JUMPDEST PUSH2 0x1623 DUP3 PUSH2 0xC2D JUMP JUMPDEST PUSH8 0xFFFFFFFFFFFFFFFF DUP2 GT ISZERO PUSH2 0x163C JUMPI PUSH2 0x163B PUSH2 0xD87 JUMP JUMPDEST JUMPDEST PUSH2 0x1646 DUP3 SLOAD PUSH2 0x11BC JUMP JUMPDEST PUSH2 0x1651 DUP3 DUP3 DUP6 PUSH2 0x1591 JUMP JUMPDEST PUSH0 PUSH1 0x20 SWAP1 POP PUSH1 0x1F DUP4 GT PUSH1 0x1 DUP2 EQ PUSH2 0x1682 JUMPI PUSH0 DUP5 ISZERO PUSH2 0x1670 JUMPI DUP3 DUP8 ADD MLOAD SWAP1 POP JUMPDEST PUSH2 0x167A DUP6 DUP3 PUSH2 0x15FF JUMP JUMPDEST DUP7 SSTORE POP PUSH2 0x16E1 JUMP JUMPDEST PUSH1 0x1F NOT DUP5 AND PUSH2 0x1690 DUP7 PUSH2 0x147A JUMP JUMPDEST PUSH0 JUMPDEST DUP3 DUP2 LT ISZERO PUSH2 0x16B7 JUMPI DUP5 DUP10 ADD MLOAD DUP3 SSTORE PUSH1 0x1 DUP3 ADD SWAP2 POP PUSH1 0x20 DUP6 ADD SWAP5 POP PUSH1 0x20 DUP2 ADD SWAP1 POP PUSH2 0x1692 JUMP JUMPDEST DUP7 DUP4 LT ISZERO PUSH2 0x16D4 JUMPI DUP5 DUP10 ADD MLOAD PUSH2 0x16D0 PUSH1 0x1F DUP10 AND DUP3 PUSH2 0x15E3 JUMP JUMPDEST DUP4 SSTORE POP JUMPDEST PUSH1 0x1 PUSH1 0x2 DUP9 MUL ADD DUP9 SSTORE POP POP POP JUMPDEST POP POP POP POP POP POP JUMP INVALID LOG2 PUSH5 0x6970667358 0x22 SLT KECCAK256 0xEB 0xD2 SWAPN 0xB8 ISZERO RETURN CALLCODE SWAPN 0x44 0x2F EXTCODEHASH EXTCODEHASH PUSH26 0xFD046E0FB6309DC9429609F2E44C69E8B74F4D64736F6C634300 ADDMOD 0x1E STOP CALLER "
				},
				"gasEstimates": {
					"creation": {
						"codeDepositCost": "1183800",
						"executionCost": "49805",
						"totalCost": "1233605"
					},
					"external": {
						"MAX_TWEET_LENGHT()": "2465",
						"changeTweetLength(uint16)": "26936",
						"createTweet(string)": "infinite",
						"getAllTweet(address)": "infinite",
						"getTweet(uint256)": "infinite",
						"likeTweet(address,uint256)": "infinite",
						"tweets(address,uint256)": "infinite",
						"unlikeTweet(address,uint256)": "infinite"
					}
				},
				"methodIdentifiers": {
					"MAX_TWEET_LENGHT()": "6c02e8b7",
					"changeTweetLength(uint16)": "58bfa4ab",
					"createTweet(string)": "7c9cd2bc",
					"getAllTweet(address)": "b64988b8",
					"getTweet(uint256)": "c3ad5ecb",
					"likeTweet(address,uint256)": "63378216",
					"tweets(address,uint256)": "05a1b4a9",
					"unlikeTweet(address,uint256)": "3d9b569f"
				}
			},
			"storageLayout": {
				"storage": [
					{
						"astId": 4,
						"contract": "Twitter3.sol:Twitter",
						"label": "MAX_TWEET_LENGHT",
						"offset": 0,
						"slot": "0",
						"type": "t_uint16"
					},
					{
						"astId": 6,
						"contract": "Twitter3.sol:Twitter",
						"label": "owner",
						"offset": 2,
						"slot": "0",
						"type": "t_address"
					},
					{
						"astId": 32,
						"contract": "Twitter3.sol:Twitter",
						"label": "tweets",
						"offset": 0,
						"slot": "1",
						"type": "t_mapping(t_address,t_array(t_struct(Tweet)26_storage)dyn_storage)"
					}
				],
				"types": {
					"t_address": {
						"encoding": "inplace",
						"label": "address",
						"numberOfBytes": "20"
					},
					"t_array(t_struct(Tweet)26_storage)dyn_storage": {
						"base": "t_struct(Tweet)26_storage",
						"encoding": "dynamic_array",
						"label": "struct Twitter.Tweet[]",
						"numberOfBytes": "32"
					},
					"t_mapping(t_address,t_array(t_struct(Tweet)26_storage)dyn_storage)": {
						"encoding": "mapping",
						"key": "t_address",
						"label": "mapping(address => struct Twitter.Tweet[])",
						"numberOfBytes": "32",
						"value": "t_array(t_struct(Tweet)26_storage)dyn_storage"
					},
					"t_string_storage": {
						"encoding": "bytes",
						"label": "string",
						"numberOfBytes": "32"
					},
					"t_struct(Tweet)26_storage": {
						"encoding": "inplace",
						"label": "struct Twitter.Tweet",
						"members": [
							{
								"astId": 17,
								"contract": "Twitter3.sol:Twitter",
								"label": "id",
								"offset": 0,
								"slot": "0",
								"type": "t_uint256"
							},
							{
								"astId": 19,
								"contract": "Twitter3.sol:Twitter",
								"label": "author",
								"offset": 0,
								"slot": "1",
								"type": "t_address"
							},
							{
								"astId": 21,
								"contract": "Twitter3.sol:Twitter",
								"label": "content",
								"offset": 0,
								"slot": "2",
								"type": "t_string_storage"
							},
							{
								"astId": 23,
								"contract": "Twitter3.sol:Twitter",
								"label": "timestamp",
								"offset": 0,
								"slot": "3",
								"type": "t_uint256"
							},
							{
								"astId": 25,
								"contract": "Twitter3.sol:Twitter",
								"label": "likes",
								"offset": 0,
								"slot": "4",
								"type": "t_uint256"
							}
						],
						"numberOfBytes": "160"
					},
					"t_uint16": {
						"encoding": "inplace",
						"label": "uint16",
						"numberOfBytes": "2"
					},
					"t_uint256": {
						"encoding": "inplace",
						"label": "uint256",
						"numberOfBytes": "32"
					}
				}
			},
			"userdoc": {
				"kind": "user",
				"methods": {},
				"version": 1
			}
		}
	}
}