{
	"basics.sol": {
		"SaveValue": {
			"abi": [
				{
					"inputs": [],
					"stateMutability": "nonpayable",
					"type": "constructor"
				},
				{
					"inputs": [],
					"name": "myValue",
					"outputs": [
						{
							"internalType": "uint16",
							"name": "",
							"type": "uint16"
						}
					],
					"stateMutability": "view",
					"type": "function"
				},
				{
					"inputs": [],
					"name": "numWriting",
					"outputs": [
						{
							"internalType": "uint16",
							"name": "",
							"type": "uint16"
						}
					],
					"stateMutability": "view",
					"type": "function"
				},
				{
					"inputs": [],
					"name": "sumTen",
					"outputs": [
						{
							"internalType": "uint256",
							"name": "result",
							"type": "uint256"
						}
					],
					"stateMutability": "view",
					"type": "function"
				},
				{
					"inputs": [
						{
							"internalType": "uint16",
							"name": "_val",
							"type": "uint16"
						}
					],
					"name": "writeValue",
					"outputs": [],
					"stateMutability": "nonpayable",
					"type": "function"
				}
			],
			"devdoc": {
				"kind": "dev",
				"methods": {},
				"version": 1
			},
			"evm": {
				"assembly": "    /* \"basics.sol\":72:565  contract SaveValue {... */\n  mstore(0x40, 0x80)\n    /* \"basics.sol\":156:200  constructor () {... */\n  callvalue\n  dup1\n  iszero\n  tag_1\n  jumpi\n  revert(0x00, 0x00)\ntag_1:\n  pop\n    /* \"basics.sol\":191:193  10 */\n  0x0a\n    /* \"basics.sol\":181:188  myValue */\n  0x00\n  0x00\n    /* \"basics.sol\":181:193  myValue = 10 */\n  0x0100\n  exp\n  dup2\n  sload\n  dup2\n  0xffff\n  mul\n  not\n  and\n  swap1\n  dup4\n  0xffff\n  and\n  mul\n  or\n  swap1\n  sstore\n  pop\n    /* \"basics.sol\":72:565  contract SaveValue {... */\n  dataSize(sub_0)\n  dup1\n  dataOffset(sub_0)\n  0x00\n  codecopy\n  0x00\n  return\nstop\n\nsub_0: assembly {\n        /* \"basics.sol\":72:565  contract SaveValue {... */\n      mstore(0x40, 0x80)\n      callvalue\n      dup1\n      iszero\n      tag_1\n      jumpi\n      revert(0x00, 0x00)\n    tag_1:\n      pop\n      jumpi(tag_2, lt(calldatasize, 0x04))\n      shr(0xe0, calldataload(0x00))\n      dup1\n      0x47f1aae7\n      eq\n      tag_3\n      jumpi\n      dup1\n      0x6091d9ab\n      eq\n      tag_4\n      jumpi\n      dup1\n      0xc39235d2\n      eq\n      tag_5\n      jumpi\n      dup1\n      0xd9aecabc\n      eq\n      tag_6\n      jumpi\n    tag_2:\n      revert(0x00, 0x00)\n        /* \"basics.sol\":97:118  uint16 public myValue */\n    tag_3:\n      tag_7\n      tag_8\n      jump\t// in\n    tag_7:\n      mload(0x40)\n      tag_9\n      swap2\n      swap1\n      tag_10\n      jump\t// in\n    tag_9:\n      mload(0x40)\n      dup1\n      swap2\n      sub\n      swap1\n      return\n        /* \"basics.sol\":379:563  function writeValue (uint16 _val) public { // Il nome dei parametri, per convenzione, si fa precedere da un underscore -> _... */\n    tag_4:\n      tag_11\n      0x04\n      dup1\n      calldatasize\n      sub\n      dup2\n      add\n      swap1\n      tag_12\n      swap2\n      swap1\n      tag_13\n      jump\t// in\n    tag_12:\n      tag_14\n      jump\t// in\n    tag_11:\n      stop\n        /* \"basics.sol\":206:295  function sumTen () public view returns(uint256 result) {... */\n    tag_5:\n      tag_15\n      tag_16\n      jump\t// in\n    tag_15:\n      mload(0x40)\n      tag_17\n      swap2\n      swap1\n      tag_18\n      jump\t// in\n    tag_17:\n      mload(0x40)\n      dup1\n      swap2\n      sub\n      swap1\n      return\n        /* \"basics.sol\":125:149  uint16 public numWriting */\n    tag_6:\n      tag_19\n      tag_20\n      jump\t// in\n    tag_19:\n      mload(0x40)\n      tag_21\n      swap2\n      swap1\n      tag_10\n      jump\t// in\n    tag_21:\n      mload(0x40)\n      dup1\n      swap2\n      sub\n      swap1\n      return\n        /* \"basics.sol\":97:118  uint16 public myValue */\n    tag_8:\n      0x00\n      0x00\n      swap1\n      sload\n      swap1\n      0x0100\n      exp\n      swap1\n      div\n      0xffff\n      and\n      dup2\n      jump\t// out\n        /* \"basics.sol\":379:563  function writeValue (uint16 _val) public { // Il nome dei parametri, per convenzione, si fa precedere da un underscore -> _... */\n    tag_14:\n        /* \"basics.sol\":521:525  _val */\n      dup1\n        /* \"basics.sol\":511:518  myValue */\n      0x00\n      0x00\n        /* \"basics.sol\":511:525  myValue = _val */\n      0x0100\n      exp\n      dup2\n      sload\n      dup2\n      0xffff\n      mul\n      not\n      and\n      swap1\n      dup4\n      0xffff\n      and\n      mul\n      or\n      swap1\n      sstore\n      pop\n        /* \"basics.sol\":535:556  incrementNumWriting() */\n      tag_23\n        /* \"basics.sol\":535:554  incrementNumWriting */\n      tag_24\n        /* \"basics.sol\":535:556  incrementNumWriting() */\n      jump\t// in\n    tag_23:\n        /* \"basics.sol\":379:563  function writeValue (uint16 _val) public { // Il nome dei parametri, per convenzione, si fa precedere da un underscore -> _... */\n      pop\n      jump\t// out\n        /* \"basics.sol\":206:295  function sumTen () public view returns(uint256 result) {... */\n    tag_16:\n        /* \"basics.sol\":245:259  uint256 result */\n      0x00\n        /* \"basics.sol\":286:288  10 */\n      0x0a\n        /* \"basics.sol\":278:285  myValue */\n      0x00\n      0x00\n      swap1\n      sload\n      swap1\n      0x0100\n      exp\n      swap1\n      div\n      0xffff\n      and\n        /* \"basics.sol\":278:288  myValue+10 */\n      tag_26\n      swap2\n      swap1\n      tag_27\n      jump\t// in\n    tag_26:\n        /* \"basics.sol\":271:288  return myValue+10 */\n      0xffff\n      and\n      swap1\n      pop\n        /* \"basics.sol\":206:295  function sumTen () public view returns(uint256 result) {... */\n      swap1\n      jump\t// out\n        /* \"basics.sol\":125:149  uint16 public numWriting */\n    tag_20:\n      0x00\n      0x02\n      swap1\n      sload\n      swap1\n      0x0100\n      exp\n      swap1\n      div\n      0xffff\n      and\n      dup2\n      jump\t// out\n        /* \"basics.sol\":301:373  function incrementNumWriting() private  {... */\n    tag_24:\n        /* \"basics.sol\":365:366  1 */\n      0x01\n        /* \"basics.sol\":351:361  numWriting */\n      0x00\n      0x02\n        /* \"basics.sol\":351:366  numWriting += 1 */\n      dup3\n      dup3\n      dup3\n      swap1\n      sload\n      swap1\n      0x0100\n      exp\n      swap1\n      div\n      0xffff\n      and\n      tag_29\n      swap2\n      swap1\n      tag_27\n      jump\t// in\n    tag_29:\n      swap3\n      pop\n      0x0100\n      exp\n      dup2\n      sload\n      dup2\n      0xffff\n      mul\n      not\n      and\n      swap1\n      dup4\n      0xffff\n      and\n      mul\n      or\n      swap1\n      sstore\n      pop\n        /* \"basics.sol\":301:373  function incrementNumWriting() private  {... */\n      jump\t// out\n        /* \"#utility.yul\":7:96   */\n    tag_30:\n        /* \"#utility.yul\":43:50   */\n      0x00\n        /* \"#utility.yul\":83:89   */\n      0xffff\n        /* \"#utility.yul\":76:81   */\n      dup3\n        /* \"#utility.yul\":72:90   */\n      and\n        /* \"#utility.yul\":61:90   */\n      swap1\n      pop\n        /* \"#utility.yul\":7:96   */\n      swap2\n      swap1\n      pop\n      jump\t// out\n        /* \"#utility.yul\":102:217   */\n    tag_31:\n        /* \"#utility.yul\":187:210   */\n      tag_43\n        /* \"#utility.yul\":204:209   */\n      dup2\n        /* \"#utility.yul\":187:210   */\n      tag_30\n      jump\t// in\n    tag_43:\n        /* \"#utility.yul\":182:185   */\n      dup3\n        /* \"#utility.yul\":175:211   */\n      mstore\n        /* \"#utility.yul\":102:217   */\n      pop\n      pop\n      jump\t// out\n        /* \"#utility.yul\":223:441   */\n    tag_10:\n        /* \"#utility.yul\":314:318   */\n      0x00\n        /* \"#utility.yul\":352:354   */\n      0x20\n        /* \"#utility.yul\":341:350   */\n      dup3\n        /* \"#utility.yul\":337:355   */\n      add\n        /* \"#utility.yul\":329:355   */\n      swap1\n      pop\n        /* \"#utility.yul\":365:434   */\n      tag_45\n        /* \"#utility.yul\":431:432   */\n      0x00\n        /* \"#utility.yul\":420:429   */\n      dup4\n        /* \"#utility.yul\":416:433   */\n      add\n        /* \"#utility.yul\":407:413   */\n      dup5\n        /* \"#utility.yul\":365:434   */\n      tag_31\n      jump\t// in\n    tag_45:\n        /* \"#utility.yul\":223:441   */\n      swap3\n      swap2\n      pop\n      pop\n      jump\t// out\n        /* \"#utility.yul\":528:645   */\n    tag_33:\n        /* \"#utility.yul\":637:638   */\n      0x00\n        /* \"#utility.yul\":634:635   */\n      0x00\n        /* \"#utility.yul\":627:639   */\n      revert\n        /* \"#utility.yul\":774:894   */\n    tag_35:\n        /* \"#utility.yul\":846:869   */\n      tag_50\n        /* \"#utility.yul\":863:868   */\n      dup2\n        /* \"#utility.yul\":846:869   */\n      tag_30\n      jump\t// in\n    tag_50:\n        /* \"#utility.yul\":839:844   */\n      dup2\n        /* \"#utility.yul\":836:870   */\n      eq\n        /* \"#utility.yul\":826:888   */\n      tag_51\n      jumpi\n        /* \"#utility.yul\":884:885   */\n      0x00\n        /* \"#utility.yul\":881:882   */\n      0x00\n        /* \"#utility.yul\":874:886   */\n      revert\n        /* \"#utility.yul\":826:888   */\n    tag_51:\n        /* \"#utility.yul\":774:894   */\n      pop\n      jump\t// out\n        /* \"#utility.yul\":900:1037   */\n    tag_36:\n        /* \"#utility.yul\":945:950   */\n      0x00\n        /* \"#utility.yul\":983:989   */\n      dup2\n        /* \"#utility.yul\":970:990   */\n      calldataload\n        /* \"#utility.yul\":961:990   */\n      swap1\n      pop\n        /* \"#utility.yul\":999:1031   */\n      tag_53\n        /* \"#utility.yul\":1025:1030   */\n      dup2\n        /* \"#utility.yul\":999:1031   */\n      tag_35\n      jump\t// in\n    tag_53:\n        /* \"#utility.yul\":900:1037   */\n      swap3\n      swap2\n      pop\n      pop\n      jump\t// out\n        /* \"#utility.yul\":1043:1370   */\n    tag_13:\n        /* \"#utility.yul\":1101:1107   */\n      0x00\n        /* \"#utility.yul\":1150:1152   */\n      0x20\n        /* \"#utility.yul\":1138:1147   */\n      dup3\n        /* \"#utility.yul\":1129:1136   */\n      dup5\n        /* \"#utility.yul\":1125:1148   */\n      sub\n        /* \"#utility.yul\":1121:1153   */\n      slt\n        /* \"#utility.yul\":1118:1237   */\n      iszero\n      tag_55\n      jumpi\n        /* \"#utility.yul\":1156:1235   */\n      tag_56\n      tag_33\n      jump\t// in\n    tag_56:\n        /* \"#utility.yul\":1118:1237   */\n    tag_55:\n        /* \"#utility.yul\":1276:1277   */\n      0x00\n        /* \"#utility.yul\":1301:1353   */\n      tag_57\n        /* \"#utility.yul\":1345:1352   */\n      dup5\n        /* \"#utility.yul\":1336:1342   */\n      dup3\n        /* \"#utility.yul\":1325:1334   */\n      dup6\n        /* \"#utility.yul\":1321:1343   */\n      add\n        /* \"#utility.yul\":1301:1353   */\n      tag_36\n      jump\t// in\n    tag_57:\n        /* \"#utility.yul\":1291:1353   */\n      swap2\n      pop\n        /* \"#utility.yul\":1247:1363   */\n      pop\n        /* \"#utility.yul\":1043:1370   */\n      swap3\n      swap2\n      pop\n      pop\n      jump\t// out\n        /* \"#utility.yul\":1376:1453   */\n    tag_37:\n        /* \"#utility.yul\":1413:1420   */\n      0x00\n        /* \"#utility.yul\":1442:1447   */\n      dup2\n        /* \"#utility.yul\":1431:1447   */\n      swap1\n      pop\n        /* \"#utility.yul\":1376:1453   */\n      swap2\n      swap1\n      pop\n      jump\t// out\n        /* \"#utility.yul\":1459:1577   */\n    tag_38:\n        /* \"#utility.yul\":1546:1570   */\n      tag_60\n        /* \"#utility.yul\":1564:1569   */\n      dup2\n        /* \"#utility.yul\":1546:1570   */\n      tag_37\n      jump\t// in\n    tag_60:\n        /* \"#utility.yul\":1541:1544   */\n      dup3\n        /* \"#utility.yul\":1534:1571   */\n      mstore\n        /* \"#utility.yul\":1459:1577   */\n      pop\n      pop\n      jump\t// out\n        /* \"#utility.yul\":1583:1805   */\n    tag_18:\n        /* \"#utility.yul\":1676:1680   */\n      0x00\n        /* \"#utility.yul\":1714:1716   */\n      0x20\n        /* \"#utility.yul\":1703:1712   */\n      dup3\n        /* \"#utility.yul\":1699:1717   */\n      add\n        /* \"#utility.yul\":1691:1717   */\n      swap1\n      pop\n        /* \"#utility.yul\":1727:1798   */\n      tag_62\n        /* \"#utility.yul\":1795:1796   */\n      0x00\n        /* \"#utility.yul\":1784:1793   */\n      dup4\n        /* \"#utility.yul\":1780:1797   */\n      add\n        /* \"#utility.yul\":1771:1777   */\n      dup5\n        /* \"#utility.yul\":1727:1798   */\n      tag_38\n      jump\t// in\n    tag_62:\n        /* \"#utility.yul\":1583:1805   */\n      swap3\n      swap2\n      pop\n      pop\n      jump\t// out\n        /* \"#utility.yul\":1811:1991   */\n    tag_39:\n        /* \"#utility.yul\":1859:1936   */\n      0x4e487b7100000000000000000000000000000000000000000000000000000000\n        /* \"#utility.yul\":1856:1857   */\n      0x00\n        /* \"#utility.yul\":1849:1937   */\n      mstore\n        /* \"#utility.yul\":1956:1960   */\n      0x11\n        /* \"#utility.yul\":1953:1954   */\n      0x04\n        /* \"#utility.yul\":1946:1961   */\n      mstore\n        /* \"#utility.yul\":1980:1984   */\n      0x24\n        /* \"#utility.yul\":1977:1978   */\n      0x00\n        /* \"#utility.yul\":1970:1985   */\n      revert\n        /* \"#utility.yul\":1997:2190   */\n    tag_27:\n        /* \"#utility.yul\":2036:2039   */\n      0x00\n        /* \"#utility.yul\":2055:2074   */\n      tag_65\n        /* \"#utility.yul\":2072:2073   */\n      dup3\n        /* \"#utility.yul\":2055:2074   */\n      tag_30\n      jump\t// in\n    tag_65:\n        /* \"#utility.yul\":2050:2074   */\n      swap2\n      pop\n        /* \"#utility.yul\":2088:2107   */\n      tag_66\n        /* \"#utility.yul\":2105:2106   */\n      dup4\n        /* \"#utility.yul\":2088:2107   */\n      tag_30\n      jump\t// in\n    tag_66:\n        /* \"#utility.yul\":2083:2107   */\n      swap3\n      pop\n        /* \"#utility.yul\":2130:2131   */\n      dup3\n        /* \"#utility.yul\":2127:2128   */\n      dup3\n        /* \"#utility.yul\":2123:2132   */\n      add\n        /* \"#utility.yul\":2116:2132   */\n      swap1\n      pop\n        /* \"#utility.yul\":2153:2159   */\n      0xffff\n        /* \"#utility.yul\":2148:2151   */\n      dup2\n        /* \"#utility.yul\":2145:2160   */\n      gt\n        /* \"#utility.yul\":2142:2183   */\n      iszero\n      tag_67\n      jumpi\n        /* \"#utility.yul\":2163:2181   */\n      tag_68\n      tag_39\n      jump\t// in\n    tag_68:\n        /* \"#utility.yul\":2142:2183   */\n    tag_67:\n        /* \"#utility.yul\":1997:2190   */\n      swap3\n      swap2\n      pop\n      pop\n      jump\t// out\n\n    auxdata: 0xa2646970667358221220fcd8a9ea0995406c5bcb9c10d9d8f95483ae6bb24107659bb844aa22d465650064736f6c634300081e0033\n}\n",
				"bytecode": {
					"linkReferences": {},
					"object": "6080604052348015600e575f5ffd5b50600a5f5f6101000a81548161ffff021916908361ffff1602179055506102c6806100385f395ff3fe608060405234801561000f575f5ffd5b506004361061004a575f3560e01c806347f1aae71461004e5780636091d9ab1461006c578063c39235d214610088578063d9aecabc146100a6575b5f5ffd5b6100566100c4565b604051610063919061018b565b60405180910390f35b610086600480360381019061008191906101d2565b6100d6565b005b6100906100fc565b60405161009d9190610215565b60405180910390f35b6100ae610121565b6040516100bb919061018b565b60405180910390f35b5f5f9054906101000a900461ffff1681565b805f5f6101000a81548161ffff021916908361ffff1602179055506100f9610134565b50565b5f600a5f5f9054906101000a900461ffff16610118919061025b565b61ffff16905090565b5f60029054906101000a900461ffff1681565b60015f60028282829054906101000a900461ffff16610153919061025b565b92506101000a81548161ffff021916908361ffff160217905550565b5f61ffff82169050919050565b6101858161016f565b82525050565b5f60208201905061019e5f83018461017c565b92915050565b5f5ffd5b6101b18161016f565b81146101bb575f5ffd5b50565b5f813590506101cc816101a8565b92915050565b5f602082840312156101e7576101e66101a4565b5b5f6101f4848285016101be565b91505092915050565b5f819050919050565b61020f816101fd565b82525050565b5f6020820190506102285f830184610206565b92915050565b7f4e487b71000000000000000000000000000000000000000000000000000000005f52601160045260245ffd5b5f6102658261016f565b91506102708361016f565b9250828201905061ffff81111561028a5761028961022e565b5b9291505056fea2646970667358221220fcd8a9ea0995406c5bcb9c10d9d8f95483ae6bb24107659bb844aa22d465650064736f6c634300081e0033",
					"opcodes": "PUSH1 0x80 PUSH1 0x40 MSTORE CALLVALUE DUP1 ISZERO PUSH1 0xE JUMPI PUSH0 PUSH0 REVERT JUMPDEST POP PUSH1 0xA PUSH0 PUSH0 PUSH2 0x100 EXP DUP2 SLOAD DUP2 PUSH2 0xFFFF MUL NOT AND SWAP1 DUP4 PUSH2 0xFFFF AND MUL OR SWAP1 SSTORE POP PUSH2 0x2C6 DUP1 PUSH2 0x38 PUSH0 CODECOPY PUSH0 RETURN INVALID PUSH1 0x80 PUSH1 0x40 MSTORE CALLVALUE DUP1 ISZERO PUSH2 0xF JUMPI PUSH0 PUSH0 REVERT JUMPDEST POP PUSH1 0x4 CALLDATASIZE LT PUSH2 0x4A JUMPI PUSH0 CALLDATALOAD PUSH1 0xE0 SHR DUP1 PUSH4 0x47F1AAE7 EQ PUSH2 0x4E JUMPI DUP1 PUSH4 0x6091D9AB EQ PUSH2 0x6C JUMPI DUP1 PUSH4 0xC39235D2 EQ PUSH2 0x88 JUMPI DUP1 PUSH4 0xD9AECABC EQ PUSH2 0xA6 JUMPI JUMPDEST PUSH0 PUSH0 REVERT JUMPDEST PUSH2 0x56 PUSH2 0xC4 JUMP JUMPDEST PUSH1 0x40 MLOAD PUSH2 0x63 SWAP2 SWAP1 PUSH2 0x18B JUMP JUMPDEST PUSH1 0x40 MLOAD DUP1 SWAP2 SUB SWAP1 RETURN JUMPDEST PUSH2 0x86 PUSH1 0x4 DUP1 CALLDATASIZE SUB DUP2 ADD SWAP1 PUSH2 0x81 SWAP2 SWAP1 PUSH2 0x1D2 JUMP JUMPDEST PUSH2 0xD6 JUMP JUMPDEST STOP JUMPDEST PUSH2 0x90 PUSH2 0xFC JUMP JUMPDEST PUSH1 0x40 MLOAD PUSH2 0x9D SWAP2 SWAP1 PUSH2 0x215 JUMP JUMPDEST PUSH1 0x40 MLOAD DUP1 SWAP2 SUB SWAP1 RETURN JUMPDEST PUSH2 0xAE PUSH2 0x121 JUMP JUMPDEST PUSH1 0x40 MLOAD PUSH2 0xBB SWAP2 SWAP1 PUSH2 0x18B JUMP JUMPDEST PUSH1 0x40 MLOAD DUP1 SWAP2 SUB SWAP1 RETURN JUMPDEST PUSH0 PUSH0 SWAP1 SLOAD SWAP1 PUSH2 0x100 EXP SWAP1 DIV PUSH2 0xFFFF AND DUP2 JUMP JUMPDEST DUP1 PUSH0 PUSH0 PUSH2 0x100 EXP DUP2 SLOAD DUP2 PUSH2 0xFFFF MUL NOT AND SWAP1 DUP4 PUSH2 0xFFFF AND MUL OR SWAP1 SSTORE POP PUSH2 0xF9 PUSH2 0x134 JUMP JUMPDEST POP JUMP JUMPDEST PUSH0 PUSH1 0xA PUSH0 PUSH0 SWAP1 SLOAD SWAP1 PUSH2 0x100 EXP SWAP1 DIV PUSH2 0xFFFF AND PUSH2 0x118 SWAP2 SWAP1 PUSH2 0x25B JUMP JUMPDEST PUSH2 0xFFFF AND SWAP1 POP SWAP1 JUMP JUMPDEST PUSH0 PUSH1 0x2 SWAP1 SLOAD SWAP1 PUSH2 0x100 EXP SWAP1 DIV PUSH2 0xFFFF AND DUP2 JUMP JUMPDEST PUSH1 0x1 PUSH0 PUSH1 0x2 DUP3 DUP3 DUP3 SWAP1 SLOAD SWAP1 PUSH2 0x100 EXP SWAP1 DIV PUSH2 0xFFFF AND PUSH2 0x153 SWAP2 SWAP1 PUSH2 0x25B JUMP JUMPDEST SWAP3 POP PUSH2 0x100 EXP DUP2 SLOAD DUP2 PUSH2 0xFFFF MUL NOT AND SWAP1 DUP4 PUSH2 0xFFFF AND MUL OR SWAP1 SSTORE POP JUMP JUMPDEST PUSH0 PUSH2 0xFFFF DUP3 AND SWAP1 POP SWAP2 SWAP1 POP JUMP JUMPDEST PUSH2 0x185 DUP2 PUSH2 0x16F JUMP JUMPDEST DUP3 MSTORE POP POP JUMP JUMPDEST PUSH0 PUSH1 0x20 DUP3 ADD SWAP1 POP PUSH2 0x19E PUSH0 DUP4 ADD DUP5 PUSH2 0x17C JUMP JUMPDEST SWAP3 SWAP2 POP POP JUMP JUMPDEST PUSH0 PUSH0 REVERT JUMPDEST PUSH2 0x1B1 DUP2 PUSH2 0x16F JUMP JUMPDEST DUP2 EQ PUSH2 0x1BB JUMPI PUSH0 PUSH0 REVERT JUMPDEST POP JUMP JUMPDEST PUSH0 DUP2 CALLDATALOAD SWAP1 POP PUSH2 0x1CC DUP2 PUSH2 0x1A8 JUMP JUMPDEST SWAP3 SWAP2 POP POP JUMP JUMPDEST PUSH0 PUSH1 0x20 DUP3 DUP5 SUB SLT ISZERO PUSH2 0x1E7 JUMPI PUSH2 0x1E6 PUSH2 0x1A4 JUMP JUMPDEST JUMPDEST PUSH0 PUSH2 0x1F4 DUP5 DUP3 DUP6 ADD PUSH2 0x1BE JUMP JUMPDEST SWAP2 POP POP SWAP3 SWAP2 POP POP JUMP JUMPDEST PUSH0 DUP2 SWAP1 POP SWAP2 SWAP1 POP JUMP JUMPDEST PUSH2 0x20F DUP2 PUSH2 0x1FD JUMP JUMPDEST DUP3 MSTORE POP POP JUMP JUMPDEST PUSH0 PUSH1 0x20 DUP3 ADD SWAP1 POP PUSH2 0x228 PUSH0 DUP4 ADD DUP5 PUSH2 0x206 JUMP JUMPDEST SWAP3 SWAP2 POP POP JUMP JUMPDEST PUSH32 0x4E487B7100000000000000000000000000000000000000000000000000000000 PUSH0 MSTORE PUSH1 0x11 PUSH1 0x4 MSTORE PUSH1 0x24 PUSH0 REVERT JUMPDEST PUSH0 PUSH2 0x265 DUP3 PUSH2 0x16F JUMP JUMPDEST SWAP2 POP PUSH2 0x270 DUP4 PUSH2 0x16F JUMP JUMPDEST SWAP3 POP DUP3 DUP3 ADD SWAP1 POP PUSH2 0xFFFF DUP2 GT ISZERO PUSH2 0x28A JUMPI PUSH2 0x289 PUSH2 0x22E JUMP JUMPDEST JUMPDEST SWAP3 SWAP2 POP POP JUMP INVALID LOG2 PUSH5 0x6970667358 0x22 SLT KECCAK256 0xFC 0xD8 0xA9 0xEA MULMOD SWAP6 BLOCKHASH PUSH13 0x5BCB9C10D9D8F95483AE6BB241 SMOD PUSH6 0x9BB844AA22D4 PUSH6 0x650064736F6C PUSH4 0x4300081E STOP CALLER "
				},
				"gasEstimates": {
					"creation": {
						"codeDepositCost": "142000",
						"executionCost": "24453",
						"totalCost": "166453"
					},
					"external": {
						"myValue()": "2443",
						"numWriting()": "2560",
						"sumTen()": "infinite",
						"writeValue(uint16)": "infinite"
					},
					"internal": {
						"incrementNumWriting()": "infinite"
					}
				},
				"methodIdentifiers": {
					"myValue()": "47f1aae7",
					"numWriting()": "d9aecabc",
					"sumTen()": "c39235d2",
					"writeValue(uint16)": "6091d9ab"
				}
			},
			"storageLayout": {
				"storage": [
					{
						"astId": 3,
						"contract": "basics.sol:SaveValue",
						"label": "myValue",
						"offset": 0,
						"slot": "0",
						"type": "t_uint16"
					},
					{
						"astId": 5,
						"contract": "basics.sol:SaveValue",
						"label": "numWriting",
						"offset": 2,
						"slot": "0",
						"type": "t_uint16"
					}
				],
				"types": {
					"t_uint16": {
						"encoding": "inplace",
						"label": "uint16",
						"numberOfBytes": "2"
					}
				}
			},
			"userdoc": {
				"kind": "user",
				"methods": {},
				"version": 1
			}
		}
	}
}