{
	"Test_uint8.sol": {
		"Test_uint8": {
			"abi": [
				{
					"inputs": [],
					"stateMutability": "nonpayable",
					"type": "constructor"
				},
				{
					"inputs": [],
					"name": "assign5",
					"outputs": [],
					"stateMutability": "nonpayable",
					"type": "function"
				},
				{
					"inputs": [],
					"name": "decrement",
					"outputs": [],
					"stateMutability": "nonpayable",
					"type": "function"
				},
				{
					"inputs": [],
					"name": "increment",
					"outputs": [],
					"stateMutability": "nonpayable",
					"type": "function"
				},
				{
					"inputs": [],
					"name": "little",
					"outputs": [
						{
							"internalType": "uint8",
							"name": "",
							"type": "uint8"
						}
					],
					"stateMutability": "view",
					"type": "function"
				}
			],
			"devdoc": {
				"kind": "dev",
				"methods": {},
				"version": 1
			},
			"evm": {
				"assembly": "    /* \"Test_uint8.sol\":62:343  contract Test_uint8 {... */\n  mstore(0x40, 0x80)\n    /* \"Test_uint8.sol\":114:158  constructor () {... */\n  callvalue\n  dup1\n  iszero\n  tag_1\n  jumpi\n  revert(0x00, 0x00)\ntag_1:\n  pop\n    /* \"Test_uint8.sol\":148:151  250 */\n  0xfa\n    /* \"Test_uint8.sol\":139:145  little */\n  0x00\n  0x00\n    /* \"Test_uint8.sol\":139:151  little = 250 */\n  0x0100\n  exp\n  dup2\n  sload\n  dup2\n  0xff\n  mul\n  not\n  and\n  swap1\n  dup4\n  0xff\n  and\n  mul\n  or\n  swap1\n  sstore\n  pop\n    /* \"Test_uint8.sol\":62:343  contract Test_uint8 {... */\n  dataSize(sub_0)\n  dup1\n  dataOffset(sub_0)\n  0x00\n  codecopy\n  0x00\n  return\nstop\n\nsub_0: assembly {\n        /* \"Test_uint8.sol\":62:343  contract Test_uint8 {... */\n      mstore(0x40, 0x80)\n      callvalue\n      dup1\n      iszero\n      tag_1\n      jumpi\n      revert(0x00, 0x00)\n    tag_1:\n      pop\n      jumpi(tag_2, lt(calldatasize, 0x04))\n      shr(0xe0, calldataload(0x00))\n      dup1\n      0x11fabad1\n      eq\n      tag_3\n      jumpi\n      dup1\n      0x2baeceb7\n      eq\n      tag_4\n      jumpi\n      dup1\n      0x71855401\n      eq\n      tag_5\n      jumpi\n      dup1\n      0xd09de08a\n      eq\n      tag_6\n      jumpi\n    tag_2:\n      revert(0x00, 0x00)\n        /* \"Test_uint8.sol\":226:279  function assign5() public {... */\n    tag_3:\n      tag_7\n      tag_8\n      jump\t// in\n    tag_7:\n      stop\n        /* \"Test_uint8.sol\":285:341  function decrement() public {... */\n    tag_4:\n      tag_9\n      tag_10\n      jump\t// in\n    tag_9:\n      stop\n        /* \"Test_uint8.sol\":88:107  uint8 public little */\n    tag_5:\n      tag_11\n      tag_12\n      jump\t// in\n    tag_11:\n      mload(0x40)\n      tag_13\n      swap2\n      swap1\n      tag_14\n      jump\t// in\n    tag_13:\n      mload(0x40)\n      dup1\n      swap2\n      sub\n      swap1\n      return\n        /* \"Test_uint8.sol\":164:220  function increment() public {... */\n    tag_6:\n      tag_15\n      tag_16\n      jump\t// in\n    tag_15:\n      stop\n        /* \"Test_uint8.sol\":226:279  function assign5() public {... */\n    tag_8:\n        /* \"Test_uint8.sol\":271:272  5 */\n      0x05\n        /* \"Test_uint8.sol\":262:268  little */\n      0x00\n      0x00\n        /* \"Test_uint8.sol\":262:272  little = 5 */\n      0x0100\n      exp\n      dup2\n      sload\n      dup2\n      0xff\n      mul\n      not\n      and\n      swap1\n      dup4\n      0xff\n      and\n      mul\n      or\n      swap1\n      sstore\n      pop\n        /* \"Test_uint8.sol\":226:279  function assign5() public {... */\n      jump\t// out\n        /* \"Test_uint8.sol\":285:341  function decrement() public {... */\n    tag_10:\n        /* \"Test_uint8.sol\":333:334  1 */\n      0x01\n        /* \"Test_uint8.sol\":323:329  little */\n      0x00\n      0x00\n        /* \"Test_uint8.sol\":323:334  little -= 1 */\n      dup3\n      dup3\n      dup3\n      swap1\n      sload\n      swap1\n      0x0100\n      exp\n      swap1\n      div\n      0xff\n      and\n      tag_19\n      swap2\n      swap1\n      tag_20\n      jump\t// in\n    tag_19:\n      swap3\n      pop\n      0x0100\n      exp\n      dup2\n      sload\n      dup2\n      0xff\n      mul\n      not\n      and\n      swap1\n      dup4\n      0xff\n      and\n      mul\n      or\n      swap1\n      sstore\n      pop\n        /* \"Test_uint8.sol\":285:341  function decrement() public {... */\n      jump\t// out\n        /* \"Test_uint8.sol\":88:107  uint8 public little */\n    tag_12:\n      0x00\n      0x00\n      swap1\n      sload\n      swap1\n      0x0100\n      exp\n      swap1\n      div\n      0xff\n      and\n      dup2\n      jump\t// out\n        /* \"Test_uint8.sol\":164:220  function increment() public {... */\n    tag_16:\n        /* \"Test_uint8.sol\":212:213  1 */\n      0x01\n        /* \"Test_uint8.sol\":202:208  little */\n      0x00\n      0x00\n        /* \"Test_uint8.sol\":202:213  little += 1 */\n      dup3\n      dup3\n      dup3\n      swap1\n      sload\n      swap1\n      0x0100\n      exp\n      swap1\n      div\n      0xff\n      and\n      tag_22\n      swap2\n      swap1\n      tag_23\n      jump\t// in\n    tag_22:\n      swap3\n      pop\n      0x0100\n      exp\n      dup2\n      sload\n      dup2\n      0xff\n      mul\n      not\n      and\n      swap1\n      dup4\n      0xff\n      and\n      mul\n      or\n      swap1\n      sstore\n      pop\n        /* \"Test_uint8.sol\":164:220  function increment() public {... */\n      jump\t// out\n        /* \"#utility.yul\":7:93   */\n    tag_24:\n        /* \"#utility.yul\":42:49   */\n      0x00\n        /* \"#utility.yul\":82:86   */\n      0xff\n        /* \"#utility.yul\":75:80   */\n      dup3\n        /* \"#utility.yul\":71:87   */\n      and\n        /* \"#utility.yul\":60:87   */\n      swap1\n      pop\n        /* \"#utility.yul\":7:93   */\n      swap2\n      swap1\n      pop\n      jump\t// out\n        /* \"#utility.yul\":99:211   */\n    tag_25:\n        /* \"#utility.yul\":182:204   */\n      tag_30\n        /* \"#utility.yul\":198:203   */\n      dup2\n        /* \"#utility.yul\":182:204   */\n      tag_24\n      jump\t// in\n    tag_30:\n        /* \"#utility.yul\":177:180   */\n      dup3\n        /* \"#utility.yul\":170:205   */\n      mstore\n        /* \"#utility.yul\":99:211   */\n      pop\n      pop\n      jump\t// out\n        /* \"#utility.yul\":217:431   */\n    tag_14:\n        /* \"#utility.yul\":306:310   */\n      0x00\n        /* \"#utility.yul\":344:346   */\n      0x20\n        /* \"#utility.yul\":333:342   */\n      dup3\n        /* \"#utility.yul\":329:347   */\n      add\n        /* \"#utility.yul\":321:347   */\n      swap1\n      pop\n        /* \"#utility.yul\":357:424   */\n      tag_32\n        /* \"#utility.yul\":421:422   */\n      0x00\n        /* \"#utility.yul\":410:419   */\n      dup4\n        /* \"#utility.yul\":406:423   */\n      add\n        /* \"#utility.yul\":397:403   */\n      dup5\n        /* \"#utility.yul\":357:424   */\n      tag_25\n      jump\t// in\n    tag_32:\n        /* \"#utility.yul\":217:431   */\n      swap3\n      swap2\n      pop\n      pop\n      jump\t// out\n        /* \"#utility.yul\":437:617   */\n    tag_26:\n        /* \"#utility.yul\":485:562   */\n      0x4e487b7100000000000000000000000000000000000000000000000000000000\n        /* \"#utility.yul\":482:483   */\n      0x00\n        /* \"#utility.yul\":475:563   */\n      mstore\n        /* \"#utility.yul\":582:586   */\n      0x11\n        /* \"#utility.yul\":579:580   */\n      0x04\n        /* \"#utility.yul\":572:587   */\n      mstore\n        /* \"#utility.yul\":606:610   */\n      0x24\n        /* \"#utility.yul\":603:604   */\n      0x00\n        /* \"#utility.yul\":596:611   */\n      revert\n        /* \"#utility.yul\":623:814   */\n    tag_20:\n        /* \"#utility.yul\":661:665   */\n      0x00\n        /* \"#utility.yul\":681:699   */\n      tag_35\n        /* \"#utility.yul\":697:698   */\n      dup3\n        /* \"#utility.yul\":681:699   */\n      tag_24\n      jump\t// in\n    tag_35:\n        /* \"#utility.yul\":676:699   */\n      swap2\n      pop\n        /* \"#utility.yul\":713:731   */\n      tag_36\n        /* \"#utility.yul\":729:730   */\n      dup4\n        /* \"#utility.yul\":713:731   */\n      tag_24\n      jump\t// in\n    tag_36:\n        /* \"#utility.yul\":708:731   */\n      swap3\n      pop\n        /* \"#utility.yul\":755:756   */\n      dup3\n        /* \"#utility.yul\":752:753   */\n      dup3\n        /* \"#utility.yul\":748:757   */\n      sub\n        /* \"#utility.yul\":740:757   */\n      swap1\n      pop\n        /* \"#utility.yul\":779:783   */\n      0xff\n        /* \"#utility.yul\":773:777   */\n      dup2\n        /* \"#utility.yul\":770:784   */\n      gt\n        /* \"#utility.yul\":767:807   */\n      iszero\n      tag_37\n      jumpi\n        /* \"#utility.yul\":787:805   */\n      tag_38\n      tag_26\n      jump\t// in\n    tag_38:\n        /* \"#utility.yul\":767:807   */\n    tag_37:\n        /* \"#utility.yul\":623:814   */\n      swap3\n      swap2\n      pop\n      pop\n      jump\t// out\n        /* \"#utility.yul\":820:1008   */\n    tag_23:\n        /* \"#utility.yul\":858:861   */\n      0x00\n        /* \"#utility.yul\":877:895   */\n      tag_40\n        /* \"#utility.yul\":893:894   */\n      dup3\n        /* \"#utility.yul\":877:895   */\n      tag_24\n      jump\t// in\n    tag_40:\n        /* \"#utility.yul\":872:895   */\n      swap2\n      pop\n        /* \"#utility.yul\":909:927   */\n      tag_41\n        /* \"#utility.yul\":925:926   */\n      dup4\n        /* \"#utility.yul\":909:927   */\n      tag_24\n      jump\t// in\n    tag_41:\n        /* \"#utility.yul\":904:927   */\n      swap3\n      pop\n        /* \"#utility.yul\":950:951   */\n      dup3\n        /* \"#utility.yul\":947:948   */\n      dup3\n        /* \"#utility.yul\":943:952   */\n      add\n        /* \"#utility.yul\":936:952   */\n      swap1\n      pop\n        /* \"#utility.yul\":973:977   */\n      0xff\n        /* \"#utility.yul\":968:971   */\n      dup2\n        /* \"#utility.yul\":965:978   */\n      gt\n        /* \"#utility.yul\":962:1001   */\n      iszero\n      tag_42\n      jumpi\n        /* \"#utility.yul\":981:999   */\n      tag_43\n      tag_26\n      jump\t// in\n    tag_43:\n        /* \"#utility.yul\":962:1001   */\n    tag_42:\n        /* \"#utility.yul\":820:1008   */\n      swap3\n      swap2\n      pop\n      pop\n      jump\t// out\n\n    auxdata: 0xa26469706673582212204a890a7da13e83b9437857d9fbef28ff57a32f4f598eb6cf2c12d8a9a3beed4064736f6c634300081e0033\n}\n",
				"bytecode": {
					"linkReferences": {},
					"object": "6080604052348015600e575f5ffd5b5060fa5f5f6101000a81548160ff021916908360ff160217905550610224806100365f395ff3fe608060405234801561000f575f5ffd5b506004361061004a575f3560e01c806311fabad11461004e5780632baeceb7146100585780637185540114610062578063d09de08a14610080575b5f5ffd5b61005661008a565b005b6100606100a6565b005b61006a6100dd565b6040516100779190610140565b60405180910390f35b6100886100ee565b005b60055f5f6101000a81548160ff021916908360ff160217905550565b60015f5f8282829054906101000a900460ff166100c39190610186565b92506101000a81548160ff021916908360ff160217905550565b5f5f9054906101000a900460ff1681565b60015f5f8282829054906101000a900460ff1661010b91906101ba565b92506101000a81548160ff021916908360ff160217905550565b5f60ff82169050919050565b61013a81610125565b82525050565b5f6020820190506101535f830184610131565b92915050565b7f4e487b71000000000000000000000000000000000000000000000000000000005f52601160045260245ffd5b5f61019082610125565b915061019b83610125565b9250828203905060ff8111156101b4576101b3610159565b5b92915050565b5f6101c482610125565b91506101cf83610125565b9250828201905060ff8111156101e8576101e7610159565b5b9291505056fea26469706673582212204a890a7da13e83b9437857d9fbef28ff57a32f4f598eb6cf2c12d8a9a3beed4064736f6c634300081e0033",
					"opcodes": "PUSH1 0x80 PUSH1 0x40 MSTORE CALLVALUE DUP1 ISZERO PUSH1 0xE JUMPI PUSH0 PUSH0 REVERT JUMPDEST POP PUSH1 0xFA PUSH0 PUSH0 PUSH2 0x100 EXP DUP2 SLOAD DUP2 PUSH1 0xFF MUL NOT AND SWAP1 DUP4 PUSH1 0xFF AND MUL OR SWAP1 SSTORE POP PUSH2 0x224 DUP1 PUSH2 0x36 PUSH0 CODECOPY PUSH0 RETURN INVALID PUSH1 0x80 PUSH1 0x40 MSTORE CALLVALUE DUP1 ISZERO PUSH2 0xF JUMPI PUSH0 PUSH0 REVERT JUMPDEST POP PUSH1 0x4 CALLDATASIZE LT PUSH2 0x4A JUMPI PUSH0 CALLDATALOAD PUSH1 0xE0 SHR DUP1 PUSH4 0x11FABAD1 EQ PUSH2 0x4E JUMPI DUP1 PUSH4 0x2BAECEB7 EQ PUSH2 0x58 JUMPI DUP1 PUSH4 0x71855401 EQ PUSH2 0x62 JUMPI DUP1 PUSH4 0xD09DE08A EQ PUSH2 0x80 JUMPI JUMPDEST PUSH0 PUSH0 REVERT JUMPDEST PUSH2 0x56 PUSH2 0x8A JUMP JUMPDEST STOP JUMPDEST PUSH2 0x60 PUSH2 0xA6 JUMP JUMPDEST STOP JUMPDEST PUSH2 0x6A PUSH2 0xDD JUMP JUMPDEST PUSH1 0x40 MLOAD PUSH2 0x77 SWAP2 SWAP1 PUSH2 0x140 JUMP JUMPDEST PUSH1 0x40 MLOAD DUP1 SWAP2 SUB SWAP1 RETURN JUMPDEST PUSH2 0x88 PUSH2 0xEE JUMP JUMPDEST STOP JUMPDEST PUSH1 0x5 PUSH0 PUSH0 PUSH2 0x100 EXP DUP2 SLOAD DUP2 PUSH1 0xFF MUL NOT AND SWAP1 DUP4 PUSH1 0xFF AND MUL OR SWAP1 SSTORE POP JUMP JUMPDEST PUSH1 0x1 PUSH0 PUSH0 DUP3 DUP3 DUP3 SWAP1 SLOAD SWAP1 PUSH2 0x100 EXP SWAP1 DIV PUSH1 0xFF AND PUSH2 0xC3 SWAP2 SWAP1 PUSH2 0x186 JUMP JUMPDEST SWAP3 POP PUSH2 0x100 EXP DUP2 SLOAD DUP2 PUSH1 0xFF MUL NOT AND SWAP1 DUP4 PUSH1 0xFF AND MUL OR SWAP1 SSTORE POP JUMP JUMPDEST PUSH0 PUSH0 SWAP1 SLOAD SWAP1 PUSH2 0x100 EXP SWAP1 DIV PUSH1 0xFF AND DUP2 JUMP JUMPDEST PUSH1 0x1 PUSH0 PUSH0 DUP3 DUP3 DUP3 SWAP1 SLOAD SWAP1 PUSH2 0x100 EXP SWAP1 DIV PUSH1 0xFF AND PUSH2 0x10B SWAP2 SWAP1 PUSH2 0x1BA JUMP JUMPDEST SWAP3 POP PUSH2 0x100 EXP DUP2 SLOAD DUP2 PUSH1 0xFF MUL NOT AND SWAP1 DUP4 PUSH1 0xFF AND MUL OR SWAP1 SSTORE POP JUMP JUMPDEST PUSH0 PUSH1 0xFF DUP3 AND SWAP1 POP SWAP2 SWAP1 POP JUMP JUMPDEST PUSH2 0x13A DUP2 PUSH2 0x125 JUMP JUMPDEST DUP3 MSTORE POP POP JUMP JUMPDEST PUSH0 PUSH1 0x20 DUP3 ADD SWAP1 POP PUSH2 0x153 PUSH0 DUP4 ADD DUP5 PUSH2 0x131 JUMP JUMPDEST SWAP3 SWAP2 POP POP JUMP JUMPDEST PUSH32 0x4E487B7100000000000000000000000000000000000000000000000000000000 PUSH0 MSTORE PUSH1 0x11 PUSH1 0x4 MSTORE PUSH1 0x24 PUSH0 REVERT JUMPDEST PUSH0 PUSH2 0x190 DUP3 PUSH2 0x125 JUMP JUMPDEST SWAP2 POP PUSH2 0x19B DUP4 PUSH2 0x125 JUMP JUMPDEST SWAP3 POP DUP3 DUP3 SUB SWAP1 POP PUSH1 0xFF DUP2 GT ISZERO PUSH2 0x1B4 JUMPI PUSH2 0x1B3 PUSH2 0x159 JUMP JUMPDEST JUMPDEST SWAP3 SWAP2 POP POP JUMP JUMPDEST PUSH0 PUSH2 0x1C4 DUP3 PUSH2 0x125 JUMP JUMPDEST SWAP2 POP PUSH2 0x1CF DUP4 PUSH2 0x125 JUMP JUMPDEST SWAP3 POP DUP3 DUP3 ADD SWAP1 POP PUSH1 0xFF DUP2 GT ISZERO PUSH2 0x1E8 JUMPI PUSH2 0x1E7 PUSH2 0x159 JUMP JUMPDEST JUMPDEST SWAP3 SWAP2 POP POP JUMP INVALID LOG2 PUSH5 0x6970667358 0x22 SLT KECCAK256 BLOBBASEFEE DUP10 EXP PUSH30 0xA13E83B9437857D9FBEF28FF57A32F4F598EB6CF2C12D8A9A3BEED406473 PUSH16 0x6C634300081E00330000000000000000 "
				},
				"gasEstimates": {
					"creation": {
						"codeDepositCost": "109600",
						"executionCost": "24422",
						"totalCost": "134022"
					},
					"external": {
						"assign5()": "24386",
						"decrement()": "infinite",
						"increment()": "infinite",
						"little()": "2487"
					}
				},
				"methodIdentifiers": {
					"assign5()": "11fabad1",
					"decrement()": "2baeceb7",
					"increment()": "d09de08a",
					"little()": "71855401"
				}
			},
			"storageLayout": {
				"storage": [
					{
						"astId": 3,
						"contract": "Test_uint8.sol:Test_uint8",
						"label": "little",
						"offset": 0,
						"slot": "0",
						"type": "t_uint8"
					}
				],
				"types": {
					"t_uint8": {
						"encoding": "inplace",
						"label": "uint8",
						"numberOfBytes": "1"
					}
				}
			},
			"userdoc": {
				"kind": "user",
				"methods": {},
				"version": 1
			}
		}
	}
}